{
  "_format": "hh-sol-artifact-1",
  "contractName": "MyContractV2",
  "sourceName": "contracts/MyContractV2.sol",
  "abi": [
    {
      "anonymous": false,
      "inputs": [
        {
          "indexed": false,
          "internalType": "address",
          "name": "previousAdmin",
          "type": "address"
        },
        {
          "indexed": false,
          "internalType": "address",
          "name": "newAdmin",
          "type": "address"
        }
      ],
      "name": "AdminChanged",
      "type": "event"
    },
    {
      "anonymous": false,
      "inputs": [
        {
          "indexed": true,
          "internalType": "address",
          "name": "beacon",
          "type": "address"
        }
      ],
      "name": "BeaconUpgraded",
      "type": "event"
    },
    {
      "anonymous": false,
      "inputs": [
        {
          "indexed": true,
          "internalType": "address",
          "name": "previousOwner",
          "type": "address"
        },
        {
          "indexed": true,
          "internalType": "address",
          "name": "newOwner",
          "type": "address"
        }
      ],
      "name": "OwnershipTransferred",
      "type": "event"
    },
    {
      "anonymous": false,
      "inputs": [
        {
          "indexed": true,
          "internalType": "address",
          "name": "implementation",
          "type": "address"
        }
      ],
      "name": "Upgraded",
      "type": "event"
    },
    {
      "inputs": [],
      "name": "VERSION",
      "outputs": [
        {
          "internalType": "string",
          "name": "",
          "type": "string"
        }
      ],
      "stateMutability": "view",
      "type": "function"
    },
    {
      "inputs": [],
      "name": "confirmationNeeded",
      "outputs": [
        {
          "internalType": "uint8",
          "name": "",
          "type": "uint8"
        }
      ],
      "stateMutability": "view",
      "type": "function"
    },
    {
      "inputs": [],
      "name": "getConfX2",
      "outputs": [
        {
          "internalType": "uint8",
          "name": "",
          "type": "uint8"
        }
      ],
      "stateMutability": "view",
      "type": "function"
    },
    {
      "inputs": [
        {
          "internalType": "address[]",
          "name": "_owners",
          "type": "address[]"
        },
        {
          "internalType": "uint8",
          "name": "_confirmationNeeded",
          "type": "uint8"
        }
      ],
      "name": "initialize",
      "outputs": [],
      "stateMutability": "nonpayable",
      "type": "function"
    },
    {
      "inputs": [],
      "name": "owner",
      "outputs": [
        {
          "internalType": "address",
          "name": "",
          "type": "address"
        }
      ],
      "stateMutability": "view",
      "type": "function"
    },
    {
      "inputs": [
        {
          "internalType": "uint256",
          "name": "",
          "type": "uint256"
        }
      ],
      "name": "owners",
      "outputs": [
        {
          "internalType": "address",
          "name": "",
          "type": "address"
        }
      ],
      "stateMutability": "view",
      "type": "function"
    },
    {
      "inputs": [],
      "name": "proxiableUUID",
      "outputs": [
        {
          "internalType": "bytes32",
          "name": "",
          "type": "bytes32"
        }
      ],
      "stateMutability": "view",
      "type": "function"
    },
    {
      "inputs": [],
      "name": "renounceOwnership",
      "outputs": [],
      "stateMutability": "nonpayable",
      "type": "function"
    },
    {
      "inputs": [
        {
          "internalType": "address",
          "name": "newOwner",
          "type": "address"
        }
      ],
      "name": "transferOwnership",
      "outputs": [],
      "stateMutability": "nonpayable",
      "type": "function"
    },
    {
      "inputs": [
        {
          "internalType": "address",
          "name": "newImplementation",
          "type": "address"
        }
      ],
      "name": "upgradeTo",
      "outputs": [],
      "stateMutability": "nonpayable",
      "type": "function"
    },
    {
      "inputs": [
        {
          "internalType": "address",
          "name": "newImplementation",
          "type": "address"
        },
        {
          "internalType": "bytes",
          "name": "data",
          "type": "bytes"
        }
      ],
      "name": "upgradeToAndCall",
      "outputs": [],
      "stateMutability": "payable",
      "type": "function"
    }
  ],
  "bytecode": "0x60a06040523073ffffffffffffffffffffffffffffffffffffffff1660809073ffffffffffffffffffffffffffffffffffffffff168152503480156200004457600080fd5b50600060019054906101000a900460ff166200006f5760008054906101000a900460ff161562000080565b6200007f6200013c60201b60201c565b5b620000c2576040517f08c379a0000000000000000000000000000000000000000000000000000000008152600401620000b99062000204565b60405180910390fd5b60008060019054906101000a900460ff16159050801562000113576001600060016101000a81548160ff02191690831515021790555060016000806101000a81548160ff0219169083151502179055505b8015620001355760008060016101000a81548160ff0219169083151502179055505b5062000226565b600062000154306200015a60201b620009e51760201c565b15905090565b6000808273ffffffffffffffffffffffffffffffffffffffff163b119050919050565b600082825260208201905092915050565b7f496e697469616c697a61626c653a20636f6e747261637420697320616c72656160008201527f647920696e697469616c697a6564000000000000000000000000000000000000602082015250565b6000620001ec602e836200017d565b9150620001f9826200018e565b604082019050919050565b600060208201905081810360008301526200021f81620001dd565b9050919050565b608051611e116200025e60003960008181610465015281816104f3015281816106100152818161069e015261074e0152611e116000f3fe60806040526004361061009c5760003560e01c80634f1ef286116100645780634f1ef2861461018657806352d1902d146101a2578063715018a6146101cd5780638da5cb5b146101e4578063f2fde38b1461020f578063ffa1ad74146102385761009c565b8063025e7c27146100a15780632b9a9f50146100de5780632bbdea4e146101095780633659cfe61461013257806349b158801461015b575b600080fd5b3480156100ad57600080fd5b506100c860048036038101906100c39190611113565b610263565b6040516100d59190611181565b60405180910390f35b3480156100ea57600080fd5b506100f36102a2565b60405161010091906111b8565b60405180910390f35b34801561011557600080fd5b50610130600480360381019061012b9190611384565b6102b5565b005b34801561013e57600080fd5b50610159600480360381019061015491906113e0565b610463565b005b34801561016757600080fd5b506101706105eb565b60405161017d91906111b8565b60405180910390f35b6101a0600480360381019061019b91906114c2565b61060e565b005b3480156101ae57600080fd5b506101b761074a565b6040516101c49190611537565b60405180910390f35b3480156101d957600080fd5b506101e2610803565b005b3480156101f057600080fd5b506101f961088b565b6040516102069190611181565b60405180910390f35b34801561021b57600080fd5b50610236600480360381019061023191906113e0565b6108b5565b005b34801561024457600080fd5b5061024d6109ac565b60405161025a91906115da565b60405180910390f35b60ca818154811061027357600080fd5b906000526020600020016000915054906101000a900473ffffffffffffffffffffffffffffffffffffffff1681565b60c960009054906101000a900460ff1681565b600060019054906101000a900460ff166102dd5760008054906101000a900460ff16156102e6565b6102e5610a08565b5b610325576040517f08c379a000000000000000000000000000000000000000000000000000000000815260040161031c9061166e565b60405180910390fd5b60008060019054906101000a900460ff161590508015610375576001600060016101000a81548160ff02191690831515021790555060016000806101000a81548160ff0219169083151502179055505b61037d610a19565b610385610a72565b8160c960006101000a81548160ff021916908360ff16021790555060005b835181101561043c5760ca8482815181106103c1576103c061168e565b5b60200260200101519080600181540180825580915050600190039060005260206000200160009091909190916101000a81548173ffffffffffffffffffffffffffffffffffffffff021916908373ffffffffffffffffffffffffffffffffffffffff1602179055508080610434906116ec565b9150506103a3565b50801561045e5760008060016101000a81548160ff0219169083151502179055505b505050565b7f000000000000000000000000000000000000000000000000000000000000000073ffffffffffffffffffffffffffffffffffffffff163073ffffffffffffffffffffffffffffffffffffffff16036104f1576040517f08c379a00000000000000000000000000000000000000000000000000000000081526004016104e8906117a6565b60405180910390fd5b7f000000000000000000000000000000000000000000000000000000000000000073ffffffffffffffffffffffffffffffffffffffff16610530610ac3565b73ffffffffffffffffffffffffffffffffffffffff1614610586576040517f08c379a000000000000000000000000000000000000000000000000000000000815260040161057d90611838565b60405180910390fd5b61058f81610b1a565b6105e881600067ffffffffffffffff8111156105ae576105ad6111e9565b5b6040519080825280601f01601f1916602001820160405280156105e05781602001600182028036833780820191505090505b506000610b99565b50565b6000600260c960009054906101000a900460ff166106099190611858565b905090565b7f000000000000000000000000000000000000000000000000000000000000000073ffffffffffffffffffffffffffffffffffffffff163073ffffffffffffffffffffffffffffffffffffffff160361069c576040517f08c379a0000000000000000000000000000000000000000000000000000000008152600401610693906117a6565b60405180910390fd5b7f000000000000000000000000000000000000000000000000000000000000000073ffffffffffffffffffffffffffffffffffffffff166106db610ac3565b73ffffffffffffffffffffffffffffffffffffffff1614610731576040517f08c379a000000000000000000000000000000000000000000000000000000000815260040161072890611838565b60405180910390fd5b61073a82610b1a565b61074682826001610b99565b5050565b60007f000000000000000000000000000000000000000000000000000000000000000073ffffffffffffffffffffffffffffffffffffffff163073ffffffffffffffffffffffffffffffffffffffff16146107da576040517f08c379a00000000000000000000000000000000000000000000000000000000081526004016107d190611905565b60405180910390fd5b7f360894a13ba1a3210667c828492db98dca3e2076cc3735a920a3ca505d382bbc60001b905090565b61080b610d07565b73ffffffffffffffffffffffffffffffffffffffff1661082961088b565b73ffffffffffffffffffffffffffffffffffffffff161461087f576040517f08c379a000000000000000000000000000000000000000000000000000000000815260040161087690611971565b60405180910390fd5b6108896000610d0f565b565b6000609760009054906101000a900473ffffffffffffffffffffffffffffffffffffffff16905090565b6108bd610d07565b73ffffffffffffffffffffffffffffffffffffffff166108db61088b565b73ffffffffffffffffffffffffffffffffffffffff1614610931576040517f08c379a000000000000000000000000000000000000000000000000000000000815260040161092890611971565b60405180910390fd5b600073ffffffffffffffffffffffffffffffffffffffff168173ffffffffffffffffffffffffffffffffffffffff16036109a0576040517f08c379a000000000000000000000000000000000000000000000000000000000815260040161099790611a03565b60405180910390fd5b6109a981610d0f565b50565b6040518060400160405280600581526020017f302e302e3100000000000000000000000000000000000000000000000000000081525081565b6000808273ffffffffffffffffffffffffffffffffffffffff163b119050919050565b6000610a13306109e5565b15905090565b600060019054906101000a900460ff16610a68576040517f08c379a0000000000000000000000000000000000000000000000000000000008152600401610a5f90611a95565b60405180910390fd5b610a70610dd5565b565b600060019054906101000a900460ff16610ac1576040517f08c379a0000000000000000000000000000000000000000000000000000000008152600401610ab890611a95565b60405180910390fd5b565b6000610af17f360894a13ba1a3210667c828492db98dca3e2076cc3735a920a3ca505d382bbc60001b610e36565b60000160009054906101000a900473ffffffffffffffffffffffffffffffffffffffff16905090565b610b22610d07565b73ffffffffffffffffffffffffffffffffffffffff16610b4061088b565b73ffffffffffffffffffffffffffffffffffffffff1614610b96576040517f08c379a0000000000000000000000000000000000000000000000000000000008152600401610b8d90611971565b60405180910390fd5b50565b610bc57f4910fdfa16fed3260ed0e7147f7cc6da11a60208b5b9406d12a635614ffd914360001b610e40565b60000160009054906101000a900460ff1615610be957610be483610e4a565b610d02565b8273ffffffffffffffffffffffffffffffffffffffff166352d1902d6040518163ffffffff1660e01b8152600401602060405180830381865afa925050508015610c5157506040513d601f19601f82011682018060405250810190610c4e9190611ae1565b60015b610c90576040517f08c379a0000000000000000000000000000000000000000000000000000000008152600401610c8790611b80565b60405180910390fd5b7f360894a13ba1a3210667c828492db98dca3e2076cc3735a920a3ca505d382bbc60001b8114610cf5576040517f08c379a0000000000000000000000000000000000000000000000000000000008152600401610cec90611c12565b60405180910390fd5b50610d01838383610f03565b5b505050565b600033905090565b6000609760009054906101000a900473ffffffffffffffffffffffffffffffffffffffff16905081609760006101000a81548173ffffffffffffffffffffffffffffffffffffffff021916908373ffffffffffffffffffffffffffffffffffffffff1602179055508173ffffffffffffffffffffffffffffffffffffffff168173ffffffffffffffffffffffffffffffffffffffff167f8be0079c531659141344cd1fd0a4f28419497f9722a3daafe3b4186f6b6457e060405160405180910390a35050565b600060019054906101000a900460ff16610e24576040517f08c379a0000000000000000000000000000000000000000000000000000000008152600401610e1b90611a95565b60405180910390fd5b610e34610e2f610d07565b610d0f565b565b6000819050919050565b6000819050919050565b610e53816109e5565b610e92576040517f08c379a0000000000000000000000000000000000000000000000000000000008152600401610e8990611ca4565b60405180910390fd5b80610ebf7f360894a13ba1a3210667c828492db98dca3e2076cc3735a920a3ca505d382bbc60001b610e36565b60000160006101000a81548173ffffffffffffffffffffffffffffffffffffffff021916908373ffffffffffffffffffffffffffffffffffffffff16021790555050565b610f0c83610f2f565b600082511180610f195750805b15610f2a57610f288383610f7e565b505b505050565b610f3881610e4a565b8073ffffffffffffffffffffffffffffffffffffffff167fbc7cd75a20ee27fd9adebab32041f755214dbc6bffa90cc0225b39da2e5c2d3b60405160405180910390a250565b6060610f89836109e5565b610fc8576040517f08c379a0000000000000000000000000000000000000000000000000000000008152600401610fbf90611d36565b60405180910390fd5b6000808473ffffffffffffffffffffffffffffffffffffffff1684604051610ff09190611d9d565b600060405180830381855af49150503d806000811461102b576040519150601f19603f3d011682016040523d82523d6000602084013e611030565b606091505b50915091506110588282604051806060016040528060278152602001611db560279139611062565b9250505092915050565b60608315611072578290506110c2565b6000835111156110855782518084602001fd5b816040517f08c379a00000000000000000000000000000000000000000000000000000000081526004016110b991906115da565b60405180910390fd5b9392505050565b6000604051905090565b600080fd5b600080fd5b6000819050919050565b6110f0816110dd565b81146110fb57600080fd5b50565b60008135905061110d816110e7565b92915050565b600060208284031215611129576111286110d3565b5b6000611137848285016110fe565b91505092915050565b600073ffffffffffffffffffffffffffffffffffffffff82169050919050565b600061116b82611140565b9050919050565b61117b81611160565b82525050565b60006020820190506111966000830184611172565b92915050565b600060ff82169050919050565b6111b28161119c565b82525050565b60006020820190506111cd60008301846111a9565b92915050565b600080fd5b6000601f19601f8301169050919050565b7f4e487b7100000000000000000000000000000000000000000000000000000000600052604160045260246000fd5b611221826111d8565b810181811067ffffffffffffffff821117156112405761123f6111e9565b5b80604052505050565b60006112536110c9565b905061125f8282611218565b919050565b600067ffffffffffffffff82111561127f5761127e6111e9565b5b602082029050602081019050919050565b600080fd5b61129e81611160565b81146112a957600080fd5b50565b6000813590506112bb81611295565b92915050565b60006112d46112cf84611264565b611249565b905080838252602082019050602084028301858111156112f7576112f6611290565b5b835b81811015611320578061130c88826112ac565b8452602084019350506020810190506112f9565b5050509392505050565b600082601f83011261133f5761133e6111d3565b5b813561134f8482602086016112c1565b91505092915050565b6113618161119c565b811461136c57600080fd5b50565b60008135905061137e81611358565b92915050565b6000806040838503121561139b5761139a6110d3565b5b600083013567ffffffffffffffff8111156113b9576113b86110d8565b5b6113c58582860161132a565b92505060206113d68582860161136f565b9150509250929050565b6000602082840312156113f6576113f56110d3565b5b6000611404848285016112ac565b91505092915050565b600080fd5b600067ffffffffffffffff82111561142d5761142c6111e9565b5b611436826111d8565b9050602081019050919050565b82818337600083830152505050565b600061146561146084611412565b611249565b9050828152602081018484840111156114815761148061140d565b5b61148c848285611443565b509392505050565b600082601f8301126114a9576114a86111d3565b5b81356114b9848260208601611452565b91505092915050565b600080604083850312156114d9576114d86110d3565b5b60006114e7858286016112ac565b925050602083013567ffffffffffffffff811115611508576115076110d8565b5b61151485828601611494565b9150509250929050565b6000819050919050565b6115318161151e565b82525050565b600060208201905061154c6000830184611528565b92915050565b600081519050919050565b600082825260208201905092915050565b60005b8381101561158c578082015181840152602081019050611571565b8381111561159b576000848401525b50505050565b60006115ac82611552565b6115b6818561155d565b93506115c681856020860161156e565b6115cf816111d8565b840191505092915050565b600060208201905081810360008301526115f481846115a1565b905092915050565b7f496e697469616c697a61626c653a20636f6e747261637420697320616c72656160008201527f647920696e697469616c697a6564000000000000000000000000000000000000602082015250565b6000611658602e8361155d565b9150611663826115fc565b604082019050919050565b600060208201905081810360008301526116878161164b565b9050919050565b7f4e487b7100000000000000000000000000000000000000000000000000000000600052603260045260246000fd5b7f4e487b7100000000000000000000000000000000000000000000000000000000600052601160045260246000fd5b60006116f7826110dd565b91507fffffffffffffffffffffffffffffffffffffffffffffffffffffffffffffffff8203611729576117286116bd565b5b600182019050919050565b7f46756e6374696f6e206d7573742062652063616c6c6564207468726f7567682060008201527f64656c656761746563616c6c0000000000000000000000000000000000000000602082015250565b6000611790602c8361155d565b915061179b82611734565b604082019050919050565b600060208201905081810360008301526117bf81611783565b9050919050565b7f46756e6374696f6e206d7573742062652063616c6c6564207468726f7567682060008201527f6163746976652070726f78790000000000000000000000000000000000000000602082015250565b6000611822602c8361155d565b915061182d826117c6565b604082019050919050565b6000602082019050818103600083015261185181611815565b9050919050565b60006118638261119c565b915061186e8361119c565b92508160ff0483118215151615611888576118876116bd565b5b828202905092915050565b7f555550535570677261646561626c653a206d757374206e6f742062652063616c60008201527f6c6564207468726f7567682064656c656761746563616c6c0000000000000000602082015250565b60006118ef60388361155d565b91506118fa82611893565b604082019050919050565b6000602082019050818103600083015261191e816118e2565b9050919050565b7f4f776e61626c653a2063616c6c6572206973206e6f7420746865206f776e6572600082015250565b600061195b60208361155d565b915061196682611925565b602082019050919050565b6000602082019050818103600083015261198a8161194e565b9050919050565b7f4f776e61626c653a206e6577206f776e657220697320746865207a65726f206160008201527f6464726573730000000000000000000000000000000000000000000000000000602082015250565b60006119ed60268361155d565b91506119f882611991565b604082019050919050565b60006020820190508181036000830152611a1c816119e0565b9050919050565b7f496e697469616c697a61626c653a20636f6e7472616374206973206e6f74206960008201527f6e697469616c697a696e67000000000000000000000000000000000000000000602082015250565b6000611a7f602b8361155d565b9150611a8a82611a23565b604082019050919050565b60006020820190508181036000830152611aae81611a72565b9050919050565b611abe8161151e565b8114611ac957600080fd5b50565b600081519050611adb81611ab5565b92915050565b600060208284031215611af757611af66110d3565b5b6000611b0584828501611acc565b91505092915050565b7f45524331393637557067726164653a206e657720696d706c656d656e7461746960008201527f6f6e206973206e6f742055555053000000000000000000000000000000000000602082015250565b6000611b6a602e8361155d565b9150611b7582611b0e565b604082019050919050565b60006020820190508181036000830152611b9981611b5d565b9050919050565b7f45524331393637557067726164653a20756e737570706f727465642070726f7860008201527f6961626c65555549440000000000000000000000000000000000000000000000602082015250565b6000611bfc60298361155d565b9150611c0782611ba0565b604082019050919050565b60006020820190508181036000830152611c2b81611bef565b9050919050565b7f455243313936373a206e657720696d706c656d656e746174696f6e206973206e60008201527f6f74206120636f6e747261637400000000000000000000000000000000000000602082015250565b6000611c8e602d8361155d565b9150611c9982611c32565b604082019050919050565b60006020820190508181036000830152611cbd81611c81565b9050919050565b7f416464726573733a2064656c65676174652063616c6c20746f206e6f6e2d636f60008201527f6e74726163740000000000000000000000000000000000000000000000000000602082015250565b6000611d2060268361155d565b9150611d2b82611cc4565b604082019050919050565b60006020820190508181036000830152611d4f81611d13565b9050919050565b600081519050919050565b600081905092915050565b6000611d7782611d56565b611d818185611d61565b9350611d9181856020860161156e565b80840191505092915050565b6000611da98284611d6c565b91508190509291505056fe416464726573733a206c6f772d6c6576656c2064656c65676174652063616c6c206661696c6564a2646970667358221220e363eadf6314a656f851039ea7223b951dba3d87d2963bef89a595c0457c12eb64736f6c634300080d0033",
  "linkReferences": {},
  "deployedLinkReferences": {}
}