{
  "_format": "hh-sol-artifact-1",
  "contractName": "MyProxyFactory",
  "sourceName": "contracts/MyProxyFactory.sol",
  "abi": [
    {
      "inputs": [],
      "stateMutability": "nonpayable",
      "type": "constructor"
    },
    {
      "anonymous": false,
      "inputs": [
        {
          "indexed": true,
          "internalType": "address",
          "name": "adrs",
          "type": "address"
        }
      ],
      "name": "ProxyCreated",
      "type": "event"
    },
    {
      "inputs": [
        {
          "internalType": "address",
          "name": "",
          "type": "address"
        },
        {
          "internalType": "uint256",
          "name": "",
          "type": "uint256"
        }
      ],
      "name": "commownProxiesPerUser",
      "outputs": [
        {
          "internalType": "address",
          "name": "",
          "type": "address"
        }
      ],
      "stateMutability": "view",
      "type": "function"
    },
    {
      "inputs": [
        {
          "internalType": "address[]",
          "name": "_owners",
          "type": "address[]"
        },
        {
          "internalType": "uint8",
          "name": "_confirmationNeeded",
          "type": "uint8"
        }
      ],
      "name": "createProxy",
      "outputs": [
        {
          "internalType": "address",
          "name": "",
          "type": "address"
        }
      ],
      "stateMutability": "nonpayable",
      "type": "function"
    },
    {
      "inputs": [],
      "name": "logic",
      "outputs": [
        {
          "internalType": "address",
          "name": "",
          "type": "address"
        }
      ],
      "stateMutability": "view",
      "type": "function"
    },
    {
      "inputs": [
        {
          "internalType": "address",
          "name": "",
          "type": "address"
        }
      ],
      "name": "nbProxiesPerUser",
      "outputs": [
        {
          "internalType": "uint256",
          "name": "",
          "type": "uint256"
        }
      ],
      "stateMutability": "view",
      "type": "function"
    },
    {
      "inputs": [
        {
          "internalType": "uint256",
          "name": "",
          "type": "uint256"
        }
      ],
      "name": "proxiesList",
      "outputs": [
        {
          "internalType": "address",
          "name": "",
          "type": "address"
        }
      ],
      "stateMutability": "view",
      "type": "function"
    }
  ],
  "bytecode": "0x60a060405234801561001057600080fd5b5060405161001d90610072565b604051809103906000f080158015610039573d6000803e3d6000fd5b5073ffffffffffffffffffffffffffffffffffffffff1660808173ffffffffffffffffffffffffffffffffffffffff168152505061007f565b6120c080611bc183390190565b608051611b206100a16000396000818161020901526105240152611b206000f3fe60806040523480156200001157600080fd5b50600436106200005e5760003560e01c8063404addee1462000063578063878dd62b1462000099578063adec742d14620000cf578063c55e8db11462000105578063d7dfa0dd146200013b575b600080fd5b6200008160048036038101906200007b9190620006d1565b6200015d565b60405162000090919062000729565b60405180910390f35b620000b76004803603810190620000b1919062000746565b620001ac565b604051620000c6919062000789565b60405180910390f35b620000ed6004803603810190620000e79190620007a6565b620001c4565b604051620000fc919062000729565b60405180910390f35b6200012360048036038101906200011d91906200098b565b62000204565b60405162000132919062000729565b60405180910390f35b6200014562000522565b60405162000154919062000729565b60405180910390f35b600060205281600052604060002081815481106200017a57600080fd5b906000526020600020016000915091509054906101000a900473ffffffffffffffffffffffffffffffffffffffff1681565b60016020528060005260406000206000915090505481565b60028181548110620001d557600080fd5b906000526020600020016000915054906101000a900473ffffffffffffffffffffffffffffffffffffffff1681565b6000807f0000000000000000000000000000000000000000000000000000000000000000632bbdea4e60e01b85856040516024016200024592919062000ad0565b604051602081830303815290604052907bffffffffffffffffffffffffffffffffffffffffffffffffffffffff19166020820180517bffffffffffffffffffffffffffffffffffffffffffffffffffffffff8381831617835250505050604051620002b0906200060f565b620002bd92919062000b97565b604051809103906000f080158015620002da573d6000803e3d6000fd5b5090506002819080600181540180825580915050600190039060005260206000200160009091909190916101000a81548173ffffffffffffffffffffffffffffffffffffffff021916908373ffffffffffffffffffffffffffffffffffffffff16021790555060005b8451811015620004945760008086838151811062000366576200036562000bcb565b5b602002602001015173ffffffffffffffffffffffffffffffffffffffff1673ffffffffffffffffffffffffffffffffffffffff168152602001908152602001600020829080600181540180825580915050600190039060005260206000200160009091909190916101000a81548173ffffffffffffffffffffffffffffffffffffffff021916908373ffffffffffffffffffffffffffffffffffffffff160217905550600180600087848151811062000424576200042362000bcb565b5b602002602001015173ffffffffffffffffffffffffffffffffffffffff1673ffffffffffffffffffffffffffffffffffffffff168152602001908152602001600020600082825462000477919062000c29565b9250508190555080806200048b9062000c86565b91505062000343565b50620004d66040518060400160405280601181526020017f616464726573732870726f787929203a200000000000000000000000000000008152508262000546565b8073ffffffffffffffffffffffffffffffffffffffff167efffc2da0b561cae30d9826d37709e9421c4725faebc226cbbb7ef5fc5e734960405160405180910390a28091505092915050565b7f000000000000000000000000000000000000000000000000000000000000000081565b620005e282826040516024016200055f92919062000d30565b6040516020818303038152906040527f319af333000000000000000000000000000000000000000000000000000000007bffffffffffffffffffffffffffffffffffffffffffffffffffffffff19166020820180517bffffffffffffffffffffffffffffffffffffffffffffffffffffffff8381831617835250505050620005e6565b5050565b60008151905060006a636f6e736f6c652e6c6f679050602083016000808483855afa5050505050565b610d868062000d6583390190565b6000604051905090565b600080fd5b600080fd5b600073ffffffffffffffffffffffffffffffffffffffff82169050919050565b60006200065e8262000631565b9050919050565b620006708162000651565b81146200067c57600080fd5b50565b600081359050620006908162000665565b92915050565b6000819050919050565b620006ab8162000696565b8114620006b757600080fd5b50565b600081359050620006cb81620006a0565b92915050565b60008060408385031215620006eb57620006ea62000627565b5b6000620006fb858286016200067f565b92505060206200070e85828601620006ba565b9150509250929050565b620007238162000651565b82525050565b600060208201905062000740600083018462000718565b92915050565b6000602082840312156200075f576200075e62000627565b5b60006200076f848285016200067f565b91505092915050565b620007838162000696565b82525050565b6000602082019050620007a0600083018462000778565b92915050565b600060208284031215620007bf57620007be62000627565b5b6000620007cf84828501620006ba565b91505092915050565b600080fd5b6000601f19601f8301169050919050565b7f4e487b7100000000000000000000000000000000000000000000000000000000600052604160045260246000fd5b6200082882620007dd565b810181811067ffffffffffffffff821117156200084a5762000849620007ee565b5b80604052505050565b60006200085f6200061d565b90506200086d82826200081d565b919050565b600067ffffffffffffffff82111562000890576200088f620007ee565b5b602082029050602081019050919050565b600080fd5b6000620008bd620008b78462000872565b62000853565b90508083825260208201905060208402830185811115620008e357620008e2620008a1565b5b835b81811015620009105780620008fb88826200067f565b845260208401935050602081019050620008e5565b5050509392505050565b600082601f830112620009325762000931620007d8565b5b813562000944848260208601620008a6565b91505092915050565b600060ff82169050919050565b62000965816200094d565b81146200097157600080fd5b50565b60008135905062000985816200095a565b92915050565b60008060408385031215620009a557620009a462000627565b5b600083013567ffffffffffffffff811115620009c657620009c56200062c565b5b620009d4858286016200091a565b9250506020620009e78582860162000974565b9150509250929050565b600081519050919050565b600082825260208201905092915050565b6000819050602082019050919050565b62000a288162000651565b82525050565b600062000a3c838362000a1d565b60208301905092915050565b6000602082019050919050565b600062000a6282620009f1565b62000a6e8185620009fc565b935062000a7b8362000a0d565b8060005b8381101562000ab257815162000a96888262000a2e565b975062000aa38362000a48565b92505060018101905062000a7f565b5085935050505092915050565b62000aca816200094d565b82525050565b6000604082019050818103600083015262000aec818562000a55565b905062000afd602083018462000abf565b9392505050565b600081519050919050565b600082825260208201905092915050565b60005b8381101562000b4057808201518184015260208101905062000b23565b8381111562000b50576000848401525b50505050565b600062000b638262000b04565b62000b6f818562000b0f565b935062000b8181856020860162000b20565b62000b8c81620007dd565b840191505092915050565b600060408201905062000bae600083018562000718565b818103602083015262000bc2818462000b56565b90509392505050565b7f4e487b7100000000000000000000000000000000000000000000000000000000600052603260045260246000fd5b7f4e487b7100000000000000000000000000000000000000000000000000000000600052601160045260246000fd5b600062000c368262000696565b915062000c438362000696565b9250827fffffffffffffffffffffffffffffffffffffffffffffffffffffffffffffffff0382111562000c7b5762000c7a62000bfa565b5b828201905092915050565b600062000c938262000696565b91507fffffffffffffffffffffffffffffffffffffffffffffffffffffffffffffffff820362000cc85762000cc762000bfa565b5b600182019050919050565b600081519050919050565b600082825260208201905092915050565b600062000cfc8262000cd3565b62000d08818562000cde565b935062000d1a81856020860162000b20565b62000d2581620007dd565b840191505092915050565b6000604082019050818103600083015262000d4c818562000cef565b905062000d5d602083018462000718565b939250505056fe608060405260405162000d8638038062000d868339818101604052810190620000299190620005d4565b60017f360894a13ba1a3210667c828492db98dca3e2076cc3735a920a3ca505d382bbd60001c6200005b919062000673565b60001b7f360894a13ba1a3210667c828492db98dca3e2076cc3735a920a3ca505d382bbc60001b14620000935762000092620006ae565b5b620000a782826000620000af60201b60201c565b5050620008f4565b620000c083620000f260201b60201c565b600082511180620000ce5750805b15620000ed57620000eb83836200014960201b620000371760201c565b505b505050565b62000103816200017f60201b60201c565b8073ffffffffffffffffffffffffffffffffffffffff167fbc7cd75a20ee27fd9adebab32041f755214dbc6bffa90cc0225b39da2e5c2d3b60405160405180910390a250565b606062000177838360405180606001604052806027815260200162000d5f602791396200025560201b60201c565b905092915050565b62000195816200033960201b620000641760201c565b620001d7576040517f08c379a0000000000000000000000000000000000000000000000000000000008152600401620001ce9062000764565b60405180910390fd5b80620002117f360894a13ba1a3210667c828492db98dca3e2076cc3735a920a3ca505d382bbc60001b6200035c60201b620000871760201c565b60000160006101000a81548173ffffffffffffffffffffffffffffffffffffffff021916908373ffffffffffffffffffffffffffffffffffffffff16021790555050565b606062000268846200033960201b60201c565b620002aa576040517f08c379a0000000000000000000000000000000000000000000000000000000008152600401620002a190620007fc565b60405180910390fd5b6000808573ffffffffffffffffffffffffffffffffffffffff1685604051620002d491906200086b565b600060405180830381855af49150503d806000811462000311576040519150601f19603f3d011682016040523d82523d6000602084013e62000316565b606091505b50915091506200032e8282866200036660201b60201c565b925050509392505050565b6000808273ffffffffffffffffffffffffffffffffffffffff163b119050919050565b6000819050919050565b606083156200037857829050620003cb565b6000835111156200038c5782518084602001fd5b816040517f08c379a0000000000000000000000000000000000000000000000000000000008152600401620003c29190620008d0565b60405180910390fd5b9392505050565b6000604051905090565b600080fd5b600080fd5b600073ffffffffffffffffffffffffffffffffffffffff82169050919050565b60006200041382620003e6565b9050919050565b620004258162000406565b81146200043157600080fd5b50565b60008151905062000445816200041a565b92915050565b600080fd5b600080fd5b6000601f19601f8301169050919050565b7f4e487b7100000000000000000000000000000000000000000000000000000000600052604160045260246000fd5b620004a08262000455565b810181811067ffffffffffffffff82111715620004c257620004c162000466565b5b80604052505050565b6000620004d7620003d2565b9050620004e5828262000495565b919050565b600067ffffffffffffffff82111562000508576200050762000466565b5b620005138262000455565b9050602081019050919050565b60005b838110156200054057808201518184015260208101905062000523565b8381111562000550576000848401525b50505050565b60006200056d6200056784620004ea565b620004cb565b9050828152602081018484840111156200058c576200058b62000450565b5b6200059984828562000520565b509392505050565b600082601f830112620005b957620005b86200044b565b5b8151620005cb84826020860162000556565b91505092915050565b60008060408385031215620005ee57620005ed620003dc565b5b6000620005fe8582860162000434565b925050602083015167ffffffffffffffff811115620006225762000621620003e1565b5b6200063085828601620005a1565b9150509250929050565b6000819050919050565b7f4e487b7100000000000000000000000000000000000000000000000000000000600052601160045260246000fd5b600062000680826200063a565b91506200068d836200063a565b925082821015620006a357620006a262000644565b5b828203905092915050565b7f4e487b7100000000000000000000000000000000000000000000000000000000600052600160045260246000fd5b600082825260208201905092915050565b7f455243313936373a206e657720696d706c656d656e746174696f6e206973206e60008201527f6f74206120636f6e747261637400000000000000000000000000000000000000602082015250565b60006200074c602d83620006dd565b91506200075982620006ee565b604082019050919050565b600060208201905081810360008301526200077f816200073d565b9050919050565b7f416464726573733a2064656c65676174652063616c6c20746f206e6f6e2d636f60008201527f6e74726163740000000000000000000000000000000000000000000000000000602082015250565b6000620007e4602683620006dd565b9150620007f18262000786565b604082019050919050565b600060208201905081810360008301526200081781620007d5565b9050919050565b600081519050919050565b600081905092915050565b600062000841826200081e565b6200084d818562000829565b93506200085f81856020860162000520565b80840191505092915050565b600062000879828462000834565b915081905092915050565b600081519050919050565b60006200089c8262000884565b620008a88185620006dd565b9350620008ba81856020860162000520565b620008c58162000455565b840191505092915050565b60006020820190508181036000830152620008ec81846200088f565b905092915050565b61045b80620009046000396000f3fe6080604052366100135761001161001d565b005b61001b61001d565b005b610025610091565b610035610030610093565b6100a2565b565b606061005c83836040518060600160405280602781526020016103ff602791396100c8565b905092915050565b6000808273ffffffffffffffffffffffffffffffffffffffff163b119050919050565b6000819050919050565b565b600061009d610195565b905090565b3660008037600080366000845af43d6000803e80600081146100c3573d6000f35b3d6000fd5b60606100d384610064565b610112576040517f08c379a0000000000000000000000000000000000000000000000000000000008152600401610109906102d6565b60405180910390fd5b6000808573ffffffffffffffffffffffffffffffffffffffff168560405161013a9190610370565b600060405180830381855af49150503d8060008114610175576040519150601f19603f3d011682016040523d82523d6000602084013e61017a565b606091505b509150915061018a8282866101ec565b925050509392505050565b60006101c37f360894a13ba1a3210667c828492db98dca3e2076cc3735a920a3ca505d382bbc60001b610087565b60000160009054906101000a900473ffffffffffffffffffffffffffffffffffffffff16905090565b606083156101fc5782905061024c565b60008351111561020f5782518084602001fd5b816040517f08c379a000000000000000000000000000000000000000000000000000000000815260040161024391906103dc565b60405180910390fd5b9392505050565b600082825260208201905092915050565b7f416464726573733a2064656c65676174652063616c6c20746f206e6f6e2d636f60008201527f6e74726163740000000000000000000000000000000000000000000000000000602082015250565b60006102c0602683610253565b91506102cb82610264565b604082019050919050565b600060208201905081810360008301526102ef816102b3565b9050919050565b600081519050919050565b600081905092915050565b60005b8381101561032a57808201518184015260208101905061030f565b83811115610339576000848401525b50505050565b600061034a826102f6565b6103548185610301565b935061036481856020860161030c565b80840191505092915050565b600061037c828461033f565b915081905092915050565b600081519050919050565b6000601f19601f8301169050919050565b60006103ae82610387565b6103b88185610253565b93506103c881856020860161030c565b6103d181610392565b840191505092915050565b600060208201905081810360008301526103f681846103a3565b90509291505056fe416464726573733a206c6f772d6c6576656c2064656c65676174652063616c6c206661696c6564a2646970667358221220e7ad0133b9d7b8ba046931d6e493290054d3bb31bdb06986a7c5cff55b817b7c64736f6c634300080d0033416464726573733a206c6f772d6c6576656c2064656c65676174652063616c6c206661696c6564a26469706673582212208a469e3fabf8c4cd6f9d971ea42d26dc930ab6ce1365bdb52364fb5c52d6d81464736f6c634300080d003360a06040523073ffffffffffffffffffffffffffffffffffffffff1660809073ffffffffffffffffffffffffffffffffffffffff168152503480156200004457600080fd5b50600060019054906101000a900460ff166200006f5760008054906101000a900460ff161562000080565b6200007f6200013c60201b60201c565b5b620000c2576040517f08c379a0000000000000000000000000000000000000000000000000000000008152600401620000b99062000204565b60405180910390fd5b60008060019054906101000a900460ff16159050801562000113576001600060016101000a81548160ff02191690831515021790555060016000806101000a81548160ff0219169083151502179055505b8015620001355760008060016101000a81548160ff0219169083151502179055505b5062000226565b600062000154306200015a60201b620009af1760201c565b15905090565b6000808273ffffffffffffffffffffffffffffffffffffffff163b119050919050565b600082825260208201905092915050565b7f496e697469616c697a61626c653a20636f6e747261637420697320616c72656160008201527f647920696e697469616c697a6564000000000000000000000000000000000000602082015250565b6000620001ec602e836200017d565b9150620001f9826200018e565b604082019050919050565b600060208201905081810360008301526200021f81620001dd565b9050919050565b608051611e626200025e60003960008181610452015281816104e0015281816105da0152818161066801526107180152611e626000f3fe6080604052600436106100915760003560e01c806352d1902d1161005957806352d1902d1461016c578063715018a6146101975780638da5cb5b146101ae578063f2fde38b146101d9578063ffa1ad741461020257610091565b8063025e7c27146100965780632b9a9f50146100d35780632bbdea4e146100fe5780633659cfe6146101275780634f1ef28614610150575b600080fd5b3480156100a257600080fd5b506100bd60048036038101906100b8919061119f565b61022d565b6040516100ca919061120d565b60405180910390f35b3480156100df57600080fd5b506100e861026c565b6040516100f59190611244565b60405180910390f35b34801561010a57600080fd5b5061012560048036038101906101209190611410565b61027f565b005b34801561013357600080fd5b5061014e6004803603810190610149919061146c565b610450565b005b61016a6004803603810190610165919061154e565b6105d8565b005b34801561017857600080fd5b50610181610714565b60405161018e91906115c3565b60405180910390f35b3480156101a357600080fd5b506101ac6107cd565b005b3480156101ba57600080fd5b506101c3610855565b6040516101d0919061120d565b60405180910390f35b3480156101e557600080fd5b5061020060048036038101906101fb919061146c565b61087f565b005b34801561020e57600080fd5b50610217610976565b6040516102249190611666565b60405180910390f35b60ca818154811061023d57600080fd5b906000526020600020016000915054906101000a900473ffffffffffffffffffffffffffffffffffffffff1681565b60c960009054906101000a900460ff1681565b600060019054906101000a900460ff166102a75760008054906101000a900460ff16156102b0565b6102af6109d2565b5b6102ef576040517f08c379a00000000000000000000000000000000000000000000000000000000081526004016102e6906116fa565b60405180910390fd5b60008060019054906101000a900460ff16159050801561033f576001600060016101000a81548160ff02191690831515021790555060016000806101000a81548160ff0219169083151502179055505b6103476109e3565b61034f610a3c565b8160c960006101000a81548160ff021916908360ff16021790555060005b83518110156104295761039984828151811061038c5761038b61171a565b5b6020026020010151610a8d565b60ca8482815181106103ae576103ad61171a565b5b60200260200101519080600181540180825580915050600190039060005260206000200160009091909190916101000a81548173ffffffffffffffffffffffffffffffffffffffff021916908373ffffffffffffffffffffffffffffffffffffffff160217905550808061042190611778565b91505061036d565b50801561044b5760008060016101000a81548160ff0219169083151502179055505b505050565b7f000000000000000000000000000000000000000000000000000000000000000073ffffffffffffffffffffffffffffffffffffffff163073ffffffffffffffffffffffffffffffffffffffff16036104de576040517f08c379a00000000000000000000000000000000000000000000000000000000081526004016104d590611832565b60405180910390fd5b7f000000000000000000000000000000000000000000000000000000000000000073ffffffffffffffffffffffffffffffffffffffff1661051d610b26565b73ffffffffffffffffffffffffffffffffffffffff1614610573576040517f08c379a000000000000000000000000000000000000000000000000000000000815260040161056a906118c4565b60405180910390fd5b61057c81610b7d565b6105d581600067ffffffffffffffff81111561059b5761059a611275565b5b6040519080825280601f01601f1916602001820160405280156105cd5781602001600182028036833780820191505090505b506000610bfc565b50565b7f000000000000000000000000000000000000000000000000000000000000000073ffffffffffffffffffffffffffffffffffffffff163073ffffffffffffffffffffffffffffffffffffffff1603610666576040517f08c379a000000000000000000000000000000000000000000000000000000000815260040161065d90611832565b60405180910390fd5b7f000000000000000000000000000000000000000000000000000000000000000073ffffffffffffffffffffffffffffffffffffffff166106a5610b26565b73ffffffffffffffffffffffffffffffffffffffff16146106fb576040517f08c379a00000000000000000000000000000000000000000000000000000000081526004016106f2906118c4565b60405180910390fd5b61070482610b7d565b61071082826001610bfc565b5050565b60007f000000000000000000000000000000000000000000000000000000000000000073ffffffffffffffffffffffffffffffffffffffff163073ffffffffffffffffffffffffffffffffffffffff16146107a4576040517f08c379a000000000000000000000000000000000000000000000000000000000815260040161079b90611956565b60405180910390fd5b7f360894a13ba1a3210667c828492db98dca3e2076cc3735a920a3ca505d382bbc60001b905090565b6107d5610d6a565b73ffffffffffffffffffffffffffffffffffffffff166107f3610855565b73ffffffffffffffffffffffffffffffffffffffff1614610849576040517f08c379a0000000000000000000000000000000000000000000000000000000008152600401610840906119c2565b60405180910390fd5b6108536000610d72565b565b6000609760009054906101000a900473ffffffffffffffffffffffffffffffffffffffff16905090565b610887610d6a565b73ffffffffffffffffffffffffffffffffffffffff166108a5610855565b73ffffffffffffffffffffffffffffffffffffffff16146108fb576040517f08c379a00000000000000000000000000000000000000000000000000000000081526004016108f2906119c2565b60405180910390fd5b600073ffffffffffffffffffffffffffffffffffffffff168173ffffffffffffffffffffffffffffffffffffffff160361096a576040517f08c379a000000000000000000000000000000000000000000000000000000000815260040161096190611a54565b60405180910390fd5b61097381610d72565b50565b6040518060400160405280600581526020017f302e302e3100000000000000000000000000000000000000000000000000000081525081565b6000808273ffffffffffffffffffffffffffffffffffffffff163b119050919050565b60006109dd306109af565b15905090565b600060019054906101000a900460ff16610a32576040517f08c379a0000000000000000000000000000000000000000000000000000000008152600401610a2990611ae6565b60405180910390fd5b610a3a610e38565b565b600060019054906101000a900460ff16610a8b576040517f08c379a0000000000000000000000000000000000000000000000000000000008152600401610a8290611ae6565b60405180910390fd5b565b610b2381604051602401610aa1919061120d565b6040516020818303038152906040527f2c2ecbc2000000000000000000000000000000000000000000000000000000007bffffffffffffffffffffffffffffffffffffffffffffffffffffffff19166020820180517bffffffffffffffffffffffffffffffffffffffffffffffffffffffff8381831617835250505050610e99565b50565b6000610b547f360894a13ba1a3210667c828492db98dca3e2076cc3735a920a3ca505d382bbc60001b610ec2565b60000160009054906101000a900473ffffffffffffffffffffffffffffffffffffffff16905090565b610b85610d6a565b73ffffffffffffffffffffffffffffffffffffffff16610ba3610855565b73ffffffffffffffffffffffffffffffffffffffff1614610bf9576040517f08c379a0000000000000000000000000000000000000000000000000000000008152600401610bf0906119c2565b60405180910390fd5b50565b610c287f4910fdfa16fed3260ed0e7147f7cc6da11a60208b5b9406d12a635614ffd914360001b610ecc565b60000160009054906101000a900460ff1615610c4c57610c4783610ed6565b610d65565b8273ffffffffffffffffffffffffffffffffffffffff166352d1902d6040518163ffffffff1660e01b8152600401602060405180830381865afa925050508015610cb457506040513d601f19601f82011682018060405250810190610cb19190611b32565b60015b610cf3576040517f08c379a0000000000000000000000000000000000000000000000000000000008152600401610cea90611bd1565b60405180910390fd5b7f360894a13ba1a3210667c828492db98dca3e2076cc3735a920a3ca505d382bbc60001b8114610d58576040517f08c379a0000000000000000000000000000000000000000000000000000000008152600401610d4f90611c63565b60405180910390fd5b50610d64838383610f8f565b5b505050565b600033905090565b6000609760009054906101000a900473ffffffffffffffffffffffffffffffffffffffff16905081609760006101000a81548173ffffffffffffffffffffffffffffffffffffffff021916908373ffffffffffffffffffffffffffffffffffffffff1602179055508173ffffffffffffffffffffffffffffffffffffffff168173ffffffffffffffffffffffffffffffffffffffff167f8be0079c531659141344cd1fd0a4f28419497f9722a3daafe3b4186f6b6457e060405160405180910390a35050565b600060019054906101000a900460ff16610e87576040517f08c379a0000000000000000000000000000000000000000000000000000000008152600401610e7e90611ae6565b60405180910390fd5b610e97610e92610d6a565b610d72565b565b60008151905060006a636f6e736f6c652e6c6f679050602083016000808483855afa5050505050565b6000819050919050565b6000819050919050565b610edf816109af565b610f1e576040517f08c379a0000000000000000000000000000000000000000000000000000000008152600401610f1590611cf5565b60405180910390fd5b80610f4b7f360894a13ba1a3210667c828492db98dca3e2076cc3735a920a3ca505d382bbc60001b610ec2565b60000160006101000a81548173ffffffffffffffffffffffffffffffffffffffff021916908373ffffffffffffffffffffffffffffffffffffffff16021790555050565b610f9883610fbb565b600082511180610fa55750805b15610fb657610fb4838361100a565b505b505050565b610fc481610ed6565b8073ffffffffffffffffffffffffffffffffffffffff167fbc7cd75a20ee27fd9adebab32041f755214dbc6bffa90cc0225b39da2e5c2d3b60405160405180910390a250565b6060611015836109af565b611054576040517f08c379a000000000000000000000000000000000000000000000000000000000815260040161104b90611d87565b60405180910390fd5b6000808473ffffffffffffffffffffffffffffffffffffffff168460405161107c9190611dee565b600060405180830381855af49150503d80600081146110b7576040519150601f19603f3d011682016040523d82523d6000602084013e6110bc565b606091505b50915091506110e48282604051806060016040528060278152602001611e06602791396110ee565b9250505092915050565b606083156110fe5782905061114e565b6000835111156111115782518084602001fd5b816040517f08c379a00000000000000000000000000000000000000000000000000000000081526004016111459190611666565b60405180910390fd5b9392505050565b6000604051905090565b600080fd5b600080fd5b6000819050919050565b61117c81611169565b811461118757600080fd5b50565b60008135905061119981611173565b92915050565b6000602082840312156111b5576111b461115f565b5b60006111c38482850161118a565b91505092915050565b600073ffffffffffffffffffffffffffffffffffffffff82169050919050565b60006111f7826111cc565b9050919050565b611207816111ec565b82525050565b600060208201905061122260008301846111fe565b92915050565b600060ff82169050919050565b61123e81611228565b82525050565b60006020820190506112596000830184611235565b92915050565b600080fd5b6000601f19601f8301169050919050565b7f4e487b7100000000000000000000000000000000000000000000000000000000600052604160045260246000fd5b6112ad82611264565b810181811067ffffffffffffffff821117156112cc576112cb611275565b5b80604052505050565b60006112df611155565b90506112eb82826112a4565b919050565b600067ffffffffffffffff82111561130b5761130a611275565b5b602082029050602081019050919050565b600080fd5b61132a816111ec565b811461133557600080fd5b50565b60008135905061134781611321565b92915050565b600061136061135b846112f0565b6112d5565b905080838252602082019050602084028301858111156113835761138261131c565b5b835b818110156113ac57806113988882611338565b845260208401935050602081019050611385565b5050509392505050565b600082601f8301126113cb576113ca61125f565b5b81356113db84826020860161134d565b91505092915050565b6113ed81611228565b81146113f857600080fd5b50565b60008135905061140a816113e4565b92915050565b600080604083850312156114275761142661115f565b5b600083013567ffffffffffffffff81111561144557611444611164565b5b611451858286016113b6565b9250506020611462858286016113fb565b9150509250929050565b6000602082840312156114825761148161115f565b5b600061149084828501611338565b91505092915050565b600080fd5b600067ffffffffffffffff8211156114b9576114b8611275565b5b6114c282611264565b9050602081019050919050565b82818337600083830152505050565b60006114f16114ec8461149e565b6112d5565b90508281526020810184848401111561150d5761150c611499565b5b6115188482856114cf565b509392505050565b600082601f8301126115355761153461125f565b5b81356115458482602086016114de565b91505092915050565b600080604083850312156115655761156461115f565b5b600061157385828601611338565b925050602083013567ffffffffffffffff81111561159457611593611164565b5b6115a085828601611520565b9150509250929050565b6000819050919050565b6115bd816115aa565b82525050565b60006020820190506115d860008301846115b4565b92915050565b600081519050919050565b600082825260208201905092915050565b60005b838110156116185780820151818401526020810190506115fd565b83811115611627576000848401525b50505050565b6000611638826115de565b61164281856115e9565b93506116528185602086016115fa565b61165b81611264565b840191505092915050565b60006020820190508181036000830152611680818461162d565b905092915050565b7f496e697469616c697a61626c653a20636f6e747261637420697320616c72656160008201527f647920696e697469616c697a6564000000000000000000000000000000000000602082015250565b60006116e4602e836115e9565b91506116ef82611688565b604082019050919050565b60006020820190508181036000830152611713816116d7565b9050919050565b7f4e487b7100000000000000000000000000000000000000000000000000000000600052603260045260246000fd5b7f4e487b7100000000000000000000000000000000000000000000000000000000600052601160045260246000fd5b600061178382611169565b91507fffffffffffffffffffffffffffffffffffffffffffffffffffffffffffffffff82036117b5576117b4611749565b5b600182019050919050565b7f46756e6374696f6e206d7573742062652063616c6c6564207468726f7567682060008201527f64656c656761746563616c6c0000000000000000000000000000000000000000602082015250565b600061181c602c836115e9565b9150611827826117c0565b604082019050919050565b6000602082019050818103600083015261184b8161180f565b9050919050565b7f46756e6374696f6e206d7573742062652063616c6c6564207468726f7567682060008201527f6163746976652070726f78790000000000000000000000000000000000000000602082015250565b60006118ae602c836115e9565b91506118b982611852565b604082019050919050565b600060208201905081810360008301526118dd816118a1565b9050919050565b7f555550535570677261646561626c653a206d757374206e6f742062652063616c60008201527f6c6564207468726f7567682064656c656761746563616c6c0000000000000000602082015250565b60006119406038836115e9565b915061194b826118e4565b604082019050919050565b6000602082019050818103600083015261196f81611933565b9050919050565b7f4f776e61626c653a2063616c6c6572206973206e6f7420746865206f776e6572600082015250565b60006119ac6020836115e9565b91506119b782611976565b602082019050919050565b600060208201905081810360008301526119db8161199f565b9050919050565b7f4f776e61626c653a206e6577206f776e657220697320746865207a65726f206160008201527f6464726573730000000000000000000000000000000000000000000000000000602082015250565b6000611a3e6026836115e9565b9150611a49826119e2565b604082019050919050565b60006020820190508181036000830152611a6d81611a31565b9050919050565b7f496e697469616c697a61626c653a20636f6e7472616374206973206e6f74206960008201527f6e697469616c697a696e67000000000000000000000000000000000000000000602082015250565b6000611ad0602b836115e9565b9150611adb82611a74565b604082019050919050565b60006020820190508181036000830152611aff81611ac3565b9050919050565b611b0f816115aa565b8114611b1a57600080fd5b50565b600081519050611b2c81611b06565b92915050565b600060208284031215611b4857611b4761115f565b5b6000611b5684828501611b1d565b91505092915050565b7f45524331393637557067726164653a206e657720696d706c656d656e7461746960008201527f6f6e206973206e6f742055555053000000000000000000000000000000000000602082015250565b6000611bbb602e836115e9565b9150611bc682611b5f565b604082019050919050565b60006020820190508181036000830152611bea81611bae565b9050919050565b7f45524331393637557067726164653a20756e737570706f727465642070726f7860008201527f6961626c65555549440000000000000000000000000000000000000000000000602082015250565b6000611c4d6029836115e9565b9150611c5882611bf1565b604082019050919050565b60006020820190508181036000830152611c7c81611c40565b9050919050565b7f455243313936373a206e657720696d706c656d656e746174696f6e206973206e60008201527f6f74206120636f6e747261637400000000000000000000000000000000000000602082015250565b6000611cdf602d836115e9565b9150611cea82611c83565b604082019050919050565b60006020820190508181036000830152611d0e81611cd2565b9050919050565b7f416464726573733a2064656c65676174652063616c6c20746f206e6f6e2d636f60008201527f6e74726163740000000000000000000000000000000000000000000000000000602082015250565b6000611d716026836115e9565b9150611d7c82611d15565b604082019050919050565b60006020820190508181036000830152611da081611d64565b9050919050565b600081519050919050565b600081905092915050565b6000611dc882611da7565b611dd28185611db2565b9350611de28185602086016115fa565b80840191505092915050565b6000611dfa8284611dbd565b91508190509291505056fe416464726573733a206c6f772d6c6576656c2064656c65676174652063616c6c206661696c6564a2646970667358221220532778a5eb2aa36ae9eccb37ac532e87c528dd39c71af1cef4346012434ef07b64736f6c634300080d0033",
  "linkReferences": {},
  "deployedLinkReferences": {}
}