{
  "_format": "hh-sol-artifact-1",
  "contractName": "Admin",
  "sourceName": "contracts/Admin.sol",
  "abi": [
    {
      "anonymous": false,
      "inputs": [
        {
          "indexed": true,
          "internalType": "address",
          "name": "previousOwner",
          "type": "address"
        },
        {
          "indexed": true,
          "internalType": "address",
          "name": "newOwner",
          "type": "address"
        }
      ],
      "name": "OwnershipTransferred",
      "type": "event"
    },
    {
      "anonymous": false,
      "inputs": [
        {
          "indexed": false,
          "internalType": "uint256",
          "name": "proposalId",
          "type": "uint256"
        }
      ],
      "name": "ProposalRegistered",
      "type": "event"
    },
    {
      "anonymous": false,
      "inputs": [
        {
          "indexed": false,
          "internalType": "address",
          "name": "voter",
          "type": "address"
        },
        {
          "indexed": false,
          "internalType": "uint256",
          "name": "proposalId",
          "type": "uint256"
        }
      ],
      "name": "Voted",
      "type": "event"
    },
    {
      "anonymous": false,
      "inputs": [
        {
          "indexed": false,
          "internalType": "address",
          "name": "voterAddress",
          "type": "address"
        }
      ],
      "name": "VoterRegistered",
      "type": "event"
    },
    {
      "anonymous": false,
      "inputs": [
        {
          "indexed": false,
          "internalType": "enum Common.WorkflowStatus",
          "name": "previousStatus",
          "type": "uint8"
        },
        {
          "indexed": false,
          "internalType": "enum Common.WorkflowStatus",
          "name": "newStatus",
          "type": "uint8"
        }
      ],
      "name": "WorkflowStatusChange",
      "type": "event"
    },
    {
      "inputs": [
        {
          "internalType": "address",
          "name": "_address",
          "type": "address"
        }
      ],
      "name": "addAddressWhitelist",
      "outputs": [],
      "stateMutability": "nonpayable",
      "type": "function"
    },
    {
      "inputs": [],
      "name": "defaultWorkflowStatus",
      "outputs": [
        {
          "internalType": "enum Common.WorkflowStatus",
          "name": "",
          "type": "uint8"
        }
      ],
      "stateMutability": "view",
      "type": "function"
    },
    {
      "inputs": [
        {
          "internalType": "address",
          "name": "_address",
          "type": "address"
        }
      ],
      "name": "isWhitelisted",
      "outputs": [
        {
          "components": [
            {
              "internalType": "bool",
              "name": "isRegistered",
              "type": "bool"
            },
            {
              "internalType": "bool",
              "name": "hasVoted",
              "type": "bool"
            },
            {
              "internalType": "uint256",
              "name": "votedProposalId",
              "type": "uint256"
            }
          ],
          "internalType": "struct Common.Voter",
          "name": "",
          "type": "tuple"
        }
      ],
      "stateMutability": "view",
      "type": "function"
    },
    {
      "inputs": [],
      "name": "owner",
      "outputs": [
        {
          "internalType": "address",
          "name": "",
          "type": "address"
        }
      ],
      "stateMutability": "view",
      "type": "function"
    },
    {
      "inputs": [
        {
          "internalType": "uint256",
          "name": "",
          "type": "uint256"
        }
      ],
      "name": "proposals",
      "outputs": [
        {
          "internalType": "string",
          "name": "description",
          "type": "string"
        },
        {
          "internalType": "uint256",
          "name": "voteCount",
          "type": "uint256"
        }
      ],
      "stateMutability": "view",
      "type": "function"
    },
    {
      "inputs": [],
      "name": "renounceOwnership",
      "outputs": [],
      "stateMutability": "nonpayable",
      "type": "function"
    },
    {
      "inputs": [],
      "name": "startsRecordingProposals",
      "outputs": [],
      "stateMutability": "nonpayable",
      "type": "function"
    },
    {
      "inputs": [],
      "name": "startsVotingSession",
      "outputs": [],
      "stateMutability": "nonpayable",
      "type": "function"
    },
    {
      "inputs": [],
      "name": "stopRecordingProposals",
      "outputs": [],
      "stateMutability": "nonpayable",
      "type": "function"
    },
    {
      "inputs": [],
      "name": "stopVotingSession",
      "outputs": [],
      "stateMutability": "nonpayable",
      "type": "function"
    },
    {
      "inputs": [
        {
          "internalType": "address",
          "name": "newOwner",
          "type": "address"
        }
      ],
      "name": "transferOwnership",
      "outputs": [],
      "stateMutability": "nonpayable",
      "type": "function"
    },
    {
      "inputs": [],
      "name": "voteTallying",
      "outputs": [],
      "stateMutability": "nonpayable",
      "type": "function"
    }
  ],
  "bytecode": "0x60806040526000600460006101000a81548160ff0219169083600581111561002a57610029610129565b5b021790555034801561003b57600080fd5b5061005861004d61005d60201b60201c565b61006560201b60201c565b610158565b600033905090565b60008060009054906101000a900473ffffffffffffffffffffffffffffffffffffffff169050816000806101000a81548173ffffffffffffffffffffffffffffffffffffffff021916908373ffffffffffffffffffffffffffffffffffffffff1602179055508173ffffffffffffffffffffffffffffffffffffffff168173ffffffffffffffffffffffffffffffffffffffff167f8be0079c531659141344cd1fd0a4f28419497f9722a3daafe3b4186f6b6457e060405160405180910390a35050565b7f4e487b7100000000000000000000000000000000000000000000000000000000600052602160045260246000fd5b611743806101676000396000f3fe608060405234801561001057600080fd5b50600436106100b45760003560e01c8063715018a611610071578063715018a6146101425780638da5cb5b1461014c5780639d7050011461016a578063c21bc90414610186578063cc1c9d2a146101a4578063f2fde38b146101ae576100b4565b8063013cf08b146100b957806317a0ad8e146100ea57806332bb8779146100f45780633af32abf146100fe5780633ff7a2611461012e5780635dfd082b14610138575b600080fd5b6100d360048036038101906100ce91906110bf565b6101ca565b6040516100e1929190611194565b60405180910390f35b6100f2610286565b005b6100fc61041c565b005b61011860048036038101906101139190611222565b610596565b60405161012591906112bb565b60405180910390f35b6101366106ab565b005b610140610825565b005b61014a61099f565b005b610154610a27565b60405161016191906112e5565b60405180910390f35b610184600480360381019061017f9190611222565b610a50565b005b61018e610c8c565b60405161019b9190611377565b60405180910390f35b6101ac610c9f565b005b6101c860048036038101906101c39190611222565b610e9c565b005b600281815481106101da57600080fd5b90600052602060002090600202016000915090508060000180546101fd906113c1565b80601f0160208091040260200160405190810160405280929190818152602001828054610229906113c1565b80156102765780601f1061024b57610100808354040283529160200191610276565b820191906000526020600020905b81548152906001019060200180831161025957829003601f168201915b5050505050908060010154905082565b61028e610f93565b73ffffffffffffffffffffffffffffffffffffffff166102ac610a27565b73ffffffffffffffffffffffffffffffffffffffff1614610302576040517f08c379a00000000000000000000000000000000000000000000000000000000081526004016102f99061143e565b60405180910390fd5b60036040518060400160405280601c81526020017f5468657265206973206e6f20766f746520696e2070726f67726573730000000081525081600581111561034d5761034c611300565b5b600460009054906101000a900460ff16600581111561036f5761036e611300565b5b1481906103b2576040517f08c379a00000000000000000000000000000000000000000000000000000000081526004016103a9919061145e565b60405180910390fd5b5060048060006101000a81548160ff021916908360058111156103d8576103d7611300565b5b02179055507f0a97a4ee45751e2abf3e4fc8946939630b11b371ea8ae39ccdc3056e98f5cc3f60036004604051610410929190611480565b60405180910390a15050565b610424610f93565b73ffffffffffffffffffffffffffffffffffffffff16610442610a27565b73ffffffffffffffffffffffffffffffffffffffff1614610498576040517f08c379a000000000000000000000000000000000000000000000000000000000815260040161048f9061143e565b60405180910390fd5b60016040518060600160405280603781526020016116a9603791398160058111156104c6576104c5611300565b5b600460009054906101000a900460ff1660058111156104e8576104e7611300565b5b14819061052b576040517f08c379a0000000000000000000000000000000000000000000000000000000008152600401610522919061145e565b60405180910390fd5b506002600460006101000a81548160ff0219169083600581111561055257610551611300565b5b02179055507f0a97a4ee45751e2abf3e4fc8946939630b11b371ea8ae39ccdc3056e98f5cc3f6001600260405161058a929190611480565b60405180910390a15050565b61059e61105f565b6105a6610f93565b73ffffffffffffffffffffffffffffffffffffffff166105c4610a27565b73ffffffffffffffffffffffffffffffffffffffff161461061a576040517f08c379a00000000000000000000000000000000000000000000000000000000081526004016106119061143e565b60405180910390fd5b600160008373ffffffffffffffffffffffffffffffffffffffff1673ffffffffffffffffffffffffffffffffffffffff1681526020019081526020016000206040518060600160405290816000820160009054906101000a900460ff161515151581526020016000820160019054906101000a900460ff161515151581526020016001820154815250509050919050565b6106b3610f93565b73ffffffffffffffffffffffffffffffffffffffff166106d1610a27565b73ffffffffffffffffffffffffffffffffffffffff1614610727576040517f08c379a000000000000000000000000000000000000000000000000000000000815260040161071e9061143e565b60405180910390fd5b600260405180606001604052806034815260200161164e6034913981600581111561075557610754611300565b5b600460009054906101000a900460ff16600581111561077757610776611300565b5b1481906107ba576040517f08c379a00000000000000000000000000000000000000000000000000000000081526004016107b1919061145e565b60405180910390fd5b506003600460006101000a81548160ff021916908360058111156107e1576107e0611300565b5b02179055507f0a97a4ee45751e2abf3e4fc8946939630b11b371ea8ae39ccdc3056e98f5cc3f60026003604051610819929190611480565b60405180910390a15050565b61082d610f93565b73ffffffffffffffffffffffffffffffffffffffff1661084b610a27565b73ffffffffffffffffffffffffffffffffffffffff16146108a1576040517f08c379a00000000000000000000000000000000000000000000000000000000081526004016108989061143e565b60405180910390fd5b60006040518060600160405280603781526020016116a9603791398160058111156108cf576108ce611300565b5b600460009054906101000a900460ff1660058111156108f1576108f0611300565b5b148190610934576040517f08c379a000000000000000000000000000000000000000000000000000000000815260040161092b919061145e565b60405180910390fd5b506001600460006101000a81548160ff0219169083600581111561095b5761095a611300565b5b02179055507f0a97a4ee45751e2abf3e4fc8946939630b11b371ea8ae39ccdc3056e98f5cc3f60006001604051610993929190611480565b60405180910390a15050565b6109a7610f93565b73ffffffffffffffffffffffffffffffffffffffff166109c5610a27565b73ffffffffffffffffffffffffffffffffffffffff1614610a1b576040517f08c379a0000000000000000000000000000000000000000000000000000000008152600401610a129061143e565b60405180910390fd5b610a256000610f9b565b565b60008060009054906101000a900473ffffffffffffffffffffffffffffffffffffffff16905090565b610a58610f93565b73ffffffffffffffffffffffffffffffffffffffff16610a76610a27565b73ffffffffffffffffffffffffffffffffffffffff1614610acc576040517f08c379a0000000000000000000000000000000000000000000000000000000008152600401610ac39061143e565b60405180910390fd5b60006040518060600160405280602e81526020016116e0602e9139816005811115610afa57610af9611300565b5b600460009054906101000a900460ff166005811115610b1c57610b1b611300565b5b148190610b5f576040517f08c379a0000000000000000000000000000000000000000000000000000000008152600401610b56919061145e565b60405180910390fd5b5060011515600160008573ffffffffffffffffffffffffffffffffffffffff1673ffffffffffffffffffffffffffffffffffffffff16815260200190815260200160002060000160009054906101000a900460ff16151503610bf6576040517f08c379a0000000000000000000000000000000000000000000000000000000008152600401610bed906114f5565b60405180910390fd5b60018060008573ffffffffffffffffffffffffffffffffffffffff1673ffffffffffffffffffffffffffffffffffffffff16815260200190815260200160002060000160006101000a81548160ff0219169083151502179055507fb6be2187d059cc2a55fe29e0e503b566e1e0f8c8780096e185429350acffd3dd83604051610c7f91906112e5565b60405180910390a1505050565b600460009054906101000a900460ff1681565b610ca7610f93565b73ffffffffffffffffffffffffffffffffffffffff16610cc5610a27565b73ffffffffffffffffffffffffffffffffffffffff1614610d1b576040517f08c379a0000000000000000000000000000000000000000000000000000000008152600401610d129061143e565b60405180910390fd5b600460405180606001604052806027815260200161168260279139816005811115610d4957610d48611300565b5b600460009054906101000a900460ff166005811115610d6b57610d6a611300565b5b148190610dae576040517f08c379a0000000000000000000000000000000000000000000000000000000008152600401610da5919061145e565b60405180910390fd5b506000805b600280549050811015610e30578160028281548110610dd557610dd4611515565b5b9060005260206000209060020201600101541115610e1d5760028181548110610e0157610e00611515565b5b9060005260206000209060020201600101549150806003819055505b8080610e2890611573565b915050610db3565b506005600460006101000a81548160ff02191690836005811115610e5757610e56611300565b5b02179055507f0a97a4ee45751e2abf3e4fc8946939630b11b371ea8ae39ccdc3056e98f5cc3f60046005604051610e8f929190611480565b60405180910390a1505050565b610ea4610f93565b73ffffffffffffffffffffffffffffffffffffffff16610ec2610a27565b73ffffffffffffffffffffffffffffffffffffffff1614610f18576040517f08c379a0000000000000000000000000000000000000000000000000000000008152600401610f0f9061143e565b60405180910390fd5b600073ffffffffffffffffffffffffffffffffffffffff168173ffffffffffffffffffffffffffffffffffffffff1603610f87576040517f08c379a0000000000000000000000000000000000000000000000000000000008152600401610f7e9061162d565b60405180910390fd5b610f9081610f9b565b50565b600033905090565b60008060009054906101000a900473ffffffffffffffffffffffffffffffffffffffff169050816000806101000a81548173ffffffffffffffffffffffffffffffffffffffff021916908373ffffffffffffffffffffffffffffffffffffffff1602179055508173ffffffffffffffffffffffffffffffffffffffff168173ffffffffffffffffffffffffffffffffffffffff167f8be0079c531659141344cd1fd0a4f28419497f9722a3daafe3b4186f6b6457e060405160405180910390a35050565b6040518060600160405280600015158152602001600015158152602001600081525090565b600080fd5b6000819050919050565b61109c81611089565b81146110a757600080fd5b50565b6000813590506110b981611093565b92915050565b6000602082840312156110d5576110d4611084565b5b60006110e3848285016110aa565b91505092915050565b600081519050919050565b600082825260208201905092915050565b60005b8381101561112657808201518184015260208101905061110b565b83811115611135576000848401525b50505050565b6000601f19601f8301169050919050565b6000611157826110ec565b61116181856110f7565b9350611171818560208601611108565b61117a8161113b565b840191505092915050565b61118e81611089565b82525050565b600060408201905081810360008301526111ae818561114c565b90506111bd6020830184611185565b9392505050565b600073ffffffffffffffffffffffffffffffffffffffff82169050919050565b60006111ef826111c4565b9050919050565b6111ff816111e4565b811461120a57600080fd5b50565b60008135905061121c816111f6565b92915050565b60006020828403121561123857611237611084565b5b60006112468482850161120d565b91505092915050565b60008115159050919050565b6112648161124f565b82525050565b61127381611089565b82525050565b60608201600082015161128f600085018261125b565b5060208201516112a2602085018261125b565b5060408201516112b5604085018261126a565b50505050565b60006060820190506112d06000830184611279565b92915050565b6112df816111e4565b82525050565b60006020820190506112fa60008301846112d6565b92915050565b7f4e487b7100000000000000000000000000000000000000000000000000000000600052602160045260246000fd5b600681106113405761133f611300565b5b50565b60008190506113518261132f565b919050565b600061136182611343565b9050919050565b61137181611356565b82525050565b600060208201905061138c6000830184611368565b92915050565b7f4e487b7100000000000000000000000000000000000000000000000000000000600052602260045260246000fd5b600060028204905060018216806113d957607f821691505b6020821081036113ec576113eb611392565b5b50919050565b7f4f776e61626c653a2063616c6c6572206973206e6f7420746865206f776e6572600082015250565b60006114286020836110f7565b9150611433826113f2565b602082019050919050565b600060208201905081810360008301526114578161141b565b9050919050565b60006020820190508181036000830152611478818461114c565b905092915050565b60006040820190506114956000830185611368565b6114a26020830184611368565b9392505050565b7f6164647265737320697320616c72656164792077686974656c69737465640000600082015250565b60006114df601e836110f7565b91506114ea826114a9565b602082019050919050565b6000602082019050818103600083015261150e816114d2565b9050919050565b7f4e487b7100000000000000000000000000000000000000000000000000000000600052603260045260246000fd5b7f4e487b7100000000000000000000000000000000000000000000000000000000600052601160045260246000fd5b600061157e82611089565b91507fffffffffffffffffffffffffffffffffffffffffffffffffffffffffffffffff82036115b0576115af611544565b5b600182019050919050565b7f4f776e61626c653a206e6577206f776e657220697320746865207a65726f206160008201527f6464726573730000000000000000000000000000000000000000000000000000602082015250565b60006116176026836110f7565b9150611622826115bb565b604082019050919050565b600060208201905081810360008301526116468161160a565b905091905056fe54686520766f74696e6720726567697374726174696f6e2073657373696f6e206973207374696c6c20696e2070726f677265737354686520766f74696e672073657373696f6e206973207374696c6c20696e2070726f6772657373546865726520617265206e6f2070726f706f73616c20726567697374726174696f6e2073657373696f6e7320696e2070726f6772657373546865207265636f7264696e672073657373696f6e206973206e6f206c6f6e67657220696e2070726f6772657373a26469706673582212202c1841cf928f3fcab1c8635d5d6e13531882c3b71378b6c3b358710fd843cae764736f6c634300080d0033",
  "linkReferences": {},
  "deployedLinkReferences": {}
}