{
  "_format": "hh-sol-artifact-1",
  "contractName": "Voting",
  "sourceName": "contracts/Voting.sol",
  "abi": [
    {
      "anonymous": false,
      "inputs": [
        {
          "indexed": true,
          "internalType": "address",
          "name": "previousOwner",
          "type": "address"
        },
        {
          "indexed": true,
          "internalType": "address",
          "name": "newOwner",
          "type": "address"
        }
      ],
      "name": "OwnershipTransferred",
      "type": "event"
    },
    {
      "anonymous": false,
      "inputs": [
        {
          "indexed": false,
          "internalType": "uint256",
          "name": "proposalId",
          "type": "uint256"
        }
      ],
      "name": "ProposalRegistered",
      "type": "event"
    },
    {
      "anonymous": false,
      "inputs": [
        {
          "indexed": false,
          "internalType": "address",
          "name": "voter",
          "type": "address"
        },
        {
          "indexed": false,
          "internalType": "uint256",
          "name": "proposalId",
          "type": "uint256"
        }
      ],
      "name": "Voted",
      "type": "event"
    },
    {
      "anonymous": false,
      "inputs": [
        {
          "indexed": false,
          "internalType": "address",
          "name": "voterAddress",
          "type": "address"
        }
      ],
      "name": "VoterRegistered",
      "type": "event"
    },
    {
      "anonymous": false,
      "inputs": [
        {
          "indexed": false,
          "internalType": "enum Common.WorkflowStatus",
          "name": "previousStatus",
          "type": "uint8"
        },
        {
          "indexed": false,
          "internalType": "enum Common.WorkflowStatus",
          "name": "newStatus",
          "type": "uint8"
        }
      ],
      "name": "WorkflowStatusChange",
      "type": "event"
    },
    {
      "inputs": [
        {
          "internalType": "address",
          "name": "_address",
          "type": "address"
        }
      ],
      "name": "addAddressWhitelist",
      "outputs": [],
      "stateMutability": "nonpayable",
      "type": "function"
    },
    {
      "inputs": [],
      "name": "defaultWorkflowStatus",
      "outputs": [
        {
          "internalType": "enum Common.WorkflowStatus",
          "name": "",
          "type": "uint8"
        }
      ],
      "stateMutability": "view",
      "type": "function"
    },
    {
      "inputs": [],
      "name": "getWinner",
      "outputs": [
        {
          "internalType": "string",
          "name": "",
          "type": "string"
        }
      ],
      "stateMutability": "view",
      "type": "function"
    },
    {
      "inputs": [
        {
          "internalType": "address",
          "name": "_address",
          "type": "address"
        }
      ],
      "name": "isWhitelisted",
      "outputs": [
        {
          "components": [
            {
              "internalType": "bool",
              "name": "isRegistered",
              "type": "bool"
            },
            {
              "internalType": "bool",
              "name": "hasVoted",
              "type": "bool"
            },
            {
              "internalType": "uint256",
              "name": "votedProposalId",
              "type": "uint256"
            }
          ],
          "internalType": "struct Common.Voter",
          "name": "",
          "type": "tuple"
        }
      ],
      "stateMutability": "view",
      "type": "function"
    },
    {
      "inputs": [],
      "name": "owner",
      "outputs": [
        {
          "internalType": "address",
          "name": "",
          "type": "address"
        }
      ],
      "stateMutability": "view",
      "type": "function"
    },
    {
      "inputs": [
        {
          "internalType": "uint256",
          "name": "",
          "type": "uint256"
        }
      ],
      "name": "proposals",
      "outputs": [
        {
          "internalType": "string",
          "name": "description",
          "type": "string"
        },
        {
          "internalType": "uint256",
          "name": "voteCount",
          "type": "uint256"
        }
      ],
      "stateMutability": "view",
      "type": "function"
    },
    {
      "inputs": [],
      "name": "renounceOwnership",
      "outputs": [],
      "stateMutability": "nonpayable",
      "type": "function"
    },
    {
      "inputs": [],
      "name": "startsRecordingProposals",
      "outputs": [],
      "stateMutability": "nonpayable",
      "type": "function"
    },
    {
      "inputs": [],
      "name": "startsVotingSession",
      "outputs": [],
      "stateMutability": "nonpayable",
      "type": "function"
    },
    {
      "inputs": [],
      "name": "stopRecordingProposals",
      "outputs": [],
      "stateMutability": "nonpayable",
      "type": "function"
    },
    {
      "inputs": [],
      "name": "stopVotingSession",
      "outputs": [],
      "stateMutability": "nonpayable",
      "type": "function"
    },
    {
      "inputs": [
        {
          "internalType": "address",
          "name": "newOwner",
          "type": "address"
        }
      ],
      "name": "transferOwnership",
      "outputs": [],
      "stateMutability": "nonpayable",
      "type": "function"
    },
    {
      "inputs": [
        {
          "internalType": "string",
          "name": "description",
          "type": "string"
        }
      ],
      "name": "userAddProposal",
      "outputs": [],
      "stateMutability": "nonpayable",
      "type": "function"
    },
    {
      "inputs": [
        {
          "internalType": "uint256",
          "name": "proposalId",
          "type": "uint256"
        }
      ],
      "name": "voteForFavoriteProposal",
      "outputs": [],
      "stateMutability": "nonpayable",
      "type": "function"
    },
    {
      "inputs": [],
      "name": "voteTallying",
      "outputs": [],
      "stateMutability": "nonpayable",
      "type": "function"
    }
  ],
  "bytecode": "0x60806040526000600460006101000a81548160ff021916908360058111156200002d576200002c62000132565b5b02179055503480156200003f57600080fd5b5062000060620000546200006660201b60201c565b6200006e60201b60201c565b62000161565b600033905090565b60008060009054906101000a900473ffffffffffffffffffffffffffffffffffffffff169050816000806101000a81548173ffffffffffffffffffffffffffffffffffffffff021916908373ffffffffffffffffffffffffffffffffffffffff1602179055508173ffffffffffffffffffffffffffffffffffffffff168173ffffffffffffffffffffffffffffffffffffffff167f8be0079c531659141344cd1fd0a4f28419497f9722a3daafe3b4186f6b6457e060405160405180910390a35050565b7f4e487b7100000000000000000000000000000000000000000000000000000000600052602160045260246000fd5b61213e80620001716000396000f3fe608060405234801561001057600080fd5b50600436106100f55760003560e01c8063715018a6116100975780639d705001116100665780639d70500114610201578063c21bc9041461021d578063cc1c9d2a1461023b578063f2fde38b14610245576100f5565b8063715018a61461019f5780638845ff4d146101a95780638da5cb5b146101c55780638e7ea5b2146101e3576100f5565b806332bb8779116100d357806332bb8779146101515780633af32abf1461015b5780633ff7a2611461018b5780635dfd082b14610195576100f5565b8063013cf08b146100fa5780630bb28aa91461012b57806317a0ad8e14610147575b600080fd5b610114600480360381019061010f919061179d565b610261565b604051610122929190611872565b60405180910390f35b610145600480360381019061014091906119d7565b61031d565b005b61014f610504565b005b61015961069a565b005b61017560048036038101906101709190611a7e565b610814565b6040516101829190611b17565b60405180910390f35b610193610929565b005b61019d610aa3565b005b6101a7610c1d565b005b6101c360048036038101906101be919061179d565b610ca5565b005b6101cd610f9c565b6040516101da9190611b41565b60405180910390f35b6101eb610fc5565b6040516101f89190611b5c565b60405180910390f35b61021b60048036038101906102169190611a7e565b61107c565b005b6102256112b8565b6040516102329190611bf5565b60405180910390f35b6102436112cb565b005b61025f600480360381019061025a9190611a7e565b6114c8565b005b6002818154811061027157600080fd5b906000526020600020906002020160009150905080600001805461029490611c3f565b80601f01602080910402602001604051908101604052809291908181526020018280546102c090611c3f565b801561030d5780601f106102e25761010080835404028352916020019161030d565b820191906000526020600020905b8154815290600101906020018083116102f057829003601f168201915b5050505050908060010154905082565b60011515600160003373ffffffffffffffffffffffffffffffffffffffff1673ffffffffffffffffffffffffffffffffffffffff16815260200190815260200160002060000160009054906101000a900460ff161515146103b3576040517f08c379a00000000000000000000000000000000000000000000000000000000081526004016103aa90611cbc565b60405180910390fd5b60016040518060800160405280604f81526020016120ba604f91398160058111156103e1576103e0611b7e565b5b600460009054906101000a900460ff16600581111561040357610402611b7e565b5b148190610446576040517f08c379a000000000000000000000000000000000000000000000000000000000815260040161043d9190611b5c565b60405180910390fd5b50600260405180604001604052808581526020016000815250908060018154018082558091505060019003906000526020600020906002020160009091909190915060008201518160000190805190602001906104a492919061168b565b50602082015181600101555050600060016002805490506104c59190611d0b565b90507f92e393e9b54e2f801d3ea4beb0c5e71a21cc34a5d34b77d0fb8a3aa1650dc18f816040516104f69190611d3f565b60405180910390a150505050565b61050c6115bf565b73ffffffffffffffffffffffffffffffffffffffff1661052a610f9c565b73ffffffffffffffffffffffffffffffffffffffff1614610580576040517f08c379a000000000000000000000000000000000000000000000000000000000815260040161057790611da6565b60405180910390fd5b60036040518060400160405280601c81526020017f5468657265206973206e6f20766f746520696e2070726f6772657373000000008152508160058111156105cb576105ca611b7e565b5b600460009054906101000a900460ff1660058111156105ed576105ec611b7e565b5b148190610630576040517f08c379a00000000000000000000000000000000000000000000000000000000081526004016106279190611b5c565b60405180910390fd5b5060048060006101000a81548160ff0219169083600581111561065657610655611b7e565b5b02179055507f0a97a4ee45751e2abf3e4fc8946939630b11b371ea8ae39ccdc3056e98f5cc3f6003600460405161068e929190611dc6565b60405180910390a15050565b6106a26115bf565b73ffffffffffffffffffffffffffffffffffffffff166106c0610f9c565b73ffffffffffffffffffffffffffffffffffffffff1614610716576040517f08c379a000000000000000000000000000000000000000000000000000000000815260040161070d90611da6565b60405180910390fd5b60016040518060600160405280603781526020016120556037913981600581111561074457610743611b7e565b5b600460009054906101000a900460ff16600581111561076657610765611b7e565b5b1481906107a9576040517f08c379a00000000000000000000000000000000000000000000000000000000081526004016107a09190611b5c565b60405180910390fd5b506002600460006101000a81548160ff021916908360058111156107d0576107cf611b7e565b5b02179055507f0a97a4ee45751e2abf3e4fc8946939630b11b371ea8ae39ccdc3056e98f5cc3f60016002604051610808929190611dc6565b60405180910390a15050565b61081c611711565b6108246115bf565b73ffffffffffffffffffffffffffffffffffffffff16610842610f9c565b73ffffffffffffffffffffffffffffffffffffffff1614610898576040517f08c379a000000000000000000000000000000000000000000000000000000000815260040161088f90611da6565b60405180910390fd5b600160008373ffffffffffffffffffffffffffffffffffffffff1673ffffffffffffffffffffffffffffffffffffffff1681526020019081526020016000206040518060600160405290816000820160009054906101000a900460ff161515151581526020016000820160019054906101000a900460ff161515151581526020016001820154815250509050919050565b6109316115bf565b73ffffffffffffffffffffffffffffffffffffffff1661094f610f9c565b73ffffffffffffffffffffffffffffffffffffffff16146109a5576040517f08c379a000000000000000000000000000000000000000000000000000000000815260040161099c90611da6565b60405180910390fd5b6002604051806060016040528060348152602001611ffa603491398160058111156109d3576109d2611b7e565b5b600460009054906101000a900460ff1660058111156109f5576109f4611b7e565b5b148190610a38576040517f08c379a0000000000000000000000000000000000000000000000000000000008152600401610a2f9190611b5c565b60405180910390fd5b506003600460006101000a81548160ff02191690836005811115610a5f57610a5e611b7e565b5b02179055507f0a97a4ee45751e2abf3e4fc8946939630b11b371ea8ae39ccdc3056e98f5cc3f60026003604051610a97929190611dc6565b60405180910390a15050565b610aab6115bf565b73ffffffffffffffffffffffffffffffffffffffff16610ac9610f9c565b73ffffffffffffffffffffffffffffffffffffffff1614610b1f576040517f08c379a0000000000000000000000000000000000000000000000000000000008152600401610b1690611da6565b60405180910390fd5b600060405180606001604052806037815260200161205560379139816005811115610b4d57610b4c611b7e565b5b600460009054906101000a900460ff166005811115610b6f57610b6e611b7e565b5b148190610bb2576040517f08c379a0000000000000000000000000000000000000000000000000000000008152600401610ba99190611b5c565b60405180910390fd5b506001600460006101000a81548160ff02191690836005811115610bd957610bd8611b7e565b5b02179055507f0a97a4ee45751e2abf3e4fc8946939630b11b371ea8ae39ccdc3056e98f5cc3f60006001604051610c11929190611dc6565b60405180910390a15050565b610c256115bf565b73ffffffffffffffffffffffffffffffffffffffff16610c43610f9c565b73ffffffffffffffffffffffffffffffffffffffff1614610c99576040517f08c379a0000000000000000000000000000000000000000000000000000000008152600401610c9090611da6565b60405180910390fd5b610ca360006115c7565b565b60011515600160003373ffffffffffffffffffffffffffffffffffffffff1673ffffffffffffffffffffffffffffffffffffffff16815260200190815260200160002060000160009054906101000a900460ff16151514610d3b576040517f08c379a0000000000000000000000000000000000000000000000000000000008152600401610d3290611cbc565b60405180910390fd5b60036040518060400160405280601c81526020017f5468657265206973206e6f20766f746520696e2070726f677265737300000000815250816005811115610d8657610d85611b7e565b5b600460009054906101000a900460ff166005811115610da857610da7611b7e565b5b148190610deb576040517f08c379a0000000000000000000000000000000000000000000000000000000008152600401610de29190611b5c565b60405180910390fd5b5060001515600160003373ffffffffffffffffffffffffffffffffffffffff1673ffffffffffffffffffffffffffffffffffffffff16815260200190815260200160002060000160019054906101000a900460ff16151514610e82576040517f08c379a0000000000000000000000000000000000000000000000000000000008152600401610e7990611e3b565b60405180910390fd5b82600160003373ffffffffffffffffffffffffffffffffffffffff1673ffffffffffffffffffffffffffffffffffffffff1681526020019081526020016000206001018190555060018060003373ffffffffffffffffffffffffffffffffffffffff1673ffffffffffffffffffffffffffffffffffffffff16815260200190815260200160002060000160016101000a81548160ff02191690831515021790555060028381548110610f3757610f36611e5b565b5b90600052602060002090600202016001016000815480929190610f5990611e8a565b91905055507f4d99b957a2bc29a30ebd96a7be8e68fe50a3c701db28a91436490b7d53870ca43384604051610f8f929190611ed2565b60405180910390a1505050565b60008060009054906101000a900473ffffffffffffffffffffffffffffffffffffffff16905090565b6060600260035481548110610fdd57610fdc611e5b565b5b90600052602060002090600202016000018054610ff990611c3f565b80601f016020809104026020016040519081016040528092919081815260200182805461102590611c3f565b80156110725780601f1061104757610100808354040283529160200191611072565b820191906000526020600020905b81548152906001019060200180831161105557829003601f168201915b5050505050905090565b6110846115bf565b73ffffffffffffffffffffffffffffffffffffffff166110a2610f9c565b73ffffffffffffffffffffffffffffffffffffffff16146110f8576040517f08c379a00000000000000000000000000000000000000000000000000000000081526004016110ef90611da6565b60405180910390fd5b60006040518060600160405280602e815260200161208c602e913981600581111561112657611125611b7e565b5b600460009054906101000a900460ff16600581111561114857611147611b7e565b5b14819061118b576040517f08c379a00000000000000000000000000000000000000000000000000000000081526004016111829190611b5c565b60405180910390fd5b5060011515600160008573ffffffffffffffffffffffffffffffffffffffff1673ffffffffffffffffffffffffffffffffffffffff16815260200190815260200160002060000160009054906101000a900460ff16151503611222576040517f08c379a000000000000000000000000000000000000000000000000000000000815260040161121990611f47565b60405180910390fd5b60018060008573ffffffffffffffffffffffffffffffffffffffff1673ffffffffffffffffffffffffffffffffffffffff16815260200190815260200160002060000160006101000a81548160ff0219169083151502179055507fb6be2187d059cc2a55fe29e0e503b566e1e0f8c8780096e185429350acffd3dd836040516112ab9190611b41565b60405180910390a1505050565b600460009054906101000a900460ff1681565b6112d36115bf565b73ffffffffffffffffffffffffffffffffffffffff166112f1610f9c565b73ffffffffffffffffffffffffffffffffffffffff1614611347576040517f08c379a000000000000000000000000000000000000000000000000000000000815260040161133e90611da6565b60405180910390fd5b600460405180606001604052806027815260200161202e6027913981600581111561137557611374611b7e565b5b600460009054906101000a900460ff16600581111561139757611396611b7e565b5b1481906113da576040517f08c379a00000000000000000000000000000000000000000000000000000000081526004016113d19190611b5c565b60405180910390fd5b506000805b60028054905081101561145c57816002828154811061140157611400611e5b565b5b9060005260206000209060020201600101541115611449576002818154811061142d5761142c611e5b565b5b9060005260206000209060020201600101549150806003819055505b808061145490611e8a565b9150506113df565b506005600460006101000a81548160ff0219169083600581111561148357611482611b7e565b5b02179055507f0a97a4ee45751e2abf3e4fc8946939630b11b371ea8ae39ccdc3056e98f5cc3f600460056040516114bb929190611dc6565b60405180910390a1505050565b6114d06115bf565b73ffffffffffffffffffffffffffffffffffffffff166114ee610f9c565b73ffffffffffffffffffffffffffffffffffffffff1614611544576040517f08c379a000000000000000000000000000000000000000000000000000000000815260040161153b90611da6565b60405180910390fd5b600073ffffffffffffffffffffffffffffffffffffffff168173ffffffffffffffffffffffffffffffffffffffff16036115b3576040517f08c379a00000000000000000000000000000000000000000000000000000000081526004016115aa90611fd9565b60405180910390fd5b6115bc816115c7565b50565b600033905090565b60008060009054906101000a900473ffffffffffffffffffffffffffffffffffffffff169050816000806101000a81548173ffffffffffffffffffffffffffffffffffffffff021916908373ffffffffffffffffffffffffffffffffffffffff1602179055508173ffffffffffffffffffffffffffffffffffffffff168173ffffffffffffffffffffffffffffffffffffffff167f8be0079c531659141344cd1fd0a4f28419497f9722a3daafe3b4186f6b6457e060405160405180910390a35050565b82805461169790611c3f565b90600052602060002090601f0160209004810192826116b95760008555611700565b82601f106116d257805160ff1916838001178555611700565b82800160010185558215611700579182015b828111156116ff5782518255916020019190600101906116e4565b5b50905061170d9190611736565b5090565b6040518060600160405280600015158152602001600015158152602001600081525090565b5b8082111561174f576000816000905550600101611737565b5090565b6000604051905090565b600080fd5b600080fd5b6000819050919050565b61177a81611767565b811461178557600080fd5b50565b60008135905061179781611771565b92915050565b6000602082840312156117b3576117b261175d565b5b60006117c184828501611788565b91505092915050565b600081519050919050565b600082825260208201905092915050565b60005b838110156118045780820151818401526020810190506117e9565b83811115611813576000848401525b50505050565b6000601f19601f8301169050919050565b6000611835826117ca565b61183f81856117d5565b935061184f8185602086016117e6565b61185881611819565b840191505092915050565b61186c81611767565b82525050565b6000604082019050818103600083015261188c818561182a565b905061189b6020830184611863565b9392505050565b600080fd5b600080fd5b7f4e487b7100000000000000000000000000000000000000000000000000000000600052604160045260246000fd5b6118e482611819565b810181811067ffffffffffffffff82111715611903576119026118ac565b5b80604052505050565b6000611916611753565b905061192282826118db565b919050565b600067ffffffffffffffff821115611942576119416118ac565b5b61194b82611819565b9050602081019050919050565b82818337600083830152505050565b600061197a61197584611927565b61190c565b905082815260208101848484011115611996576119956118a7565b5b6119a1848285611958565b509392505050565b600082601f8301126119be576119bd6118a2565b5b81356119ce848260208601611967565b91505092915050565b6000602082840312156119ed576119ec61175d565b5b600082013567ffffffffffffffff811115611a0b57611a0a611762565b5b611a17848285016119a9565b91505092915050565b600073ffffffffffffffffffffffffffffffffffffffff82169050919050565b6000611a4b82611a20565b9050919050565b611a5b81611a40565b8114611a6657600080fd5b50565b600081359050611a7881611a52565b92915050565b600060208284031215611a9457611a9361175d565b5b6000611aa284828501611a69565b91505092915050565b60008115159050919050565b611ac081611aab565b82525050565b611acf81611767565b82525050565b606082016000820151611aeb6000850182611ab7565b506020820151611afe6020850182611ab7565b506040820151611b116040850182611ac6565b50505050565b6000606082019050611b2c6000830184611ad5565b92915050565b611b3b81611a40565b82525050565b6000602082019050611b566000830184611b32565b92915050565b60006020820190508181036000830152611b76818461182a565b905092915050565b7f4e487b7100000000000000000000000000000000000000000000000000000000600052602160045260246000fd5b60068110611bbe57611bbd611b7e565b5b50565b6000819050611bcf82611bad565b919050565b6000611bdf82611bc1565b9050919050565b611bef81611bd4565b82525050565b6000602082019050611c0a6000830184611be6565b92915050565b7f4e487b7100000000000000000000000000000000000000000000000000000000600052602260045260246000fd5b60006002820490506001821680611c5757607f821691505b602082108103611c6a57611c69611c10565b5b50919050565b7f5573657273206973206e6f7420696e207768697465206c697374000000000000600082015250565b6000611ca6601a836117d5565b9150611cb182611c70565b602082019050919050565b60006020820190508181036000830152611cd581611c99565b9050919050565b7f4e487b7100000000000000000000000000000000000000000000000000000000600052601160045260246000fd5b6000611d1682611767565b9150611d2183611767565b925082821015611d3457611d33611cdc565b5b828203905092915050565b6000602082019050611d546000830184611863565b92915050565b7f4f776e61626c653a2063616c6c6572206973206e6f7420746865206f776e6572600082015250565b6000611d906020836117d5565b9150611d9b82611d5a565b602082019050919050565b60006020820190508181036000830152611dbf81611d83565b9050919050565b6000604082019050611ddb6000830185611be6565b611de86020830184611be6565b9392505050565b7f546865207573657273206861766520616c726561647920766f74656400000000600082015250565b6000611e25601c836117d5565b9150611e3082611def565b602082019050919050565b60006020820190508181036000830152611e5481611e18565b9050919050565b7f4e487b7100000000000000000000000000000000000000000000000000000000600052603260045260246000fd5b6000611e9582611767565b91507fffffffffffffffffffffffffffffffffffffffffffffffffffffffffffffffff8203611ec757611ec6611cdc565b5b600182019050919050565b6000604082019050611ee76000830185611b32565b611ef46020830184611863565b9392505050565b7f6164647265737320697320616c72656164792077686974656c69737465640000600082015250565b6000611f31601e836117d5565b9150611f3c82611efb565b602082019050919050565b60006020820190508181036000830152611f6081611f24565b9050919050565b7f4f776e61626c653a206e6577206f776e657220697320746865207a65726f206160008201527f6464726573730000000000000000000000000000000000000000000000000000602082015250565b6000611fc36026836117d5565b9150611fce82611f67565b604082019050919050565b60006020820190508181036000830152611ff281611fb6565b905091905056fe54686520766f74696e6720726567697374726174696f6e2073657373696f6e206973207374696c6c20696e2070726f677265737354686520766f74696e672073657373696f6e206973207374696c6c20696e2070726f6772657373546865726520617265206e6f2070726f706f73616c20726567697374726174696f6e2073657373696f6e7320696e2070726f6772657373546865207265636f7264696e672073657373696f6e206973206e6f206c6f6e67657220696e2070726f67726573735468652070726f706f73616c206372756e6368696e672073657373696f6e206861736e27742073746172746564207965742c20706c6561736520646f6e277420626520696e20612068757272792021a26469706673582212206ef3647610a992cf3a765886dcaf4fd94fd2508b2e2ed41680b2cd50c5d08ce864736f6c634300080d0033",
  "linkReferences": {},
  "deployedLinkReferences": {}
}