{
  "_format": "hh-sol-artifact-1",
  "contractName": "Greeter",
  "sourceName": "contracts/Greeter.sol",
  "abi": [
    {
      "inputs": [
        {
          "internalType": "string",
          "name": "_greeting",
          "type": "string"
        },
        {
          "internalType": "uint8",
          "name": "_x",
          "type": "uint8"
        }
      ],
      "stateMutability": "nonpayable",
      "type": "constructor"
    },
    {
      "inputs": [],
      "name": "getX",
      "outputs": [
        {
          "internalType": "uint8",
          "name": "",
          "type": "uint8"
        }
      ],
      "stateMutability": "view",
      "type": "function"
    },
    {
      "inputs": [],
      "name": "greet",
      "outputs": [
        {
          "internalType": "string",
          "name": "",
          "type": "string"
        }
      ],
      "stateMutability": "view",
      "type": "function"
    },
    {
      "inputs": [
        {
          "internalType": "string",
          "name": "_greeting",
          "type": "string"
        }
      ],
      "name": "setGreeting",
      "outputs": [],
      "stateMutability": "nonpayable",
      "type": "function"
    },
    {
      "inputs": [
        {
          "internalType": "uint8",
          "name": "_x",
          "type": "uint8"
        }
      ],
      "name": "setX",
      "outputs": [],
      "stateMutability": "nonpayable",
      "type": "function"
    }
  ],
  "bytecode": "0x60806040523480156200001157600080fd5b5060405162000e0438038062000e048339818101604052810190620000379190620003fd565b6200006760405180606001604052806022815260200162000de26022913983620000a360201b620002531760201c565b81600090805190602001906200007f92919062000172565b5080600160006101000a81548160ff021916908360ff16021790555050506200055f565b620001458282604051602401620000bc929190620004c0565b6040516020818303038152906040527f4b5c4277000000000000000000000000000000000000000000000000000000007bffffffffffffffffffffffffffffffffffffffffffffffffffffffff19166020820180517bffffffffffffffffffffffffffffffffffffffffffffffffffffffff83818316178352505050506200014960201b60201c565b5050565b60008151905060006a636f6e736f6c652e6c6f679050602083016000808483855afa5050505050565b82805462000180906200052a565b90600052602060002090601f016020900481019282620001a45760008555620001f0565b82601f10620001bf57805160ff1916838001178555620001f0565b82800160010185558215620001f0579182015b82811115620001ef578251825591602001919060010190620001d2565b5b509050620001ff919062000203565b5090565b5b808211156200021e57600081600090555060010162000204565b5090565b6000604051905090565b600080fd5b600080fd5b600080fd5b600080fd5b6000601f19601f8301169050919050565b7f4e487b7100000000000000000000000000000000000000000000000000000000600052604160045260246000fd5b6200028b8262000240565b810181811067ffffffffffffffff82111715620002ad57620002ac62000251565b5b80604052505050565b6000620002c262000222565b9050620002d0828262000280565b919050565b600067ffffffffffffffff821115620002f357620002f262000251565b5b620002fe8262000240565b9050602081019050919050565b60005b838110156200032b5780820151818401526020810190506200030e565b838111156200033b576000848401525b50505050565b6000620003586200035284620002d5565b620002b6565b9050828152602081018484840111156200037757620003766200023b565b5b620003848482856200030b565b509392505050565b600082601f830112620003a457620003a362000236565b5b8151620003b684826020860162000341565b91505092915050565b600060ff82169050919050565b620003d781620003bf565b8114620003e357600080fd5b50565b600081519050620003f781620003cc565b92915050565b600080604083850312156200041757620004166200022c565b5b600083015167ffffffffffffffff81111562000438576200043762000231565b5b62000446858286016200038c565b92505060206200045985828601620003e6565b9150509250929050565b600081519050919050565b600082825260208201905092915050565b60006200048c8262000463565b6200049881856200046e565b9350620004aa8185602086016200030b565b620004b58162000240565b840191505092915050565b60006040820190508181036000830152620004dc81856200047f565b90508181036020830152620004f281846200047f565b90509392505050565b7f4e487b7100000000000000000000000000000000000000000000000000000000600052602260045260246000fd5b600060028204905060018216806200054357607f821691505b602082108103620005595762000558620004fb565b5b50919050565b610873806200056f6000396000f3fe608060405234801561001057600080fd5b506004361061004c5760003560e01c80635197c7aa146100515780639da206551461006f578063a41368621461008b578063cfae3217146100a7575b600080fd5b6100596100c5565b6040516100669190610476565b60405180910390f35b610089600480360381019061008491906104d1565b6100dc565b005b6100a560048036038101906100a09190610644565b6100fa565b005b6100af6101c1565b6040516100bc9190610715565b60405180910390f35b6000600160009054906101000a900460ff16905090565b80600160006101000a81548160ff021916908360ff16021790555050565b6101a760405180606001604052806023815260200161081b602391396000805461012390610766565b80601f016020809104026020016040519081016040528092919081815260200182805461014f90610766565b801561019c5780601f106101715761010080835404028352916020019161019c565b820191906000526020600020905b81548152906001019060200180831161017f57829003601f168201915b5050505050836102ef565b80600090805190602001906101bd9291906103b7565b5050565b6060600080546101d090610766565b80601f01602080910402602001604051908101604052809291908181526020018280546101fc90610766565b80156102495780601f1061021e57610100808354040283529160200191610249565b820191906000526020600020905b81548152906001019060200180831161022c57829003601f168201915b5050505050905090565b6102eb8282604051602401610269929190610797565b6040516020818303038152906040527f4b5c4277000000000000000000000000000000000000000000000000000000007bffffffffffffffffffffffffffffffffffffffffffffffffffffffff19166020820180517bffffffffffffffffffffffffffffffffffffffffffffffffffffffff838183161783525050505061038e565b5050565b610389838383604051602401610307939291906107ce565b6040516020818303038152906040527f2ced7cef000000000000000000000000000000000000000000000000000000007bffffffffffffffffffffffffffffffffffffffffffffffffffffffff19166020820180517bffffffffffffffffffffffffffffffffffffffffffffffffffffffff838183161783525050505061038e565b505050565b60008151905060006a636f6e736f6c652e6c6f679050602083016000808483855afa5050505050565b8280546103c390610766565b90600052602060002090601f0160209004810192826103e5576000855561042c565b82601f106103fe57805160ff191683800117855561042c565b8280016001018555821561042c579182015b8281111561042b578251825591602001919060010190610410565b5b509050610439919061043d565b5090565b5b8082111561045657600081600090555060010161043e565b5090565b600060ff82169050919050565b6104708161045a565b82525050565b600060208201905061048b6000830184610467565b92915050565b6000604051905090565b600080fd5b600080fd5b6104ae8161045a565b81146104b957600080fd5b50565b6000813590506104cb816104a5565b92915050565b6000602082840312156104e7576104e661049b565b5b60006104f5848285016104bc565b91505092915050565b600080fd5b600080fd5b6000601f19601f8301169050919050565b7f4e487b7100000000000000000000000000000000000000000000000000000000600052604160045260246000fd5b61055182610508565b810181811067ffffffffffffffff821117156105705761056f610519565b5b80604052505050565b6000610583610491565b905061058f8282610548565b919050565b600067ffffffffffffffff8211156105af576105ae610519565b5b6105b882610508565b9050602081019050919050565b82818337600083830152505050565b60006105e76105e284610594565b610579565b90508281526020810184848401111561060357610602610503565b5b61060e8482856105c5565b509392505050565b600082601f83011261062b5761062a6104fe565b5b813561063b8482602086016105d4565b91505092915050565b60006020828403121561065a5761065961049b565b5b600082013567ffffffffffffffff811115610678576106776104a0565b5b61068484828501610616565b91505092915050565b600081519050919050565b600082825260208201905092915050565b60005b838110156106c75780820151818401526020810190506106ac565b838111156106d6576000848401525b50505050565b60006106e78261068d565b6106f18185610698565b93506107018185602086016106a9565b61070a81610508565b840191505092915050565b6000602082019050818103600083015261072f81846106dc565b905092915050565b7f4e487b7100000000000000000000000000000000000000000000000000000000600052602260045260246000fd5b6000600282049050600182168061077e57607f821691505b60208210810361079157610790610737565b5b50919050565b600060408201905081810360008301526107b181856106dc565b905081810360208301526107c581846106dc565b90509392505050565b600060608201905081810360008301526107e881866106dc565b905081810360208301526107fc81856106dc565b9050818103604083015261081081846106dc565b905094935050505056fe4368616e67696e67206772656574696e672066726f6d202725732720746f2027257327a264697066735822122093be4ef03be0af2b5dfc6eb3ec4c496805660935be83027d3a837969704edc1664736f6c634300080d00334465706c6f79696e67206120477265657465722077697468206772656574696e673a",
  "linkReferences": {},
  "deployedLinkReferences": {}
}