{
  "_format": "hh-sol-artifact-1",
  "contractName": "CommownSWProxyFactory",
  "sourceName": "contracts/CommownSWProxyFactory.sol",
  "abi": [
    {
      "inputs": [],
      "stateMutability": "nonpayable",
      "type": "constructor"
    },
    {
      "anonymous": false,
      "inputs": [
        {
          "indexed": true,
          "internalType": "address",
          "name": "adrs",
          "type": "address"
        }
      ],
      "name": "ProxyCreated",
      "type": "event"
    },
    {
      "inputs": [
        {
          "internalType": "address",
          "name": "",
          "type": "address"
        },
        {
          "internalType": "uint256",
          "name": "",
          "type": "uint256"
        }
      ],
      "name": "commownProxiesPerUser",
      "outputs": [
        {
          "internalType": "address",
          "name": "",
          "type": "address"
        }
      ],
      "stateMutability": "view",
      "type": "function"
    },
    {
      "inputs": [
        {
          "internalType": "address[]",
          "name": "_owners",
          "type": "address[]"
        },
        {
          "internalType": "uint8",
          "name": "_confirmationNeeded",
          "type": "uint8"
        }
      ],
      "name": "createProxy",
      "outputs": [
        {
          "internalType": "address",
          "name": "",
          "type": "address"
        }
      ],
      "stateMutability": "nonpayable",
      "type": "function"
    },
    {
      "inputs": [],
      "name": "logic",
      "outputs": [
        {
          "internalType": "address",
          "name": "",
          "type": "address"
        }
      ],
      "stateMutability": "view",
      "type": "function"
    },
    {
      "inputs": [
        {
          "internalType": "address",
          "name": "",
          "type": "address"
        }
      ],
      "name": "nbProxiesPerUser",
      "outputs": [
        {
          "internalType": "uint256",
          "name": "",
          "type": "uint256"
        }
      ],
      "stateMutability": "view",
      "type": "function"
    },
    {
      "inputs": [
        {
          "internalType": "uint256",
          "name": "",
          "type": "uint256"
        }
      ],
      "name": "proxiesList",
      "outputs": [
        {
          "internalType": "address",
          "name": "",
          "type": "address"
        }
      ],
      "stateMutability": "view",
      "type": "function"
    }
  ],
  "bytecode": "0x60a060405234801561001057600080fd5b5060405161001d90610072565b604051809103906000f080158015610039573d6000803e3d6000fd5b5073ffffffffffffffffffffffffffffffffffffffff1660808173ffffffffffffffffffffffffffffffffffffffff168152505061007f565b612a0880611bc183390190565b608051611b206100a16000396000818161020901526105240152611b206000f3fe60806040523480156200001157600080fd5b50600436106200005e5760003560e01c8063404addee1462000063578063878dd62b1462000099578063adec742d14620000cf578063c55e8db11462000105578063d7dfa0dd146200013b575b600080fd5b6200008160048036038101906200007b9190620006d1565b6200015d565b60405162000090919062000729565b60405180910390f35b620000b76004803603810190620000b1919062000746565b620001ac565b604051620000c6919062000789565b60405180910390f35b620000ed6004803603810190620000e79190620007a6565b620001c4565b604051620000fc919062000729565b60405180910390f35b6200012360048036038101906200011d91906200098b565b62000204565b60405162000132919062000729565b60405180910390f35b6200014562000522565b60405162000154919062000729565b60405180910390f35b600060205281600052604060002081815481106200017a57600080fd5b906000526020600020016000915091509054906101000a900473ffffffffffffffffffffffffffffffffffffffff1681565b60016020528060005260406000206000915090505481565b60028181548110620001d557600080fd5b906000526020600020016000915054906101000a900473ffffffffffffffffffffffffffffffffffffffff1681565b6000807f0000000000000000000000000000000000000000000000000000000000000000632bbdea4e60e01b85856040516024016200024592919062000ad0565b604051602081830303815290604052907bffffffffffffffffffffffffffffffffffffffffffffffffffffffff19166020820180517bffffffffffffffffffffffffffffffffffffffffffffffffffffffff8381831617835250505050604051620002b0906200060f565b620002bd92919062000b97565b604051809103906000f080158015620002da573d6000803e3d6000fd5b5090506002819080600181540180825580915050600190039060005260206000200160009091909190916101000a81548173ffffffffffffffffffffffffffffffffffffffff021916908373ffffffffffffffffffffffffffffffffffffffff16021790555060005b8451811015620004945760008086838151811062000366576200036562000bcb565b5b602002602001015173ffffffffffffffffffffffffffffffffffffffff1673ffffffffffffffffffffffffffffffffffffffff168152602001908152602001600020829080600181540180825580915050600190039060005260206000200160009091909190916101000a81548173ffffffffffffffffffffffffffffffffffffffff021916908373ffffffffffffffffffffffffffffffffffffffff160217905550600180600087848151811062000424576200042362000bcb565b5b602002602001015173ffffffffffffffffffffffffffffffffffffffff1673ffffffffffffffffffffffffffffffffffffffff168152602001908152602001600020600082825462000477919062000c29565b9250508190555080806200048b9062000c86565b91505062000343565b50620004d66040518060400160405280601181526020017f616464726573732870726f787929203a200000000000000000000000000000008152508262000546565b8073ffffffffffffffffffffffffffffffffffffffff167efffc2da0b561cae30d9826d37709e9421c4725faebc226cbbb7ef5fc5e734960405160405180910390a28091505092915050565b7f000000000000000000000000000000000000000000000000000000000000000081565b620005e282826040516024016200055f92919062000d30565b6040516020818303038152906040527f319af333000000000000000000000000000000000000000000000000000000007bffffffffffffffffffffffffffffffffffffffffffffffffffffffff19166020820180517bffffffffffffffffffffffffffffffffffffffffffffffffffffffff8381831617835250505050620005e6565b5050565b60008151905060006a636f6e736f6c652e6c6f679050602083016000808483855afa5050505050565b610d868062000d6583390190565b6000604051905090565b600080fd5b600080fd5b600073ffffffffffffffffffffffffffffffffffffffff82169050919050565b60006200065e8262000631565b9050919050565b620006708162000651565b81146200067c57600080fd5b50565b600081359050620006908162000665565b92915050565b6000819050919050565b620006ab8162000696565b8114620006b757600080fd5b50565b600081359050620006cb81620006a0565b92915050565b60008060408385031215620006eb57620006ea62000627565b5b6000620006fb858286016200067f565b92505060206200070e85828601620006ba565b9150509250929050565b620007238162000651565b82525050565b600060208201905062000740600083018462000718565b92915050565b6000602082840312156200075f576200075e62000627565b5b60006200076f848285016200067f565b91505092915050565b620007838162000696565b82525050565b6000602082019050620007a0600083018462000778565b92915050565b600060208284031215620007bf57620007be62000627565b5b6000620007cf84828501620006ba565b91505092915050565b600080fd5b6000601f19601f8301169050919050565b7f4e487b7100000000000000000000000000000000000000000000000000000000600052604160045260246000fd5b6200082882620007dd565b810181811067ffffffffffffffff821117156200084a5762000849620007ee565b5b80604052505050565b60006200085f6200061d565b90506200086d82826200081d565b919050565b600067ffffffffffffffff82111562000890576200088f620007ee565b5b602082029050602081019050919050565b600080fd5b6000620008bd620008b78462000872565b62000853565b90508083825260208201905060208402830185811115620008e357620008e2620008a1565b5b835b81811015620009105780620008fb88826200067f565b845260208401935050602081019050620008e5565b5050509392505050565b600082601f830112620009325762000931620007d8565b5b813562000944848260208601620008a6565b91505092915050565b600060ff82169050919050565b62000965816200094d565b81146200097157600080fd5b50565b60008135905062000985816200095a565b92915050565b60008060408385031215620009a557620009a462000627565b5b600083013567ffffffffffffffff811115620009c657620009c56200062c565b5b620009d4858286016200091a565b9250506020620009e78582860162000974565b9150509250929050565b600081519050919050565b600082825260208201905092915050565b6000819050602082019050919050565b62000a288162000651565b82525050565b600062000a3c838362000a1d565b60208301905092915050565b6000602082019050919050565b600062000a6282620009f1565b62000a6e8185620009fc565b935062000a7b8362000a0d565b8060005b8381101562000ab257815162000a96888262000a2e565b975062000aa38362000a48565b92505060018101905062000a7f565b5085935050505092915050565b62000aca816200094d565b82525050565b6000604082019050818103600083015262000aec818562000a55565b905062000afd602083018462000abf565b9392505050565b600081519050919050565b600082825260208201905092915050565b60005b8381101562000b4057808201518184015260208101905062000b23565b8381111562000b50576000848401525b50505050565b600062000b638262000b04565b62000b6f818562000b0f565b935062000b8181856020860162000b20565b62000b8c81620007dd565b840191505092915050565b600060408201905062000bae600083018562000718565b818103602083015262000bc2818462000b56565b90509392505050565b7f4e487b7100000000000000000000000000000000000000000000000000000000600052603260045260246000fd5b7f4e487b7100000000000000000000000000000000000000000000000000000000600052601160045260246000fd5b600062000c368262000696565b915062000c438362000696565b9250827fffffffffffffffffffffffffffffffffffffffffffffffffffffffffffffffff0382111562000c7b5762000c7a62000bfa565b5b828201905092915050565b600062000c938262000696565b91507fffffffffffffffffffffffffffffffffffffffffffffffffffffffffffffffff820362000cc85762000cc762000bfa565b5b600182019050919050565b600081519050919050565b600082825260208201905092915050565b600062000cfc8262000cd3565b62000d08818562000cde565b935062000d1a81856020860162000b20565b62000d2581620007dd565b840191505092915050565b6000604082019050818103600083015262000d4c818562000cef565b905062000d5d602083018462000718565b939250505056fe608060405260405162000d8638038062000d868339818101604052810190620000299190620005d4565b60017f360894a13ba1a3210667c828492db98dca3e2076cc3735a920a3ca505d382bbd60001c6200005b919062000673565b60001b7f360894a13ba1a3210667c828492db98dca3e2076cc3735a920a3ca505d382bbc60001b14620000935762000092620006ae565b5b620000a782826000620000af60201b60201c565b5050620008f4565b620000c083620000f260201b60201c565b600082511180620000ce5750805b15620000ed57620000eb83836200014960201b620000371760201c565b505b505050565b62000103816200017f60201b60201c565b8073ffffffffffffffffffffffffffffffffffffffff167fbc7cd75a20ee27fd9adebab32041f755214dbc6bffa90cc0225b39da2e5c2d3b60405160405180910390a250565b606062000177838360405180606001604052806027815260200162000d5f602791396200025560201b60201c565b905092915050565b62000195816200033960201b620000641760201c565b620001d7576040517f08c379a0000000000000000000000000000000000000000000000000000000008152600401620001ce9062000764565b60405180910390fd5b80620002117f360894a13ba1a3210667c828492db98dca3e2076cc3735a920a3ca505d382bbc60001b6200035c60201b620000871760201c565b60000160006101000a81548173ffffffffffffffffffffffffffffffffffffffff021916908373ffffffffffffffffffffffffffffffffffffffff16021790555050565b606062000268846200033960201b60201c565b620002aa576040517f08c379a0000000000000000000000000000000000000000000000000000000008152600401620002a190620007fc565b60405180910390fd5b6000808573ffffffffffffffffffffffffffffffffffffffff1685604051620002d491906200086b565b600060405180830381855af49150503d806000811462000311576040519150601f19603f3d011682016040523d82523d6000602084013e62000316565b606091505b50915091506200032e8282866200036660201b60201c565b925050509392505050565b6000808273ffffffffffffffffffffffffffffffffffffffff163b119050919050565b6000819050919050565b606083156200037857829050620003cb565b6000835111156200038c5782518084602001fd5b816040517f08c379a0000000000000000000000000000000000000000000000000000000008152600401620003c29190620008d0565b60405180910390fd5b9392505050565b6000604051905090565b600080fd5b600080fd5b600073ffffffffffffffffffffffffffffffffffffffff82169050919050565b60006200041382620003e6565b9050919050565b620004258162000406565b81146200043157600080fd5b50565b60008151905062000445816200041a565b92915050565b600080fd5b600080fd5b6000601f19601f8301169050919050565b7f4e487b7100000000000000000000000000000000000000000000000000000000600052604160045260246000fd5b620004a08262000455565b810181811067ffffffffffffffff82111715620004c257620004c162000466565b5b80604052505050565b6000620004d7620003d2565b9050620004e5828262000495565b919050565b600067ffffffffffffffff82111562000508576200050762000466565b5b620005138262000455565b9050602081019050919050565b60005b838110156200054057808201518184015260208101905062000523565b8381111562000550576000848401525b50505050565b60006200056d6200056784620004ea565b620004cb565b9050828152602081018484840111156200058c576200058b62000450565b5b6200059984828562000520565b509392505050565b600082601f830112620005b957620005b86200044b565b5b8151620005cb84826020860162000556565b91505092915050565b60008060408385031215620005ee57620005ed620003dc565b5b6000620005fe8582860162000434565b925050602083015167ffffffffffffffff811115620006225762000621620003e1565b5b6200063085828601620005a1565b9150509250929050565b6000819050919050565b7f4e487b7100000000000000000000000000000000000000000000000000000000600052601160045260246000fd5b600062000680826200063a565b91506200068d836200063a565b925082821015620006a357620006a262000644565b5b828203905092915050565b7f4e487b7100000000000000000000000000000000000000000000000000000000600052600160045260246000fd5b600082825260208201905092915050565b7f455243313936373a206e657720696d706c656d656e746174696f6e206973206e60008201527f6f74206120636f6e747261637400000000000000000000000000000000000000602082015250565b60006200074c602d83620006dd565b91506200075982620006ee565b604082019050919050565b600060208201905081810360008301526200077f816200073d565b9050919050565b7f416464726573733a2064656c65676174652063616c6c20746f206e6f6e2d636f60008201527f6e74726163740000000000000000000000000000000000000000000000000000602082015250565b6000620007e4602683620006dd565b9150620007f18262000786565b604082019050919050565b600060208201905081810360008301526200081781620007d5565b9050919050565b600081519050919050565b600081905092915050565b600062000841826200081e565b6200084d818562000829565b93506200085f81856020860162000520565b80840191505092915050565b600062000879828462000834565b915081905092915050565b600081519050919050565b60006200089c8262000884565b620008a88185620006dd565b9350620008ba81856020860162000520565b620008c58162000455565b840191505092915050565b60006020820190508181036000830152620008ec81846200088f565b905092915050565b61045b80620009046000396000f3fe6080604052366100135761001161001d565b005b61001b61001d565b005b610025610091565b610035610030610093565b6100a2565b565b606061005c83836040518060600160405280602781526020016103ff602791396100c8565b905092915050565b6000808273ffffffffffffffffffffffffffffffffffffffff163b119050919050565b6000819050919050565b565b600061009d610195565b905090565b3660008037600080366000845af43d6000803e80600081146100c3573d6000f35b3d6000fd5b60606100d384610064565b610112576040517f08c379a0000000000000000000000000000000000000000000000000000000008152600401610109906102d6565b60405180910390fd5b6000808573ffffffffffffffffffffffffffffffffffffffff168560405161013a9190610370565b600060405180830381855af49150503d8060008114610175576040519150601f19603f3d011682016040523d82523d6000602084013e61017a565b606091505b509150915061018a8282866101ec565b925050509392505050565b60006101c37f360894a13ba1a3210667c828492db98dca3e2076cc3735a920a3ca505d382bbc60001b610087565b60000160009054906101000a900473ffffffffffffffffffffffffffffffffffffffff16905090565b606083156101fc5782905061024c565b60008351111561020f5782518084602001fd5b816040517f08c379a000000000000000000000000000000000000000000000000000000000815260040161024391906103dc565b60405180910390fd5b9392505050565b600082825260208201905092915050565b7f416464726573733a2064656c65676174652063616c6c20746f206e6f6e2d636f60008201527f6e74726163740000000000000000000000000000000000000000000000000000602082015250565b60006102c0602683610253565b91506102cb82610264565b604082019050919050565b600060208201905081810360008301526102ef816102b3565b9050919050565b600081519050919050565b600081905092915050565b60005b8381101561032a57808201518184015260208101905061030f565b83811115610339576000848401525b50505050565b600061034a826102f6565b6103548185610301565b935061036481856020860161030c565b80840191505092915050565b600061037c828461033f565b915081905092915050565b600081519050919050565b6000601f19601f8301169050919050565b60006103ae82610387565b6103b88185610253565b93506103c881856020860161030c565b6103d181610392565b840191505092915050565b600060208201905081810360008301526103f681846103a3565b90509291505056fe416464726573733a206c6f772d6c6576656c2064656c65676174652063616c6c206661696c6564a2646970667358221220e7ad0133b9d7b8ba046931d6e493290054d3bb31bdb06986a7c5cff55b817b7c64736f6c634300080d0033416464726573733a206c6f772d6c6576656c2064656c65676174652063616c6c206661696c6564a2646970667358221220443e9d961f49f2ac8d634400fd18929502d09ade29b58d43dd8b2c552c42b68564736f6c634300080d003360a06040523073ffffffffffffffffffffffffffffffffffffffff1660809073ffffffffffffffffffffffffffffffffffffffff168152503480156200004457600080fd5b50600060019054906101000a900460ff166200006f5760008054906101000a900460ff161562000080565b6200007f6200013c60201b60201c565b5b620000c2576040517f08c379a0000000000000000000000000000000000000000000000000000000008152600401620000b99062000204565b60405180910390fd5b60008060019054906101000a900460ff16159050801562000113576001600060016101000a81548160ff02191690831515021790555060016000806101000a81548160ff0219169083151502179055505b8015620001355760008060016101000a81548160ff0219169083151502179055505b5062000226565b600062000154306200015a60201b62000f5e1760201c565b15905090565b6000808273ffffffffffffffffffffffffffffffffffffffff163b119050919050565b600082825260208201905092915050565b7f496e697469616c697a61626c653a20636f6e747261637420697320616c72656160008201527f647920696e697469616c697a6564000000000000000000000000000000000000602082015250565b6000620001ec602e836200017d565b9150620001f9826200018e565b604082019050919050565b600060208201905081810360008301526200021f81620001dd565b9050919050565b6080516127aa6200025e6000396000818161099101528181610a1f01528181610b3101528181610bbf0152610c6f01526127aa6000f3fe6080604052600436106100ec5760003560e01c806352d1902d1161008a578063ee98fc7211610059578063ee98fc7214610427578063f2fde38b14610464578063f6b778921461048d578063ffa1ad74146104b857610226565b806352d1902d1461037b578063715018a6146103a65780638da5cb5b146103bd5780638fe371d2146103e857610226565b80632f54bf6e116100c65780632f54bf6e146102bc5780633659cfe6146102f9578063391b22fd146103225780634f1ef2861461035f57610226565b8063025e7c271461022b5780632b9a9f50146102685780632bbdea4e1461029357610226565b36610226573360cb60008273ffffffffffffffffffffffffffffffffffffffff1673ffffffffffffffffffffffffffffffffffffffff16815260200190815260200160002060009054906101000a900460ff1661017e576040517f08c379a00000000000000000000000000000000000000000000000000000000081526004016101759061169f565b60405180910390fd5b3460cd60003373ffffffffffffffffffffffffffffffffffffffff1673ffffffffffffffffffffffffffffffffffffffff16815260200190815260200160002060008282546101cd91906116f8565b925050819055503373ffffffffffffffffffffffffffffffffffffffff167f90890809c654f11d6e72a28fa60149770a0d11ec6c92319d6ceb2bb0a4ea1a15344760405161021c92919061175d565b60405180910390a2005b600080fd5b34801561023757600080fd5b50610252600480360381019061024d91906117c6565b6104e3565b60405161025f9190611834565b60405180910390f35b34801561027457600080fd5b5061027d610522565b60405161028a919061186b565b60405180910390f35b34801561029f57600080fd5b506102ba60048036038101906102b59190611a37565b610535565b005b3480156102c857600080fd5b506102e360048036038101906102de9190611a93565b61096f565b6040516102f09190611adb565b60405180910390f35b34801561030557600080fd5b50610320600480360381019061031b9190611a93565b61098f565b005b34801561032e57600080fd5b5061034960048036038101906103449190611a93565b610b17565b6040516103569190611af6565b60405180910390f35b61037960048036038101906103749190611bc6565b610b2f565b005b34801561038757600080fd5b50610390610c6b565b60405161039d9190611c3b565b60405180910390f35b3480156103b257600080fd5b506103bb610d24565b005b3480156103c957600080fd5b506103d2610dac565b6040516103df9190611834565b60405180910390f35b3480156103f457600080fd5b5061040f600480360381019061040a91906117c6565b610dd6565b60405161041e93929190611c56565b60405180910390f35b34801561043357600080fd5b5061044e60048036038101906104499190611a93565b610e10565b60405161045b9190611af6565b60405180910390f35b34801561047057600080fd5b5061048b60048036038101906104869190611a93565b610e28565b005b34801561049957600080fd5b506104a2610f1f565b6040516104af9190611af6565b60405180910390f35b3480156104c457600080fd5b506104cd610f25565b6040516104da9190611d04565b60405180910390f35b60ca81815481106104f357600080fd5b906000526020600020016000915054906101000a900473ffffffffffffffffffffffffffffffffffffffff1681565b60cc60009054906101000a900460ff1681565b600060019054906101000a900460ff1661055d5760008054906101000a900460ff1615610566565b610565610f81565b5b6105a5576040517f08c379a000000000000000000000000000000000000000000000000000000000815260040161059c90611d98565b60405180910390fd5b60008060019054906101000a900460ff1615905080156105f5576001600060016101000a81548160ff02191690831515021790555060016000806101000a81548160ff0219169083151502179055505b6000835111610639576040517f08c379a000000000000000000000000000000000000000000000000000000000815260040161063090611e04565b60405180910390fd5b60008260ff16118015610650575082518260ff1611155b61068f576040517f08c379a000000000000000000000000000000000000000000000000000000000815260040161068690611e70565b60405180910390fd5b610697610f92565b61069f610feb565b60005b83518110156108dd57600073ffffffffffffffffffffffffffffffffffffffff168482815181106106d6576106d5611e90565b5b602002602001015173ffffffffffffffffffffffffffffffffffffffff1603610734576040517f08c379a000000000000000000000000000000000000000000000000000000000815260040161072b90611f0b565b60405180910390fd5b60cb600085838151811061074b5761074a611e90565b5b602002602001015173ffffffffffffffffffffffffffffffffffffffff1673ffffffffffffffffffffffffffffffffffffffff16815260200190815260200160002060009054906101000a900460ff16156107db576040517f08c379a00000000000000000000000000000000000000000000000000000000081526004016107d290611f77565b60405180910390fd5b60ca8482815181106107f0576107ef611e90565b5b60200260200101519080600181540180825580915050600190039060005260206000200160009091909190916101000a81548173ffffffffffffffffffffffffffffffffffffffff021916908373ffffffffffffffffffffffffffffffffffffffff160217905550600160cb600086848151811061087157610870611e90565b5b602002602001015173ffffffffffffffffffffffffffffffffffffffff1673ffffffffffffffffffffffffffffffffffffffff16815260200190815260200160002060006101000a81548160ff02191690831515021790555080806108d590611f97565b9150506106a2565b508160cc60006101000a81548160ff021916908360ff1602179055503373ffffffffffffffffffffffffffffffffffffffff167fe981d41cfcc707f2fa59586347099614ffa99754751f6000ade1fbd3514ebd4d84846040516109419291906120d8565b60405180910390a2801561096a5760008060016101000a81548160ff0219169083151502179055505b505050565b60cb6020528060005260406000206000915054906101000a900460ff1681565b7f000000000000000000000000000000000000000000000000000000000000000073ffffffffffffffffffffffffffffffffffffffff163073ffffffffffffffffffffffffffffffffffffffff1603610a1d576040517f08c379a0000000000000000000000000000000000000000000000000000000008152600401610a149061217a565b60405180910390fd5b7f000000000000000000000000000000000000000000000000000000000000000073ffffffffffffffffffffffffffffffffffffffff16610a5c61103c565b73ffffffffffffffffffffffffffffffffffffffff1614610ab2576040517f08c379a0000000000000000000000000000000000000000000000000000000008152600401610aa99061220c565b60405180910390fd5b610abb81611093565b610b1481600067ffffffffffffffff811115610ada57610ad961189c565b5b6040519080825280601f01601f191660200182016040528015610b0c5781602001600182028036833780820191505090505b506000611112565b50565b60cf6020528060005260406000206000915090505481565b7f000000000000000000000000000000000000000000000000000000000000000073ffffffffffffffffffffffffffffffffffffffff163073ffffffffffffffffffffffffffffffffffffffff1603610bbd576040517f08c379a0000000000000000000000000000000000000000000000000000000008152600401610bb49061217a565b60405180910390fd5b7f000000000000000000000000000000000000000000000000000000000000000073ffffffffffffffffffffffffffffffffffffffff16610bfc61103c565b73ffffffffffffffffffffffffffffffffffffffff1614610c52576040517f08c379a0000000000000000000000000000000000000000000000000000000008152600401610c499061220c565b60405180910390fd5b610c5b82611093565b610c6782826001611112565b5050565b60007f000000000000000000000000000000000000000000000000000000000000000073ffffffffffffffffffffffffffffffffffffffff163073ffffffffffffffffffffffffffffffffffffffff1614610cfb576040517f08c379a0000000000000000000000000000000000000000000000000000000008152600401610cf29061229e565b60405180910390fd5b7f360894a13ba1a3210667c828492db98dca3e2076cc3735a920a3ca505d382bbc60001b905090565b610d2c611280565b73ffffffffffffffffffffffffffffffffffffffff16610d4a610dac565b73ffffffffffffffffffffffffffffffffffffffff1614610da0576040517f08c379a0000000000000000000000000000000000000000000000000000000008152600401610d979061230a565b60405180910390fd5b610daa6000611288565b565b6000609760009054906101000a900473ffffffffffffffffffffffffffffffffffffffff16905090565b60c98181548110610de657600080fd5b90600052602060002090600402016000915090508060000154908060010154908060020154905083565b60cd6020528060005260406000206000915090505481565b610e30611280565b73ffffffffffffffffffffffffffffffffffffffff16610e4e610dac565b73ffffffffffffffffffffffffffffffffffffffff1614610ea4576040517f08c379a0000000000000000000000000000000000000000000000000000000008152600401610e9b9061230a565b60405180910390fd5b600073ffffffffffffffffffffffffffffffffffffffff168173ffffffffffffffffffffffffffffffffffffffff1603610f13576040517f08c379a0000000000000000000000000000000000000000000000000000000008152600401610f0a9061239c565b60405180910390fd5b610f1c81611288565b50565b60ce5481565b6040518060400160405280600581526020017f302e302e3100000000000000000000000000000000000000000000000000000081525081565b6000808273ffffffffffffffffffffffffffffffffffffffff163b119050919050565b6000610f8c30610f5e565b15905090565b600060019054906101000a900460ff16610fe1576040517f08c379a0000000000000000000000000000000000000000000000000000000008152600401610fd89061242e565b60405180910390fd5b610fe961134e565b565b600060019054906101000a900460ff1661103a576040517f08c379a00000000000000000000000000000000000000000000000000000000081526004016110319061242e565b60405180910390fd5b565b600061106a7f360894a13ba1a3210667c828492db98dca3e2076cc3735a920a3ca505d382bbc60001b6113af565b60000160009054906101000a900473ffffffffffffffffffffffffffffffffffffffff16905090565b61109b611280565b73ffffffffffffffffffffffffffffffffffffffff166110b9610dac565b73ffffffffffffffffffffffffffffffffffffffff161461110f576040517f08c379a00000000000000000000000000000000000000000000000000000000081526004016111069061230a565b60405180910390fd5b50565b61113e7f4910fdfa16fed3260ed0e7147f7cc6da11a60208b5b9406d12a635614ffd914360001b6113b9565b60000160009054906101000a900460ff16156111625761115d836113c3565b61127b565b8273ffffffffffffffffffffffffffffffffffffffff166352d1902d6040518163ffffffff1660e01b8152600401602060405180830381865afa9250505080156111ca57506040513d601f19601f820116820180604052508101906111c7919061247a565b60015b611209576040517f08c379a000000000000000000000000000000000000000000000000000000000815260040161120090612519565b60405180910390fd5b7f360894a13ba1a3210667c828492db98dca3e2076cc3735a920a3ca505d382bbc60001b811461126e576040517f08c379a0000000000000000000000000000000000000000000000000000000008152600401611265906125ab565b60405180910390fd5b5061127a83838361147c565b5b505050565b600033905090565b6000609760009054906101000a900473ffffffffffffffffffffffffffffffffffffffff16905081609760006101000a81548173ffffffffffffffffffffffffffffffffffffffff021916908373ffffffffffffffffffffffffffffffffffffffff1602179055508173ffffffffffffffffffffffffffffffffffffffff168173ffffffffffffffffffffffffffffffffffffffff167f8be0079c531659141344cd1fd0a4f28419497f9722a3daafe3b4186f6b6457e060405160405180910390a35050565b600060019054906101000a900460ff1661139d576040517f08c379a00000000000000000000000000000000000000000000000000000000081526004016113949061242e565b60405180910390fd5b6113ad6113a8611280565b611288565b565b6000819050919050565b6000819050919050565b6113cc81610f5e565b61140b576040517f08c379a00000000000000000000000000000000000000000000000000000000081526004016114029061263d565b60405180910390fd5b806114387f360894a13ba1a3210667c828492db98dca3e2076cc3735a920a3ca505d382bbc60001b6113af565b60000160006101000a81548173ffffffffffffffffffffffffffffffffffffffff021916908373ffffffffffffffffffffffffffffffffffffffff16021790555050565b611485836114a8565b6000825111806114925750805b156114a3576114a183836114f7565b505b505050565b6114b1816113c3565b8073ffffffffffffffffffffffffffffffffffffffff167fbc7cd75a20ee27fd9adebab32041f755214dbc6bffa90cc0225b39da2e5c2d3b60405160405180910390a250565b606061150283610f5e565b611541576040517f08c379a0000000000000000000000000000000000000000000000000000000008152600401611538906126cf565b60405180910390fd5b6000808473ffffffffffffffffffffffffffffffffffffffff16846040516115699190612736565b600060405180830381855af49150503d80600081146115a4576040519150601f19603f3d011682016040523d82523d6000602084013e6115a9565b606091505b50915091506115d1828260405180606001604052806027815260200161274e602791396115db565b9250505092915050565b606083156115eb5782905061163b565b6000835111156115fe5782518084602001fd5b816040517f08c379a00000000000000000000000000000000000000000000000000000000081526004016116329190611d04565b60405180910390fd5b9392505050565b600082825260208201905092915050565b7f6e6f7420616e206f776e65720000000000000000000000000000000000000000600082015250565b6000611689600c83611642565b915061169482611653565b602082019050919050565b600060208201905081810360008301526116b88161167c565b9050919050565b6000819050919050565b7f4e487b7100000000000000000000000000000000000000000000000000000000600052601160045260246000fd5b6000611703826116bf565b915061170e836116bf565b9250827fffffffffffffffffffffffffffffffffffffffffffffffffffffffffffffffff03821115611743576117426116c9565b5b828201905092915050565b611757816116bf565b82525050565b6000604082019050611772600083018561174e565b61177f602083018461174e565b9392505050565b6000604051905090565b600080fd5b600080fd5b6117a3816116bf565b81146117ae57600080fd5b50565b6000813590506117c08161179a565b92915050565b6000602082840312156117dc576117db611790565b5b60006117ea848285016117b1565b91505092915050565b600073ffffffffffffffffffffffffffffffffffffffff82169050919050565b600061181e826117f3565b9050919050565b61182e81611813565b82525050565b60006020820190506118496000830184611825565b92915050565b600060ff82169050919050565b6118658161184f565b82525050565b6000602082019050611880600083018461185c565b92915050565b600080fd5b6000601f19601f8301169050919050565b7f4e487b7100000000000000000000000000000000000000000000000000000000600052604160045260246000fd5b6118d48261188b565b810181811067ffffffffffffffff821117156118f3576118f261189c565b5b80604052505050565b6000611906611786565b905061191282826118cb565b919050565b600067ffffffffffffffff8211156119325761193161189c565b5b602082029050602081019050919050565b600080fd5b61195181611813565b811461195c57600080fd5b50565b60008135905061196e81611948565b92915050565b600061198761198284611917565b6118fc565b905080838252602082019050602084028301858111156119aa576119a9611943565b5b835b818110156119d357806119bf888261195f565b8452602084019350506020810190506119ac565b5050509392505050565b600082601f8301126119f2576119f1611886565b5b8135611a02848260208601611974565b91505092915050565b611a148161184f565b8114611a1f57600080fd5b50565b600081359050611a3181611a0b565b92915050565b60008060408385031215611a4e57611a4d611790565b5b600083013567ffffffffffffffff811115611a6c57611a6b611795565b5b611a78858286016119dd565b9250506020611a8985828601611a22565b9150509250929050565b600060208284031215611aa957611aa8611790565b5b6000611ab78482850161195f565b91505092915050565b60008115159050919050565b611ad581611ac0565b82525050565b6000602082019050611af06000830184611acc565b92915050565b6000602082019050611b0b600083018461174e565b92915050565b600080fd5b600067ffffffffffffffff821115611b3157611b3061189c565b5b611b3a8261188b565b9050602081019050919050565b82818337600083830152505050565b6000611b69611b6484611b16565b6118fc565b905082815260208101848484011115611b8557611b84611b11565b5b611b90848285611b47565b509392505050565b600082601f830112611bad57611bac611886565b5b8135611bbd848260208601611b56565b91505092915050565b60008060408385031215611bdd57611bdc611790565b5b6000611beb8582860161195f565b925050602083013567ffffffffffffffff811115611c0c57611c0b611795565b5b611c1885828601611b98565b9150509250929050565b6000819050919050565b611c3581611c22565b82525050565b6000602082019050611c506000830184611c2c565b92915050565b6000606082019050611c6b600083018661174e565b611c78602083018561174e565b611c85604083018461174e565b949350505050565b600081519050919050565b60005b83811015611cb6578082015181840152602081019050611c9b565b83811115611cc5576000848401525b50505050565b6000611cd682611c8d565b611ce08185611642565b9350611cf0818560208601611c98565b611cf98161188b565b840191505092915050565b60006020820190508181036000830152611d1e8184611ccb565b905092915050565b7f496e697469616c697a61626c653a20636f6e747261637420697320616c72656160008201527f647920696e697469616c697a6564000000000000000000000000000000000000602082015250565b6000611d82602e83611642565b9150611d8d82611d26565b604082019050919050565b60006020820190508181036000830152611db181611d75565b9050919050565b7f6f776e6572732072657175697265640000000000000000000000000000000000600082015250565b6000611dee600f83611642565b9150611df982611db8565b602082019050919050565b60006020820190508181036000830152611e1d81611de1565b9050919050565b7f636f6e6669726d6174696f6e206e756d62657220696e76616c69640000000000600082015250565b6000611e5a601b83611642565b9150611e6582611e24565b602082019050919050565b60006020820190508181036000830152611e8981611e4d565b9050919050565b7f4e487b7100000000000000000000000000000000000000000000000000000000600052603260045260246000fd5b7f6f776e6572206973206164647265737328302900000000000000000000000000600082015250565b6000611ef5601383611642565b9150611f0082611ebf565b602082019050919050565b60006020820190508181036000830152611f2481611ee8565b9050919050565b7f6f776e657220697320616c7265616479206c6973746564000000000000000000600082015250565b6000611f61601783611642565b9150611f6c82611f2b565b602082019050919050565b60006020820190508181036000830152611f9081611f54565b9050919050565b6000611fa2826116bf565b91507fffffffffffffffffffffffffffffffffffffffffffffffffffffffffffffffff8203611fd457611fd36116c9565b5b600182019050919050565b600081519050919050565b600082825260208201905092915050565b6000819050602082019050919050565b61201481611813565b82525050565b6000612026838361200b565b60208301905092915050565b6000602082019050919050565b600061204a82611fdf565b6120548185611fea565b935061205f83611ffb565b8060005b83811015612090578151612077888261201a565b975061208283612032565b925050600181019050612063565b5085935050505092915050565b6000819050919050565b60006120c26120bd6120b88461184f565b61209d565b6116bf565b9050919050565b6120d2816120a7565b82525050565b600060408201905081810360008301526120f2818561203f565b905061210160208301846120c9565b9392505050565b7f46756e6374696f6e206d7573742062652063616c6c6564207468726f7567682060008201527f64656c656761746563616c6c0000000000000000000000000000000000000000602082015250565b6000612164602c83611642565b915061216f82612108565b604082019050919050565b6000602082019050818103600083015261219381612157565b9050919050565b7f46756e6374696f6e206d7573742062652063616c6c6564207468726f7567682060008201527f6163746976652070726f78790000000000000000000000000000000000000000602082015250565b60006121f6602c83611642565b91506122018261219a565b604082019050919050565b60006020820190508181036000830152612225816121e9565b9050919050565b7f555550535570677261646561626c653a206d757374206e6f742062652063616c60008201527f6c6564207468726f7567682064656c656761746563616c6c0000000000000000602082015250565b6000612288603883611642565b91506122938261222c565b604082019050919050565b600060208201905081810360008301526122b78161227b565b9050919050565b7f4f776e61626c653a2063616c6c6572206973206e6f7420746865206f776e6572600082015250565b60006122f4602083611642565b91506122ff826122be565b602082019050919050565b60006020820190508181036000830152612323816122e7565b9050919050565b7f4f776e61626c653a206e6577206f776e657220697320746865207a65726f206160008201527f6464726573730000000000000000000000000000000000000000000000000000602082015250565b6000612386602683611642565b91506123918261232a565b604082019050919050565b600060208201905081810360008301526123b581612379565b9050919050565b7f496e697469616c697a61626c653a20636f6e7472616374206973206e6f74206960008201527f6e697469616c697a696e67000000000000000000000000000000000000000000602082015250565b6000612418602b83611642565b9150612423826123bc565b604082019050919050565b600060208201905081810360008301526124478161240b565b9050919050565b61245781611c22565b811461246257600080fd5b50565b6000815190506124748161244e565b92915050565b6000602082840312156124905761248f611790565b5b600061249e84828501612465565b91505092915050565b7f45524331393637557067726164653a206e657720696d706c656d656e7461746960008201527f6f6e206973206e6f742055555053000000000000000000000000000000000000602082015250565b6000612503602e83611642565b915061250e826124a7565b604082019050919050565b60006020820190508181036000830152612532816124f6565b9050919050565b7f45524331393637557067726164653a20756e737570706f727465642070726f7860008201527f6961626c65555549440000000000000000000000000000000000000000000000602082015250565b6000612595602983611642565b91506125a082612539565b604082019050919050565b600060208201905081810360008301526125c481612588565b9050919050565b7f455243313936373a206e657720696d706c656d656e746174696f6e206973206e60008201527f6f74206120636f6e747261637400000000000000000000000000000000000000602082015250565b6000612627602d83611642565b9150612632826125cb565b604082019050919050565b600060208201905081810360008301526126568161261a565b9050919050565b7f416464726573733a2064656c65676174652063616c6c20746f206e6f6e2d636f60008201527f6e74726163740000000000000000000000000000000000000000000000000000602082015250565b60006126b9602683611642565b91506126c48261265d565b604082019050919050565b600060208201905081810360008301526126e8816126ac565b9050919050565b600081519050919050565b600081905092915050565b6000612710826126ef565b61271a81856126fa565b935061272a818560208601611c98565b80840191505092915050565b60006127428284612705565b91508190509291505056fe416464726573733a206c6f772d6c6576656c2064656c65676174652063616c6c206661696c6564a26469706673582212203373a104b483004386883aba99b6ccba3fc453376a6a9339f43d449ce388480f64736f6c634300080d0033",
  "linkReferences": {},
  "deployedLinkReferences": {}
}