{
  "_format": "hh-sol-artifact-1",
  "contractName": "Common",
  "sourceName": "contracts/Common.sol",
  "abi": [
    {
      "anonymous": false,
      "inputs": [
        {
          "indexed": true,
          "internalType": "address",
          "name": "previousOwner",
          "type": "address"
        },
        {
          "indexed": true,
          "internalType": "address",
          "name": "newOwner",
          "type": "address"
        }
      ],
      "name": "OwnershipTransferred",
      "type": "event"
    },
    {
      "anonymous": false,
      "inputs": [
        {
          "indexed": false,
          "internalType": "uint256",
          "name": "proposalId",
          "type": "uint256"
        }
      ],
      "name": "ProposalRegistered",
      "type": "event"
    },
    {
      "anonymous": false,
      "inputs": [
        {
          "indexed": false,
          "internalType": "address",
          "name": "voter",
          "type": "address"
        },
        {
          "indexed": false,
          "internalType": "uint256",
          "name": "proposalId",
          "type": "uint256"
        }
      ],
      "name": "Voted",
      "type": "event"
    },
    {
      "anonymous": false,
      "inputs": [
        {
          "indexed": false,
          "internalType": "address",
          "name": "voterAddress",
          "type": "address"
        }
      ],
      "name": "VoterRegistered",
      "type": "event"
    },
    {
      "anonymous": false,
      "inputs": [
        {
          "indexed": false,
          "internalType": "enum Common.WorkflowStatus",
          "name": "previousStatus",
          "type": "uint8"
        },
        {
          "indexed": false,
          "internalType": "enum Common.WorkflowStatus",
          "name": "newStatus",
          "type": "uint8"
        }
      ],
      "name": "WorkflowStatusChange",
      "type": "event"
    },
    {
      "inputs": [],
      "name": "defaultWorkflowStatus",
      "outputs": [
        {
          "internalType": "enum Common.WorkflowStatus",
          "name": "",
          "type": "uint8"
        }
      ],
      "stateMutability": "view",
      "type": "function"
    },
    {
      "inputs": [],
      "name": "owner",
      "outputs": [
        {
          "internalType": "address",
          "name": "",
          "type": "address"
        }
      ],
      "stateMutability": "view",
      "type": "function"
    },
    {
      "inputs": [
        {
          "internalType": "uint256",
          "name": "",
          "type": "uint256"
        }
      ],
      "name": "proposals",
      "outputs": [
        {
          "internalType": "string",
          "name": "description",
          "type": "string"
        },
        {
          "internalType": "uint256",
          "name": "voteCount",
          "type": "uint256"
        }
      ],
      "stateMutability": "view",
      "type": "function"
    },
    {
      "inputs": [],
      "name": "renounceOwnership",
      "outputs": [],
      "stateMutability": "nonpayable",
      "type": "function"
    },
    {
      "inputs": [
        {
          "internalType": "address",
          "name": "newOwner",
          "type": "address"
        }
      ],
      "name": "transferOwnership",
      "outputs": [],
      "stateMutability": "nonpayable",
      "type": "function"
    }
  ],
  "bytecode": "0x60806040526000600460006101000a81548160ff0219169083600581111561002a57610029610129565b5b021790555034801561003b57600080fd5b5061005861004d61005d60201b60201c565b61006560201b60201c565b610158565b600033905090565b60008060009054906101000a900473ffffffffffffffffffffffffffffffffffffffff169050816000806101000a81548173ffffffffffffffffffffffffffffffffffffffff021916908373ffffffffffffffffffffffffffffffffffffffff1602179055508173ffffffffffffffffffffffffffffffffffffffff168173ffffffffffffffffffffffffffffffffffffffff167f8be0079c531659141344cd1fd0a4f28419497f9722a3daafe3b4186f6b6457e060405160405180910390a35050565b7f4e487b7100000000000000000000000000000000000000000000000000000000600052602160045260246000fd5b61084d806101676000396000f3fe608060405234801561001057600080fd5b50600436106100575760003560e01c8063013cf08b1461005c578063715018a61461008d5780638da5cb5b14610097578063c21bc904146100b5578063f2fde38b146100d3575b600080fd5b6100766004803603810190610071919061046d565b6100ef565b604051610084929190610542565b60405180910390f35b6100956101ab565b005b61009f610233565b6040516100ac91906105b3565b60405180910390f35b6100bd61025c565b6040516100ca9190610645565b60405180910390f35b6100ed60048036038101906100e8919061068c565b61026f565b005b600281815481106100ff57600080fd5b9060005260206000209060020201600091509050806000018054610122906106e8565b80601f016020809104026020016040519081016040528092919081815260200182805461014e906106e8565b801561019b5780601f106101705761010080835404028352916020019161019b565b820191906000526020600020905b81548152906001019060200180831161017e57829003601f168201915b5050505050908060010154905082565b6101b3610366565b73ffffffffffffffffffffffffffffffffffffffff166101d1610233565b73ffffffffffffffffffffffffffffffffffffffff1614610227576040517f08c379a000000000000000000000000000000000000000000000000000000000815260040161021e90610765565b60405180910390fd5b610231600061036e565b565b60008060009054906101000a900473ffffffffffffffffffffffffffffffffffffffff16905090565b600460009054906101000a900460ff1681565b610277610366565b73ffffffffffffffffffffffffffffffffffffffff16610295610233565b73ffffffffffffffffffffffffffffffffffffffff16146102eb576040517f08c379a00000000000000000000000000000000000000000000000000000000081526004016102e290610765565b60405180910390fd5b600073ffffffffffffffffffffffffffffffffffffffff168173ffffffffffffffffffffffffffffffffffffffff160361035a576040517f08c379a0000000000000000000000000000000000000000000000000000000008152600401610351906107f7565b60405180910390fd5b6103638161036e565b50565b600033905090565b60008060009054906101000a900473ffffffffffffffffffffffffffffffffffffffff169050816000806101000a81548173ffffffffffffffffffffffffffffffffffffffff021916908373ffffffffffffffffffffffffffffffffffffffff1602179055508173ffffffffffffffffffffffffffffffffffffffff168173ffffffffffffffffffffffffffffffffffffffff167f8be0079c531659141344cd1fd0a4f28419497f9722a3daafe3b4186f6b6457e060405160405180910390a35050565b600080fd5b6000819050919050565b61044a81610437565b811461045557600080fd5b50565b60008135905061046781610441565b92915050565b60006020828403121561048357610482610432565b5b600061049184828501610458565b91505092915050565b600081519050919050565b600082825260208201905092915050565b60005b838110156104d45780820151818401526020810190506104b9565b838111156104e3576000848401525b50505050565b6000601f19601f8301169050919050565b60006105058261049a565b61050f81856104a5565b935061051f8185602086016104b6565b610528816104e9565b840191505092915050565b61053c81610437565b82525050565b6000604082019050818103600083015261055c81856104fa565b905061056b6020830184610533565b9392505050565b600073ffffffffffffffffffffffffffffffffffffffff82169050919050565b600061059d82610572565b9050919050565b6105ad81610592565b82525050565b60006020820190506105c860008301846105a4565b92915050565b7f4e487b7100000000000000000000000000000000000000000000000000000000600052602160045260246000fd5b6006811061060e5761060d6105ce565b5b50565b600081905061061f826105fd565b919050565b600061062f82610611565b9050919050565b61063f81610624565b82525050565b600060208201905061065a6000830184610636565b92915050565b61066981610592565b811461067457600080fd5b50565b60008135905061068681610660565b92915050565b6000602082840312156106a2576106a1610432565b5b60006106b084828501610677565b91505092915050565b7f4e487b7100000000000000000000000000000000000000000000000000000000600052602260045260246000fd5b6000600282049050600182168061070057607f821691505b602082108103610713576107126106b9565b5b50919050565b7f4f776e61626c653a2063616c6c6572206973206e6f7420746865206f776e6572600082015250565b600061074f6020836104a5565b915061075a82610719565b602082019050919050565b6000602082019050818103600083015261077e81610742565b9050919050565b7f4f776e61626c653a206e6577206f776e657220697320746865207a65726f206160008201527f6464726573730000000000000000000000000000000000000000000000000000602082015250565b60006107e16026836104a5565b91506107ec82610785565b604082019050919050565b60006020820190508181036000830152610810816107d4565b905091905056fea264697066735822122043538257076fff17af23dfce76449300025a725db98ac7c1f488fc47f7c7f32764736f6c634300080d0033",
  "linkReferences": {},
  "deployedLinkReferences": {}
}