{
  "_format": "hh-sol-artifact-1",
  "contractName": "TestNoNestedStruc",
  "sourceName": "contracts/test.sol",
  "abi": [
    {
      "inputs": [
        {
          "internalType": "uint256",
          "name": "",
          "type": "uint256"
        },
        {
          "internalType": "address",
          "name": "",
          "type": "address"
        }
      ],
      "name": "isSigned",
      "outputs": [
        {
          "internalType": "bool",
          "name": "",
          "type": "bool"
        }
      ],
      "stateMutability": "view",
      "type": "function"
    },
    {
      "inputs": [
        {
          "internalType": "uint256",
          "name": "",
          "type": "uint256"
        },
        {
          "internalType": "address",
          "name": "",
          "type": "address"
        },
        {
          "internalType": "uint256",
          "name": "",
          "type": "uint256"
        }
      ],
      "name": "items721",
      "outputs": [
        {
          "internalType": "uint256",
          "name": "",
          "type": "uint256"
        }
      ],
      "stateMutability": "view",
      "type": "function"
    },
    {
      "inputs": [
        {
          "internalType": "uint256",
          "name": "",
          "type": "uint256"
        }
      ],
      "name": "pockets",
      "outputs": [
        {
          "internalType": "address",
          "name": "to",
          "type": "address"
        },
        {
          "internalType": "bytes",
          "name": "data",
          "type": "bytes"
        },
        {
          "internalType": "enum TestNoNestedStruc.PocketStatus",
          "name": "pStatus",
          "type": "uint8"
        },
        {
          "internalType": "uint256",
          "name": "totalAmount",
          "type": "uint256"
        }
      ],
      "stateMutability": "view",
      "type": "function"
    },
    {
      "inputs": [
        {
          "internalType": "address",
          "name": "_to",
          "type": "address"
        },
        {
          "internalType": "bytes",
          "name": "_data",
          "type": "bytes"
        },
        {
          "internalType": "uint256",
          "name": "_totalAmount",
          "type": "uint256"
        },
        {
          "internalType": "address[]",
          "name": "_users",
          "type": "address[]"
        },
        {
          "internalType": "uint256[]",
          "name": "_sharePerUser",
          "type": "uint256[]"
        }
      ],
      "name": "proposePocket",
      "outputs": [],
      "stateMutability": "nonpayable",
      "type": "function"
    },
    {
      "inputs": [
        {
          "internalType": "uint256",
          "name": "",
          "type": "uint256"
        },
        {
          "internalType": "address",
          "name": "",
          "type": "address"
        }
      ],
      "name": "sharePerUser",
      "outputs": [
        {
          "internalType": "uint256",
          "name": "",
          "type": "uint256"
        }
      ],
      "stateMutability": "view",
      "type": "function"
    }
  ],
  "bytecode": "0x608060405234801561001057600080fd5b50610d1d806100206000396000f3fe608060405234801561001057600080fd5b50600436106100575760003560e01c80630be6aa5d1461005c5780633e6d21fa1461008c57806381389add146100bc5780638fe371d2146100d8578063ea9ce58a1461010b575b600080fd5b610076600480360381019061007191906105d9565b61013b565b6040516100839190610628565b60405180910390f35b6100a660048036038101906100a191906105d9565b610160565b6040516100b3919061065e565b60405180910390f35b6100d660048036038101906100d1919061094a565b61018f565b005b6100f260048036038101906100ed9190610a19565b610367565b6040516101029493929190610b54565b60405180910390f35b61012560048036038101906101209190610ba0565b61045c565b6040516101329190610628565b60405180910390f35b6002602052816000526040600020602052806000526040600020600091509150505481565b60016020528160005260406000206020528060005260406000206000915091509054906101000a900460ff1681565b600080805490509050600060405180608001604052808873ffffffffffffffffffffffffffffffffffffffff168152602001878152602001600060028111156101db576101da610add565b5b815260200186815250908060018154018082558091505060019003906000526020600020906004020160009091909190915060008201518160000160006101000a81548173ffffffffffffffffffffffffffffffffffffffff021916908373ffffffffffffffffffffffffffffffffffffffff160217905550602082015181600101908051906020019061027092919061048e565b5060408201518160020160006101000a81548160ff0219169083600281111561029c5761029b610add565b5b021790555060608201518160030155505060005b83518160ff16101561035e57828160ff16815181106102d2576102d1610bf3565b5b6020026020010151600260008481526020019081526020016000206000868460ff168151811061030557610304610bf3565b5b602002602001015173ffffffffffffffffffffffffffffffffffffffff1673ffffffffffffffffffffffffffffffffffffffff16815260200190815260200160002081905550808061035690610c5e565b9150506102b0565b50505050505050565b6000818154811061037757600080fd5b90600052602060002090600402016000915090508060000160009054906101000a900473ffffffffffffffffffffffffffffffffffffffff16908060010180546103c090610cb6565b80601f01602080910402602001604051908101604052809291908181526020018280546103ec90610cb6565b80156104395780601f1061040e57610100808354040283529160200191610439565b820191906000526020600020905b81548152906001019060200180831161041c57829003601f168201915b5050505050908060020160009054906101000a900460ff16908060030154905084565b600360205282600052604060002060205281600052604060002060205280600052604060002060009250925050505481565b82805461049a90610cb6565b90600052602060002090601f0160209004810192826104bc5760008555610503565b82601f106104d557805160ff1916838001178555610503565b82800160010185558215610503579182015b828111156105025782518255916020019190600101906104e7565b5b5090506105109190610514565b5090565b5b8082111561052d576000816000905550600101610515565b5090565b6000604051905090565b600080fd5b600080fd5b6000819050919050565b61055881610545565b811461056357600080fd5b50565b6000813590506105758161054f565b92915050565b600073ffffffffffffffffffffffffffffffffffffffff82169050919050565b60006105a68261057b565b9050919050565b6105b68161059b565b81146105c157600080fd5b50565b6000813590506105d3816105ad565b92915050565b600080604083850312156105f0576105ef61053b565b5b60006105fe85828601610566565b925050602061060f858286016105c4565b9150509250929050565b61062281610545565b82525050565b600060208201905061063d6000830184610619565b92915050565b60008115159050919050565b61065881610643565b82525050565b6000602082019050610673600083018461064f565b92915050565b600080fd5b600080fd5b6000601f19601f8301169050919050565b7f4e487b7100000000000000000000000000000000000000000000000000000000600052604160045260246000fd5b6106cc82610683565b810181811067ffffffffffffffff821117156106eb576106ea610694565b5b80604052505050565b60006106fe610531565b905061070a82826106c3565b919050565b600067ffffffffffffffff82111561072a57610729610694565b5b61073382610683565b9050602081019050919050565b82818337600083830152505050565b600061076261075d8461070f565b6106f4565b90508281526020810184848401111561077e5761077d61067e565b5b610789848285610740565b509392505050565b600082601f8301126107a6576107a5610679565b5b81356107b684826020860161074f565b91505092915050565b600067ffffffffffffffff8211156107da576107d9610694565b5b602082029050602081019050919050565b600080fd5b60006108036107fe846107bf565b6106f4565b90508083825260208201905060208402830185811115610826576108256107eb565b5b835b8181101561084f578061083b88826105c4565b845260208401935050602081019050610828565b5050509392505050565b600082601f83011261086e5761086d610679565b5b813561087e8482602086016107f0565b91505092915050565b600067ffffffffffffffff8211156108a2576108a1610694565b5b602082029050602081019050919050565b60006108c66108c184610887565b6106f4565b905080838252602082019050602084028301858111156108e9576108e86107eb565b5b835b8181101561091257806108fe8882610566565b8452602084019350506020810190506108eb565b5050509392505050565b600082601f83011261093157610930610679565b5b81356109418482602086016108b3565b91505092915050565b600080600080600060a086880312156109665761096561053b565b5b6000610974888289016105c4565b955050602086013567ffffffffffffffff81111561099557610994610540565b5b6109a188828901610791565b94505060406109b288828901610566565b935050606086013567ffffffffffffffff8111156109d3576109d2610540565b5b6109df88828901610859565b925050608086013567ffffffffffffffff811115610a00576109ff610540565b5b610a0c8882890161091c565b9150509295509295909350565b600060208284031215610a2f57610a2e61053b565b5b6000610a3d84828501610566565b91505092915050565b610a4f8161059b565b82525050565b600081519050919050565b600082825260208201905092915050565b60005b83811015610a8f578082015181840152602081019050610a74565b83811115610a9e576000848401525b50505050565b6000610aaf82610a55565b610ab98185610a60565b9350610ac9818560208601610a71565b610ad281610683565b840191505092915050565b7f4e487b7100000000000000000000000000000000000000000000000000000000600052602160045260246000fd5b60038110610b1d57610b1c610add565b5b50565b6000819050610b2e82610b0c565b919050565b6000610b3e82610b20565b9050919050565b610b4e81610b33565b82525050565b6000608082019050610b696000830187610a46565b8181036020830152610b7b8186610aa4565b9050610b8a6040830185610b45565b610b976060830184610619565b95945050505050565b600080600060608486031215610bb957610bb861053b565b5b6000610bc786828701610566565b9350506020610bd8868287016105c4565b9250506040610be986828701610566565b9150509250925092565b7f4e487b7100000000000000000000000000000000000000000000000000000000600052603260045260246000fd5b7f4e487b7100000000000000000000000000000000000000000000000000000000600052601160045260246000fd5b600060ff82169050919050565b6000610c6982610c51565b915060ff8203610c7c57610c7b610c22565b5b600182019050919050565b7f4e487b7100000000000000000000000000000000000000000000000000000000600052602260045260246000fd5b60006002820490506001821680610cce57607f821691505b602082108103610ce157610ce0610c87565b5b5091905056fea264697066735822122050a3b9afb42534777cf1d2b1c0d8ec7a0214ffa376353f6dd313661bc8d5141d64736f6c634300080d0033",
  "linkReferences": {},
  "deployedLinkReferences": {}
}