{
  "_format": "hh-sol-artifact-1",
  "contractName": "MyContract",
  "sourceName": "contracts/MyContract.sol",
  "abi": [
    {
      "inputs": [],
      "stateMutability": "nonpayable",
      "type": "constructor"
    },
    {
      "anonymous": false,
      "inputs": [
        {
          "indexed": false,
          "internalType": "address",
          "name": "previousAdmin",
          "type": "address"
        },
        {
          "indexed": false,
          "internalType": "address",
          "name": "newAdmin",
          "type": "address"
        }
      ],
      "name": "AdminChanged",
      "type": "event"
    },
    {
      "anonymous": false,
      "inputs": [
        {
          "indexed": true,
          "internalType": "address",
          "name": "beacon",
          "type": "address"
        }
      ],
      "name": "BeaconUpgraded",
      "type": "event"
    },
    {
      "anonymous": false,
      "inputs": [
        {
          "indexed": true,
          "internalType": "address",
          "name": "previousOwner",
          "type": "address"
        },
        {
          "indexed": true,
          "internalType": "address",
          "name": "newOwner",
          "type": "address"
        }
      ],
      "name": "OwnershipTransferred",
      "type": "event"
    },
    {
      "anonymous": false,
      "inputs": [
        {
          "indexed": true,
          "internalType": "address",
          "name": "implementation",
          "type": "address"
        }
      ],
      "name": "Upgraded",
      "type": "event"
    },
    {
      "inputs": [],
      "name": "VERSION",
      "outputs": [
        {
          "internalType": "string",
          "name": "",
          "type": "string"
        }
      ],
      "stateMutability": "view",
      "type": "function"
    },
    {
      "inputs": [],
      "name": "confirmationNeeded",
      "outputs": [
        {
          "internalType": "uint8",
          "name": "",
          "type": "uint8"
        }
      ],
      "stateMutability": "view",
      "type": "function"
    },
    {
      "inputs": [
        {
          "internalType": "address[]",
          "name": "_owners",
          "type": "address[]"
        },
        {
          "internalType": "uint8",
          "name": "_confirmationNeeded",
          "type": "uint8"
        }
      ],
      "name": "initialize",
      "outputs": [],
      "stateMutability": "nonpayable",
      "type": "function"
    },
    {
      "inputs": [],
      "name": "owner",
      "outputs": [
        {
          "internalType": "address",
          "name": "",
          "type": "address"
        }
      ],
      "stateMutability": "view",
      "type": "function"
    },
    {
      "inputs": [
        {
          "internalType": "uint256",
          "name": "",
          "type": "uint256"
        }
      ],
      "name": "owners",
      "outputs": [
        {
          "internalType": "address",
          "name": "",
          "type": "address"
        }
      ],
      "stateMutability": "view",
      "type": "function"
    },
    {
      "inputs": [],
      "name": "proxiableUUID",
      "outputs": [
        {
          "internalType": "bytes32",
          "name": "",
          "type": "bytes32"
        }
      ],
      "stateMutability": "view",
      "type": "function"
    },
    {
      "inputs": [],
      "name": "renounceOwnership",
      "outputs": [],
      "stateMutability": "nonpayable",
      "type": "function"
    },
    {
      "inputs": [
        {
          "internalType": "address",
          "name": "newOwner",
          "type": "address"
        }
      ],
      "name": "transferOwnership",
      "outputs": [],
      "stateMutability": "nonpayable",
      "type": "function"
    },
    {
      "inputs": [
        {
          "internalType": "address",
          "name": "newImplementation",
          "type": "address"
        }
      ],
      "name": "upgradeTo",
      "outputs": [],
      "stateMutability": "nonpayable",
      "type": "function"
    },
    {
      "inputs": [
        {
          "internalType": "address",
          "name": "newImplementation",
          "type": "address"
        },
        {
          "internalType": "bytes",
          "name": "data",
          "type": "bytes"
        }
      ],
      "name": "upgradeToAndCall",
      "outputs": [],
      "stateMutability": "payable",
      "type": "function"
    }
  ],
  "bytecode": "0x60a06040523073ffffffffffffffffffffffffffffffffffffffff1660809073ffffffffffffffffffffffffffffffffffffffff168152503480156200004457600080fd5b50600060019054906101000a900460ff166200006f5760008054906101000a900460ff161562000080565b6200007f6200013c60201b60201c565b5b620000c2576040517f08c379a0000000000000000000000000000000000000000000000000000000008152600401620000b99062000204565b60405180910390fd5b60008060019054906101000a900460ff16159050801562000113576001600060016101000a81548160ff02191690831515021790555060016000806101000a81548160ff0219169083151502179055505b8015620001355760008060016101000a81548160ff0219169083151502179055505b5062000226565b600062000154306200015a60201b6200098c1760201c565b15905090565b6000808273ffffffffffffffffffffffffffffffffffffffff163b119050919050565b600082825260208201905092915050565b7f496e697469616c697a61626c653a20636f6e747261637420697320616c72656160008201527f647920696e697469616c697a6564000000000000000000000000000000000000602082015250565b6000620001ec602e836200017d565b9150620001f9826200018e565b604082019050919050565b600060208201905081810360008301526200021f81620001dd565b9050919050565b608051611d7d6200025e6000396000818161042f015281816104bd015281816105b70152818161064501526106f50152611d7d6000f3fe6080604052600436106100915760003560e01c806352d1902d1161005957806352d1902d1461016c578063715018a6146101975780638da5cb5b146101ae578063f2fde38b146101d9578063ffa1ad741461020257610091565b8063025e7c27146100965780632b9a9f50146100d35780632bbdea4e146100fe5780633659cfe6146101275780634f1ef28614610150575b600080fd5b3480156100a257600080fd5b506100bd60048036038101906100b891906110ba565b61022d565b6040516100ca9190611128565b60405180910390f35b3480156100df57600080fd5b506100e861026c565b6040516100f5919061115f565b60405180910390f35b34801561010a57600080fd5b506101256004803603810190610120919061132b565b61027f565b005b34801561013357600080fd5b5061014e60048036038101906101499190611387565b61042d565b005b61016a60048036038101906101659190611469565b6105b5565b005b34801561017857600080fd5b506101816106f1565b60405161018e91906114de565b60405180910390f35b3480156101a357600080fd5b506101ac6107aa565b005b3480156101ba57600080fd5b506101c3610832565b6040516101d09190611128565b60405180910390f35b3480156101e557600080fd5b5061020060048036038101906101fb9190611387565b61085c565b005b34801561020e57600080fd5b50610217610953565b6040516102249190611581565b60405180910390f35b60ca818154811061023d57600080fd5b906000526020600020016000915054906101000a900473ffffffffffffffffffffffffffffffffffffffff1681565b60c960009054906101000a900460ff1681565b600060019054906101000a900460ff166102a75760008054906101000a900460ff16156102b0565b6102af6109af565b5b6102ef576040517f08c379a00000000000000000000000000000000000000000000000000000000081526004016102e690611615565b60405180910390fd5b60008060019054906101000a900460ff16159050801561033f576001600060016101000a81548160ff02191690831515021790555060016000806101000a81548160ff0219169083151502179055505b6103476109c0565b61034f610a19565b8160c960006101000a81548160ff021916908360ff16021790555060005b83518110156104065760ca84828151811061038b5761038a611635565b5b60200260200101519080600181540180825580915050600190039060005260206000200160009091909190916101000a81548173ffffffffffffffffffffffffffffffffffffffff021916908373ffffffffffffffffffffffffffffffffffffffff16021790555080806103fe90611693565b91505061036d565b5080156104285760008060016101000a81548160ff0219169083151502179055505b505050565b7f000000000000000000000000000000000000000000000000000000000000000073ffffffffffffffffffffffffffffffffffffffff163073ffffffffffffffffffffffffffffffffffffffff16036104bb576040517f08c379a00000000000000000000000000000000000000000000000000000000081526004016104b29061174d565b60405180910390fd5b7f000000000000000000000000000000000000000000000000000000000000000073ffffffffffffffffffffffffffffffffffffffff166104fa610a6a565b73ffffffffffffffffffffffffffffffffffffffff1614610550576040517f08c379a0000000000000000000000000000000000000000000000000000000008152600401610547906117df565b60405180910390fd5b61055981610ac1565b6105b281600067ffffffffffffffff81111561057857610577611190565b5b6040519080825280601f01601f1916602001820160405280156105aa5781602001600182028036833780820191505090505b506000610b40565b50565b7f000000000000000000000000000000000000000000000000000000000000000073ffffffffffffffffffffffffffffffffffffffff163073ffffffffffffffffffffffffffffffffffffffff1603610643576040517f08c379a000000000000000000000000000000000000000000000000000000000815260040161063a9061174d565b60405180910390fd5b7f000000000000000000000000000000000000000000000000000000000000000073ffffffffffffffffffffffffffffffffffffffff16610682610a6a565b73ffffffffffffffffffffffffffffffffffffffff16146106d8576040517f08c379a00000000000000000000000000000000000000000000000000000000081526004016106cf906117df565b60405180910390fd5b6106e182610ac1565b6106ed82826001610b40565b5050565b60007f000000000000000000000000000000000000000000000000000000000000000073ffffffffffffffffffffffffffffffffffffffff163073ffffffffffffffffffffffffffffffffffffffff1614610781576040517f08c379a000000000000000000000000000000000000000000000000000000000815260040161077890611871565b60405180910390fd5b7f360894a13ba1a3210667c828492db98dca3e2076cc3735a920a3ca505d382bbc60001b905090565b6107b2610cae565b73ffffffffffffffffffffffffffffffffffffffff166107d0610832565b73ffffffffffffffffffffffffffffffffffffffff1614610826576040517f08c379a000000000000000000000000000000000000000000000000000000000815260040161081d906118dd565b60405180910390fd5b6108306000610cb6565b565b6000609760009054906101000a900473ffffffffffffffffffffffffffffffffffffffff16905090565b610864610cae565b73ffffffffffffffffffffffffffffffffffffffff16610882610832565b73ffffffffffffffffffffffffffffffffffffffff16146108d8576040517f08c379a00000000000000000000000000000000000000000000000000000000081526004016108cf906118dd565b60405180910390fd5b600073ffffffffffffffffffffffffffffffffffffffff168173ffffffffffffffffffffffffffffffffffffffff1603610947576040517f08c379a000000000000000000000000000000000000000000000000000000000815260040161093e9061196f565b60405180910390fd5b61095081610cb6565b50565b6040518060400160405280600581526020017f302e302e3100000000000000000000000000000000000000000000000000000081525081565b6000808273ffffffffffffffffffffffffffffffffffffffff163b119050919050565b60006109ba3061098c565b15905090565b600060019054906101000a900460ff16610a0f576040517f08c379a0000000000000000000000000000000000000000000000000000000008152600401610a0690611a01565b60405180910390fd5b610a17610d7c565b565b600060019054906101000a900460ff16610a68576040517f08c379a0000000000000000000000000000000000000000000000000000000008152600401610a5f90611a01565b60405180910390fd5b565b6000610a987f360894a13ba1a3210667c828492db98dca3e2076cc3735a920a3ca505d382bbc60001b610ddd565b60000160009054906101000a900473ffffffffffffffffffffffffffffffffffffffff16905090565b610ac9610cae565b73ffffffffffffffffffffffffffffffffffffffff16610ae7610832565b73ffffffffffffffffffffffffffffffffffffffff1614610b3d576040517f08c379a0000000000000000000000000000000000000000000000000000000008152600401610b34906118dd565b60405180910390fd5b50565b610b6c7f4910fdfa16fed3260ed0e7147f7cc6da11a60208b5b9406d12a635614ffd914360001b610de7565b60000160009054906101000a900460ff1615610b9057610b8b83610df1565b610ca9565b8273ffffffffffffffffffffffffffffffffffffffff166352d1902d6040518163ffffffff1660e01b8152600401602060405180830381865afa925050508015610bf857506040513d601f19601f82011682018060405250810190610bf59190611a4d565b60015b610c37576040517f08c379a0000000000000000000000000000000000000000000000000000000008152600401610c2e90611aec565b60405180910390fd5b7f360894a13ba1a3210667c828492db98dca3e2076cc3735a920a3ca505d382bbc60001b8114610c9c576040517f08c379a0000000000000000000000000000000000000000000000000000000008152600401610c9390611b7e565b60405180910390fd5b50610ca8838383610eaa565b5b505050565b600033905090565b6000609760009054906101000a900473ffffffffffffffffffffffffffffffffffffffff16905081609760006101000a81548173ffffffffffffffffffffffffffffffffffffffff021916908373ffffffffffffffffffffffffffffffffffffffff1602179055508173ffffffffffffffffffffffffffffffffffffffff168173ffffffffffffffffffffffffffffffffffffffff167f8be0079c531659141344cd1fd0a4f28419497f9722a3daafe3b4186f6b6457e060405160405180910390a35050565b600060019054906101000a900460ff16610dcb576040517f08c379a0000000000000000000000000000000000000000000000000000000008152600401610dc290611a01565b60405180910390fd5b610ddb610dd6610cae565b610cb6565b565b6000819050919050565b6000819050919050565b610dfa8161098c565b610e39576040517f08c379a0000000000000000000000000000000000000000000000000000000008152600401610e3090611c10565b60405180910390fd5b80610e667f360894a13ba1a3210667c828492db98dca3e2076cc3735a920a3ca505d382bbc60001b610ddd565b60000160006101000a81548173ffffffffffffffffffffffffffffffffffffffff021916908373ffffffffffffffffffffffffffffffffffffffff16021790555050565b610eb383610ed6565b600082511180610ec05750805b15610ed157610ecf8383610f25565b505b505050565b610edf81610df1565b8073ffffffffffffffffffffffffffffffffffffffff167fbc7cd75a20ee27fd9adebab32041f755214dbc6bffa90cc0225b39da2e5c2d3b60405160405180910390a250565b6060610f308361098c565b610f6f576040517f08c379a0000000000000000000000000000000000000000000000000000000008152600401610f6690611ca2565b60405180910390fd5b6000808473ffffffffffffffffffffffffffffffffffffffff1684604051610f979190611d09565b600060405180830381855af49150503d8060008114610fd2576040519150601f19603f3d011682016040523d82523d6000602084013e610fd7565b606091505b5091509150610fff8282604051806060016040528060278152602001611d2160279139611009565b9250505092915050565b6060831561101957829050611069565b60008351111561102c5782518084602001fd5b816040517f08c379a00000000000000000000000000000000000000000000000000000000081526004016110609190611581565b60405180910390fd5b9392505050565b6000604051905090565b600080fd5b600080fd5b6000819050919050565b61109781611084565b81146110a257600080fd5b50565b6000813590506110b48161108e565b92915050565b6000602082840312156110d0576110cf61107a565b5b60006110de848285016110a5565b91505092915050565b600073ffffffffffffffffffffffffffffffffffffffff82169050919050565b6000611112826110e7565b9050919050565b61112281611107565b82525050565b600060208201905061113d6000830184611119565b92915050565b600060ff82169050919050565b61115981611143565b82525050565b60006020820190506111746000830184611150565b92915050565b600080fd5b6000601f19601f8301169050919050565b7f4e487b7100000000000000000000000000000000000000000000000000000000600052604160045260246000fd5b6111c88261117f565b810181811067ffffffffffffffff821117156111e7576111e6611190565b5b80604052505050565b60006111fa611070565b905061120682826111bf565b919050565b600067ffffffffffffffff82111561122657611225611190565b5b602082029050602081019050919050565b600080fd5b61124581611107565b811461125057600080fd5b50565b6000813590506112628161123c565b92915050565b600061127b6112768461120b565b6111f0565b9050808382526020820190506020840283018581111561129e5761129d611237565b5b835b818110156112c757806112b38882611253565b8452602084019350506020810190506112a0565b5050509392505050565b600082601f8301126112e6576112e561117a565b5b81356112f6848260208601611268565b91505092915050565b61130881611143565b811461131357600080fd5b50565b600081359050611325816112ff565b92915050565b600080604083850312156113425761134161107a565b5b600083013567ffffffffffffffff8111156113605761135f61107f565b5b61136c858286016112d1565b925050602061137d85828601611316565b9150509250929050565b60006020828403121561139d5761139c61107a565b5b60006113ab84828501611253565b91505092915050565b600080fd5b600067ffffffffffffffff8211156113d4576113d3611190565b5b6113dd8261117f565b9050602081019050919050565b82818337600083830152505050565b600061140c611407846113b9565b6111f0565b905082815260208101848484011115611428576114276113b4565b5b6114338482856113ea565b509392505050565b600082601f8301126114505761144f61117a565b5b81356114608482602086016113f9565b91505092915050565b600080604083850312156114805761147f61107a565b5b600061148e85828601611253565b925050602083013567ffffffffffffffff8111156114af576114ae61107f565b5b6114bb8582860161143b565b9150509250929050565b6000819050919050565b6114d8816114c5565b82525050565b60006020820190506114f360008301846114cf565b92915050565b600081519050919050565b600082825260208201905092915050565b60005b83811015611533578082015181840152602081019050611518565b83811115611542576000848401525b50505050565b6000611553826114f9565b61155d8185611504565b935061156d818560208601611515565b6115768161117f565b840191505092915050565b6000602082019050818103600083015261159b8184611548565b905092915050565b7f496e697469616c697a61626c653a20636f6e747261637420697320616c72656160008201527f647920696e697469616c697a6564000000000000000000000000000000000000602082015250565b60006115ff602e83611504565b915061160a826115a3565b604082019050919050565b6000602082019050818103600083015261162e816115f2565b9050919050565b7f4e487b7100000000000000000000000000000000000000000000000000000000600052603260045260246000fd5b7f4e487b7100000000000000000000000000000000000000000000000000000000600052601160045260246000fd5b600061169e82611084565b91507fffffffffffffffffffffffffffffffffffffffffffffffffffffffffffffffff82036116d0576116cf611664565b5b600182019050919050565b7f46756e6374696f6e206d7573742062652063616c6c6564207468726f7567682060008201527f64656c656761746563616c6c0000000000000000000000000000000000000000602082015250565b6000611737602c83611504565b9150611742826116db565b604082019050919050565b600060208201905081810360008301526117668161172a565b9050919050565b7f46756e6374696f6e206d7573742062652063616c6c6564207468726f7567682060008201527f6163746976652070726f78790000000000000000000000000000000000000000602082015250565b60006117c9602c83611504565b91506117d48261176d565b604082019050919050565b600060208201905081810360008301526117f8816117bc565b9050919050565b7f555550535570677261646561626c653a206d757374206e6f742062652063616c60008201527f6c6564207468726f7567682064656c656761746563616c6c0000000000000000602082015250565b600061185b603883611504565b9150611866826117ff565b604082019050919050565b6000602082019050818103600083015261188a8161184e565b9050919050565b7f4f776e61626c653a2063616c6c6572206973206e6f7420746865206f776e6572600082015250565b60006118c7602083611504565b91506118d282611891565b602082019050919050565b600060208201905081810360008301526118f6816118ba565b9050919050565b7f4f776e61626c653a206e6577206f776e657220697320746865207a65726f206160008201527f6464726573730000000000000000000000000000000000000000000000000000602082015250565b6000611959602683611504565b9150611964826118fd565b604082019050919050565b600060208201905081810360008301526119888161194c565b9050919050565b7f496e697469616c697a61626c653a20636f6e7472616374206973206e6f74206960008201527f6e697469616c697a696e67000000000000000000000000000000000000000000602082015250565b60006119eb602b83611504565b91506119f68261198f565b604082019050919050565b60006020820190508181036000830152611a1a816119de565b9050919050565b611a2a816114c5565b8114611a3557600080fd5b50565b600081519050611a4781611a21565b92915050565b600060208284031215611a6357611a6261107a565b5b6000611a7184828501611a38565b91505092915050565b7f45524331393637557067726164653a206e657720696d706c656d656e7461746960008201527f6f6e206973206e6f742055555053000000000000000000000000000000000000602082015250565b6000611ad6602e83611504565b9150611ae182611a7a565b604082019050919050565b60006020820190508181036000830152611b0581611ac9565b9050919050565b7f45524331393637557067726164653a20756e737570706f727465642070726f7860008201527f6961626c65555549440000000000000000000000000000000000000000000000602082015250565b6000611b68602983611504565b9150611b7382611b0c565b604082019050919050565b60006020820190508181036000830152611b9781611b5b565b9050919050565b7f455243313936373a206e657720696d706c656d656e746174696f6e206973206e60008201527f6f74206120636f6e747261637400000000000000000000000000000000000000602082015250565b6000611bfa602d83611504565b9150611c0582611b9e565b604082019050919050565b60006020820190508181036000830152611c2981611bed565b9050919050565b7f416464726573733a2064656c65676174652063616c6c20746f206e6f6e2d636f60008201527f6e74726163740000000000000000000000000000000000000000000000000000602082015250565b6000611c8c602683611504565b9150611c9782611c30565b604082019050919050565b60006020820190508181036000830152611cbb81611c7f565b9050919050565b600081519050919050565b600081905092915050565b6000611ce382611cc2565b611ced8185611ccd565b9350611cfd818560208601611515565b80840191505092915050565b6000611d158284611cd8565b91508190509291505056fe416464726573733a206c6f772d6c6576656c2064656c65676174652063616c6c206661696c6564a2646970667358221220c1a27690ed7cee6b39ea9972c92c9a3f7fb18f2bb6a35c30a0b408caa319970164736f6c634300080d0033",
  "linkReferences": {},
  "deployedLinkReferences": {}
}