{
  "_format": "hh-sol-artifact-1",
  "contractName": "MyContract",
  "sourceName": "contracts/MyContract.sol",
  "abi": [
    {
      "inputs": [],
      "stateMutability": "nonpayable",
      "type": "constructor"
    },
    {
      "anonymous": false,
      "inputs": [
        {
          "indexed": false,
          "internalType": "address",
          "name": "previousAdmin",
          "type": "address"
        },
        {
          "indexed": false,
          "internalType": "address",
          "name": "newAdmin",
          "type": "address"
        }
      ],
      "name": "AdminChanged",
      "type": "event"
    },
    {
      "anonymous": false,
      "inputs": [
        {
          "indexed": true,
          "internalType": "address",
          "name": "beacon",
          "type": "address"
        }
      ],
      "name": "BeaconUpgraded",
      "type": "event"
    },
    {
      "anonymous": false,
      "inputs": [
        {
          "indexed": true,
          "internalType": "address",
          "name": "previousOwner",
          "type": "address"
        },
        {
          "indexed": true,
          "internalType": "address",
          "name": "newOwner",
          "type": "address"
        }
      ],
      "name": "OwnershipTransferred",
      "type": "event"
    },
    {
      "anonymous": false,
      "inputs": [
        {
          "indexed": true,
          "internalType": "address",
          "name": "implementation",
          "type": "address"
        }
      ],
      "name": "Upgraded",
      "type": "event"
    },
    {
      "inputs": [],
      "name": "VERSION",
      "outputs": [
        {
          "internalType": "string",
          "name": "",
          "type": "string"
        }
      ],
      "stateMutability": "view",
      "type": "function"
    },
    {
      "inputs": [],
      "name": "confirmationNeeded",
      "outputs": [
        {
          "internalType": "uint8",
          "name": "",
          "type": "uint8"
        }
      ],
      "stateMutability": "view",
      "type": "function"
    },
    {
      "inputs": [
        {
          "internalType": "address[]",
          "name": "_owners",
          "type": "address[]"
        },
        {
          "internalType": "uint8",
          "name": "_confirmationNeeded",
          "type": "uint8"
        }
      ],
      "name": "initialize",
      "outputs": [],
      "stateMutability": "nonpayable",
      "type": "function"
    },
    {
      "inputs": [],
      "name": "owner",
      "outputs": [
        {
          "internalType": "address",
          "name": "",
          "type": "address"
        }
      ],
      "stateMutability": "view",
      "type": "function"
    },
    {
      "inputs": [
        {
          "internalType": "uint256",
          "name": "",
          "type": "uint256"
        }
      ],
      "name": "owners",
      "outputs": [
        {
          "internalType": "address",
          "name": "",
          "type": "address"
        }
      ],
      "stateMutability": "view",
      "type": "function"
    },
    {
      "inputs": [],
      "name": "proxiableUUID",
      "outputs": [
        {
          "internalType": "bytes32",
          "name": "",
          "type": "bytes32"
        }
      ],
      "stateMutability": "view",
      "type": "function"
    },
    {
      "inputs": [],
      "name": "renounceOwnership",
      "outputs": [],
      "stateMutability": "nonpayable",
      "type": "function"
    },
    {
      "inputs": [
        {
          "internalType": "address",
          "name": "newOwner",
          "type": "address"
        }
      ],
      "name": "transferOwnership",
      "outputs": [],
      "stateMutability": "nonpayable",
      "type": "function"
    },
    {
      "inputs": [
        {
          "internalType": "address",
          "name": "newImplementation",
          "type": "address"
        }
      ],
      "name": "upgradeTo",
      "outputs": [],
      "stateMutability": "nonpayable",
      "type": "function"
    },
    {
      "inputs": [
        {
          "internalType": "address",
          "name": "newImplementation",
          "type": "address"
        },
        {
          "internalType": "bytes",
          "name": "data",
          "type": "bytes"
        }
      ],
      "name": "upgradeToAndCall",
      "outputs": [],
      "stateMutability": "payable",
      "type": "function"
    }
  ],
  "bytecode": "0x60a06040523073ffffffffffffffffffffffffffffffffffffffff1660809073ffffffffffffffffffffffffffffffffffffffff168152503480156200004457600080fd5b50600060019054906101000a900460ff166200006f5760008054906101000a900460ff161562000080565b6200007f6200013c60201b60201c565b5b620000c2576040517f08c379a0000000000000000000000000000000000000000000000000000000008152600401620000b99062000204565b60405180910390fd5b60008060019054906101000a900460ff16159050801562000113576001600060016101000a81548160ff02191690831515021790555060016000806101000a81548160ff0219169083151502179055505b8015620001355760008060016101000a81548160ff0219169083151502179055505b5062000226565b600062000154306200015a60201b620009af1760201c565b15905090565b6000808273ffffffffffffffffffffffffffffffffffffffff163b119050919050565b600082825260208201905092915050565b7f496e697469616c697a61626c653a20636f6e747261637420697320616c72656160008201527f647920696e697469616c697a6564000000000000000000000000000000000000602082015250565b6000620001ec602e836200017d565b9150620001f9826200018e565b604082019050919050565b600060208201905081810360008301526200021f81620001dd565b9050919050565b608051611e626200025e60003960008181610452015281816104e0015281816105da0152818161066801526107180152611e626000f3fe6080604052600436106100915760003560e01c806352d1902d1161005957806352d1902d1461016c578063715018a6146101975780638da5cb5b146101ae578063f2fde38b146101d9578063ffa1ad741461020257610091565b8063025e7c27146100965780632b9a9f50146100d35780632bbdea4e146100fe5780633659cfe6146101275780634f1ef28614610150575b600080fd5b3480156100a257600080fd5b506100bd60048036038101906100b8919061119f565b61022d565b6040516100ca919061120d565b60405180910390f35b3480156100df57600080fd5b506100e861026c565b6040516100f59190611244565b60405180910390f35b34801561010a57600080fd5b5061012560048036038101906101209190611410565b61027f565b005b34801561013357600080fd5b5061014e6004803603810190610149919061146c565b610450565b005b61016a6004803603810190610165919061154e565b6105d8565b005b34801561017857600080fd5b50610181610714565b60405161018e91906115c3565b60405180910390f35b3480156101a357600080fd5b506101ac6107cd565b005b3480156101ba57600080fd5b506101c3610855565b6040516101d0919061120d565b60405180910390f35b3480156101e557600080fd5b5061020060048036038101906101fb919061146c565b61087f565b005b34801561020e57600080fd5b50610217610976565b6040516102249190611666565b60405180910390f35b60ca818154811061023d57600080fd5b906000526020600020016000915054906101000a900473ffffffffffffffffffffffffffffffffffffffff1681565b60c960009054906101000a900460ff1681565b600060019054906101000a900460ff166102a75760008054906101000a900460ff16156102b0565b6102af6109d2565b5b6102ef576040517f08c379a00000000000000000000000000000000000000000000000000000000081526004016102e6906116fa565b60405180910390fd5b60008060019054906101000a900460ff16159050801561033f576001600060016101000a81548160ff02191690831515021790555060016000806101000a81548160ff0219169083151502179055505b6103476109e3565b61034f610a3c565b8160c960006101000a81548160ff021916908360ff16021790555060005b83518110156104295761039984828151811061038c5761038b61171a565b5b6020026020010151610a8d565b60ca8482815181106103ae576103ad61171a565b5b60200260200101519080600181540180825580915050600190039060005260206000200160009091909190916101000a81548173ffffffffffffffffffffffffffffffffffffffff021916908373ffffffffffffffffffffffffffffffffffffffff160217905550808061042190611778565b91505061036d565b50801561044b5760008060016101000a81548160ff0219169083151502179055505b505050565b7f000000000000000000000000000000000000000000000000000000000000000073ffffffffffffffffffffffffffffffffffffffff163073ffffffffffffffffffffffffffffffffffffffff16036104de576040517f08c379a00000000000000000000000000000000000000000000000000000000081526004016104d590611832565b60405180910390fd5b7f000000000000000000000000000000000000000000000000000000000000000073ffffffffffffffffffffffffffffffffffffffff1661051d610b26565b73ffffffffffffffffffffffffffffffffffffffff1614610573576040517f08c379a000000000000000000000000000000000000000000000000000000000815260040161056a906118c4565b60405180910390fd5b61057c81610b7d565b6105d581600067ffffffffffffffff81111561059b5761059a611275565b5b6040519080825280601f01601f1916602001820160405280156105cd5781602001600182028036833780820191505090505b506000610bfc565b50565b7f000000000000000000000000000000000000000000000000000000000000000073ffffffffffffffffffffffffffffffffffffffff163073ffffffffffffffffffffffffffffffffffffffff1603610666576040517f08c379a000000000000000000000000000000000000000000000000000000000815260040161065d90611832565b60405180910390fd5b7f000000000000000000000000000000000000000000000000000000000000000073ffffffffffffffffffffffffffffffffffffffff166106a5610b26565b73ffffffffffffffffffffffffffffffffffffffff16146106fb576040517f08c379a00000000000000000000000000000000000000000000000000000000081526004016106f2906118c4565b60405180910390fd5b61070482610b7d565b61071082826001610bfc565b5050565b60007f000000000000000000000000000000000000000000000000000000000000000073ffffffffffffffffffffffffffffffffffffffff163073ffffffffffffffffffffffffffffffffffffffff16146107a4576040517f08c379a000000000000000000000000000000000000000000000000000000000815260040161079b90611956565b60405180910390fd5b7f360894a13ba1a3210667c828492db98dca3e2076cc3735a920a3ca505d382bbc60001b905090565b6107d5610d6a565b73ffffffffffffffffffffffffffffffffffffffff166107f3610855565b73ffffffffffffffffffffffffffffffffffffffff1614610849576040517f08c379a0000000000000000000000000000000000000000000000000000000008152600401610840906119c2565b60405180910390fd5b6108536000610d72565b565b6000609760009054906101000a900473ffffffffffffffffffffffffffffffffffffffff16905090565b610887610d6a565b73ffffffffffffffffffffffffffffffffffffffff166108a5610855565b73ffffffffffffffffffffffffffffffffffffffff16146108fb576040517f08c379a00000000000000000000000000000000000000000000000000000000081526004016108f2906119c2565b60405180910390fd5b600073ffffffffffffffffffffffffffffffffffffffff168173ffffffffffffffffffffffffffffffffffffffff160361096a576040517f08c379a000000000000000000000000000000000000000000000000000000000815260040161096190611a54565b60405180910390fd5b61097381610d72565b50565b6040518060400160405280600581526020017f302e302e3100000000000000000000000000000000000000000000000000000081525081565b6000808273ffffffffffffffffffffffffffffffffffffffff163b119050919050565b60006109dd306109af565b15905090565b600060019054906101000a900460ff16610a32576040517f08c379a0000000000000000000000000000000000000000000000000000000008152600401610a2990611ae6565b60405180910390fd5b610a3a610e38565b565b600060019054906101000a900460ff16610a8b576040517f08c379a0000000000000000000000000000000000000000000000000000000008152600401610a8290611ae6565b60405180910390fd5b565b610b2381604051602401610aa1919061120d565b6040516020818303038152906040527f2c2ecbc2000000000000000000000000000000000000000000000000000000007bffffffffffffffffffffffffffffffffffffffffffffffffffffffff19166020820180517bffffffffffffffffffffffffffffffffffffffffffffffffffffffff8381831617835250505050610e99565b50565b6000610b547f360894a13ba1a3210667c828492db98dca3e2076cc3735a920a3ca505d382bbc60001b610ec2565b60000160009054906101000a900473ffffffffffffffffffffffffffffffffffffffff16905090565b610b85610d6a565b73ffffffffffffffffffffffffffffffffffffffff16610ba3610855565b73ffffffffffffffffffffffffffffffffffffffff1614610bf9576040517f08c379a0000000000000000000000000000000000000000000000000000000008152600401610bf0906119c2565b60405180910390fd5b50565b610c287f4910fdfa16fed3260ed0e7147f7cc6da11a60208b5b9406d12a635614ffd914360001b610ecc565b60000160009054906101000a900460ff1615610c4c57610c4783610ed6565b610d65565b8273ffffffffffffffffffffffffffffffffffffffff166352d1902d6040518163ffffffff1660e01b8152600401602060405180830381865afa925050508015610cb457506040513d601f19601f82011682018060405250810190610cb19190611b32565b60015b610cf3576040517f08c379a0000000000000000000000000000000000000000000000000000000008152600401610cea90611bd1565b60405180910390fd5b7f360894a13ba1a3210667c828492db98dca3e2076cc3735a920a3ca505d382bbc60001b8114610d58576040517f08c379a0000000000000000000000000000000000000000000000000000000008152600401610d4f90611c63565b60405180910390fd5b50610d64838383610f8f565b5b505050565b600033905090565b6000609760009054906101000a900473ffffffffffffffffffffffffffffffffffffffff16905081609760006101000a81548173ffffffffffffffffffffffffffffffffffffffff021916908373ffffffffffffffffffffffffffffffffffffffff1602179055508173ffffffffffffffffffffffffffffffffffffffff168173ffffffffffffffffffffffffffffffffffffffff167f8be0079c531659141344cd1fd0a4f28419497f9722a3daafe3b4186f6b6457e060405160405180910390a35050565b600060019054906101000a900460ff16610e87576040517f08c379a0000000000000000000000000000000000000000000000000000000008152600401610e7e90611ae6565b60405180910390fd5b610e97610e92610d6a565b610d72565b565b60008151905060006a636f6e736f6c652e6c6f679050602083016000808483855afa5050505050565b6000819050919050565b6000819050919050565b610edf816109af565b610f1e576040517f08c379a0000000000000000000000000000000000000000000000000000000008152600401610f1590611cf5565b60405180910390fd5b80610f4b7f360894a13ba1a3210667c828492db98dca3e2076cc3735a920a3ca505d382bbc60001b610ec2565b60000160006101000a81548173ffffffffffffffffffffffffffffffffffffffff021916908373ffffffffffffffffffffffffffffffffffffffff16021790555050565b610f9883610fbb565b600082511180610fa55750805b15610fb657610fb4838361100a565b505b505050565b610fc481610ed6565b8073ffffffffffffffffffffffffffffffffffffffff167fbc7cd75a20ee27fd9adebab32041f755214dbc6bffa90cc0225b39da2e5c2d3b60405160405180910390a250565b6060611015836109af565b611054576040517f08c379a000000000000000000000000000000000000000000000000000000000815260040161104b90611d87565b60405180910390fd5b6000808473ffffffffffffffffffffffffffffffffffffffff168460405161107c9190611dee565b600060405180830381855af49150503d80600081146110b7576040519150601f19603f3d011682016040523d82523d6000602084013e6110bc565b606091505b50915091506110e48282604051806060016040528060278152602001611e06602791396110ee565b9250505092915050565b606083156110fe5782905061114e565b6000835111156111115782518084602001fd5b816040517f08c379a00000000000000000000000000000000000000000000000000000000081526004016111459190611666565b60405180910390fd5b9392505050565b6000604051905090565b600080fd5b600080fd5b6000819050919050565b61117c81611169565b811461118757600080fd5b50565b60008135905061119981611173565b92915050565b6000602082840312156111b5576111b461115f565b5b60006111c38482850161118a565b91505092915050565b600073ffffffffffffffffffffffffffffffffffffffff82169050919050565b60006111f7826111cc565b9050919050565b611207816111ec565b82525050565b600060208201905061122260008301846111fe565b92915050565b600060ff82169050919050565b61123e81611228565b82525050565b60006020820190506112596000830184611235565b92915050565b600080fd5b6000601f19601f8301169050919050565b7f4e487b7100000000000000000000000000000000000000000000000000000000600052604160045260246000fd5b6112ad82611264565b810181811067ffffffffffffffff821117156112cc576112cb611275565b5b80604052505050565b60006112df611155565b90506112eb82826112a4565b919050565b600067ffffffffffffffff82111561130b5761130a611275565b5b602082029050602081019050919050565b600080fd5b61132a816111ec565b811461133557600080fd5b50565b60008135905061134781611321565b92915050565b600061136061135b846112f0565b6112d5565b905080838252602082019050602084028301858111156113835761138261131c565b5b835b818110156113ac57806113988882611338565b845260208401935050602081019050611385565b5050509392505050565b600082601f8301126113cb576113ca61125f565b5b81356113db84826020860161134d565b91505092915050565b6113ed81611228565b81146113f857600080fd5b50565b60008135905061140a816113e4565b92915050565b600080604083850312156114275761142661115f565b5b600083013567ffffffffffffffff81111561144557611444611164565b5b611451858286016113b6565b9250506020611462858286016113fb565b9150509250929050565b6000602082840312156114825761148161115f565b5b600061149084828501611338565b91505092915050565b600080fd5b600067ffffffffffffffff8211156114b9576114b8611275565b5b6114c282611264565b9050602081019050919050565b82818337600083830152505050565b60006114f16114ec8461149e565b6112d5565b90508281526020810184848401111561150d5761150c611499565b5b6115188482856114cf565b509392505050565b600082601f8301126115355761153461125f565b5b81356115458482602086016114de565b91505092915050565b600080604083850312156115655761156461115f565b5b600061157385828601611338565b925050602083013567ffffffffffffffff81111561159457611593611164565b5b6115a085828601611520565b9150509250929050565b6000819050919050565b6115bd816115aa565b82525050565b60006020820190506115d860008301846115b4565b92915050565b600081519050919050565b600082825260208201905092915050565b60005b838110156116185780820151818401526020810190506115fd565b83811115611627576000848401525b50505050565b6000611638826115de565b61164281856115e9565b93506116528185602086016115fa565b61165b81611264565b840191505092915050565b60006020820190508181036000830152611680818461162d565b905092915050565b7f496e697469616c697a61626c653a20636f6e747261637420697320616c72656160008201527f647920696e697469616c697a6564000000000000000000000000000000000000602082015250565b60006116e4602e836115e9565b91506116ef82611688565b604082019050919050565b60006020820190508181036000830152611713816116d7565b9050919050565b7f4e487b7100000000000000000000000000000000000000000000000000000000600052603260045260246000fd5b7f4e487b7100000000000000000000000000000000000000000000000000000000600052601160045260246000fd5b600061178382611169565b91507fffffffffffffffffffffffffffffffffffffffffffffffffffffffffffffffff82036117b5576117b4611749565b5b600182019050919050565b7f46756e6374696f6e206d7573742062652063616c6c6564207468726f7567682060008201527f64656c656761746563616c6c0000000000000000000000000000000000000000602082015250565b600061181c602c836115e9565b9150611827826117c0565b604082019050919050565b6000602082019050818103600083015261184b8161180f565b9050919050565b7f46756e6374696f6e206d7573742062652063616c6c6564207468726f7567682060008201527f6163746976652070726f78790000000000000000000000000000000000000000602082015250565b60006118ae602c836115e9565b91506118b982611852565b604082019050919050565b600060208201905081810360008301526118dd816118a1565b9050919050565b7f555550535570677261646561626c653a206d757374206e6f742062652063616c60008201527f6c6564207468726f7567682064656c656761746563616c6c0000000000000000602082015250565b60006119406038836115e9565b915061194b826118e4565b604082019050919050565b6000602082019050818103600083015261196f81611933565b9050919050565b7f4f776e61626c653a2063616c6c6572206973206e6f7420746865206f776e6572600082015250565b60006119ac6020836115e9565b91506119b782611976565b602082019050919050565b600060208201905081810360008301526119db8161199f565b9050919050565b7f4f776e61626c653a206e6577206f776e657220697320746865207a65726f206160008201527f6464726573730000000000000000000000000000000000000000000000000000602082015250565b6000611a3e6026836115e9565b9150611a49826119e2565b604082019050919050565b60006020820190508181036000830152611a6d81611a31565b9050919050565b7f496e697469616c697a61626c653a20636f6e7472616374206973206e6f74206960008201527f6e697469616c697a696e67000000000000000000000000000000000000000000602082015250565b6000611ad0602b836115e9565b9150611adb82611a74565b604082019050919050565b60006020820190508181036000830152611aff81611ac3565b9050919050565b611b0f816115aa565b8114611b1a57600080fd5b50565b600081519050611b2c81611b06565b92915050565b600060208284031215611b4857611b4761115f565b5b6000611b5684828501611b1d565b91505092915050565b7f45524331393637557067726164653a206e657720696d706c656d656e7461746960008201527f6f6e206973206e6f742055555053000000000000000000000000000000000000602082015250565b6000611bbb602e836115e9565b9150611bc682611b5f565b604082019050919050565b60006020820190508181036000830152611bea81611bae565b9050919050565b7f45524331393637557067726164653a20756e737570706f727465642070726f7860008201527f6961626c65555549440000000000000000000000000000000000000000000000602082015250565b6000611c4d6029836115e9565b9150611c5882611bf1565b604082019050919050565b60006020820190508181036000830152611c7c81611c40565b9050919050565b7f455243313936373a206e657720696d706c656d656e746174696f6e206973206e60008201527f6f74206120636f6e747261637400000000000000000000000000000000000000602082015250565b6000611cdf602d836115e9565b9150611cea82611c83565b604082019050919050565b60006020820190508181036000830152611d0e81611cd2565b9050919050565b7f416464726573733a2064656c65676174652063616c6c20746f206e6f6e2d636f60008201527f6e74726163740000000000000000000000000000000000000000000000000000602082015250565b6000611d716026836115e9565b9150611d7c82611d15565b604082019050919050565b60006020820190508181036000830152611da081611d64565b9050919050565b600081519050919050565b600081905092915050565b6000611dc882611da7565b611dd28185611db2565b9350611de28185602086016115fa565b80840191505092915050565b6000611dfa8284611dbd565b91508190509291505056fe416464726573733a206c6f772d6c6576656c2064656c65676174652063616c6c206661696c6564a2646970667358221220532778a5eb2aa36ae9eccb37ac532e87c528dd39c71af1cef4346012434ef07b64736f6c634300080d0033",
  "linkReferences": {},
  "deployedLinkReferences": {}
}