{
  "_format": "hh-sol-artifact-1",
  "contractName": "CommownSWProxyFactory",
  "sourceName": "contracts/CommownSWProxyFactory.sol",
  "abi": [
    {
      "inputs": [],
      "stateMutability": "nonpayable",
      "type": "constructor"
    },
    {
      "anonymous": false,
      "inputs": [
        {
          "indexed": true,
          "internalType": "address",
          "name": "adrs",
          "type": "address"
        }
      ],
      "name": "ProxyCreated",
      "type": "event"
    },
    {
      "inputs": [
        {
          "internalType": "address",
          "name": "",
          "type": "address"
        },
        {
          "internalType": "uint256",
          "name": "",
          "type": "uint256"
        }
      ],
      "name": "commownProxiesPerUser",
      "outputs": [
        {
          "internalType": "address",
          "name": "",
          "type": "address"
        }
      ],
      "stateMutability": "view",
      "type": "function"
    },
    {
      "inputs": [
        {
          "internalType": "address[]",
          "name": "_owners",
          "type": "address[]"
        },
        {
          "internalType": "uint8",
          "name": "_confirmationNeeded",
          "type": "uint8"
        }
      ],
      "name": "createProxy",
      "outputs": [
        {
          "internalType": "address",
          "name": "",
          "type": "address"
        }
      ],
      "stateMutability": "nonpayable",
      "type": "function"
    },
    {
      "inputs": [],
      "name": "logic",
      "outputs": [
        {
          "internalType": "address",
          "name": "",
          "type": "address"
        }
      ],
      "stateMutability": "view",
      "type": "function"
    },
    {
      "inputs": [
        {
          "internalType": "address",
          "name": "",
          "type": "address"
        }
      ],
      "name": "nbProxiesPerUser",
      "outputs": [
        {
          "internalType": "uint256",
          "name": "",
          "type": "uint256"
        }
      ],
      "stateMutability": "view",
      "type": "function"
    },
    {
      "inputs": [
        {
          "internalType": "uint256",
          "name": "",
          "type": "uint256"
        }
      ],
      "name": "proxiesList",
      "outputs": [
        {
          "internalType": "address",
          "name": "",
          "type": "address"
        }
      ],
      "stateMutability": "view",
      "type": "function"
    }
  ],
  "bytecode": "0x60a060405234801561001057600080fd5b5060405161001d90610072565b604051809103906000f080158015610039573d6000803e3d6000fd5b5073ffffffffffffffffffffffffffffffffffffffff1660808173ffffffffffffffffffffffffffffffffffffffff168152505061007f565b612e2580611a2683390190565b6080516119856100a16000396000818161020901526104e301526119856000f3fe60806040523480156200001157600080fd5b50600436106200005e5760003560e01c8063404addee1462000063578063878dd62b1462000099578063adec742d14620000cf578063c55e8db11462000105578063d7dfa0dd146200013b575b600080fd5b6200008160048036038101906200007b9190620005c7565b6200015d565b6040516200009091906200061f565b60405180910390f35b620000b76004803603810190620000b191906200063c565b620001ac565b604051620000c691906200067f565b60405180910390f35b620000ed6004803603810190620000e791906200069c565b620001c4565b604051620000fc91906200061f565b60405180910390f35b6200012360048036038101906200011d919062000881565b62000204565b6040516200013291906200061f565b60405180910390f35b62000145620004e1565b6040516200015491906200061f565b60405180910390f35b600060205281600052604060002081815481106200017a57600080fd5b906000526020600020016000915091509054906101000a900473ffffffffffffffffffffffffffffffffffffffff1681565b60016020528060005260406000206000915090505481565b60028181548110620001d557600080fd5b906000526020600020016000915054906101000a900473ffffffffffffffffffffffffffffffffffffffff1681565b6000807f0000000000000000000000000000000000000000000000000000000000000000632bbdea4e60e01b858560405160240162000245929190620009c6565b604051602081830303815290604052907bffffffffffffffffffffffffffffffffffffffffffffffffffffffff19166020820180517bffffffffffffffffffffffffffffffffffffffffffffffffffffffff8381831617835250505050604051620002b09062000505565b620002bd92919062000a8d565b604051809103906000f080158015620002da573d6000803e3d6000fd5b5090506002819080600181540180825580915050600190039060005260206000200160009091909190916101000a81548173ffffffffffffffffffffffffffffffffffffffff021916908373ffffffffffffffffffffffffffffffffffffffff16021790555060005b8451811015620004945760008086838151811062000366576200036562000ac1565b5b602002602001015173ffffffffffffffffffffffffffffffffffffffff1673ffffffffffffffffffffffffffffffffffffffff168152602001908152602001600020829080600181540180825580915050600190039060005260206000200160009091909190916101000a81548173ffffffffffffffffffffffffffffffffffffffff021916908373ffffffffffffffffffffffffffffffffffffffff160217905550600180600087848151811062000424576200042362000ac1565b5b602002602001015173ffffffffffffffffffffffffffffffffffffffff1673ffffffffffffffffffffffffffffffffffffffff168152602001908152602001600020600082825462000477919062000b1f565b9250508190555080806200048b9062000b7c565b91505062000343565b508073ffffffffffffffffffffffffffffffffffffffff167efffc2da0b561cae30d9826d37709e9421c4725faebc226cbbb7ef5fc5e734960405160405180910390a28091505092915050565b7f000000000000000000000000000000000000000000000000000000000000000081565b610d868062000bca83390190565b6000604051905090565b600080fd5b600080fd5b600073ffffffffffffffffffffffffffffffffffffffff82169050919050565b6000620005548262000527565b9050919050565b620005668162000547565b81146200057257600080fd5b50565b60008135905062000586816200055b565b92915050565b6000819050919050565b620005a1816200058c565b8114620005ad57600080fd5b50565b600081359050620005c18162000596565b92915050565b60008060408385031215620005e157620005e06200051d565b5b6000620005f18582860162000575565b92505060206200060485828601620005b0565b9150509250929050565b620006198162000547565b82525050565b60006020820190506200063660008301846200060e565b92915050565b6000602082840312156200065557620006546200051d565b5b6000620006658482850162000575565b91505092915050565b62000679816200058c565b82525050565b60006020820190506200069660008301846200066e565b92915050565b600060208284031215620006b557620006b46200051d565b5b6000620006c584828501620005b0565b91505092915050565b600080fd5b6000601f19601f8301169050919050565b7f4e487b7100000000000000000000000000000000000000000000000000000000600052604160045260246000fd5b6200071e82620006d3565b810181811067ffffffffffffffff8211171562000740576200073f620006e4565b5b80604052505050565b60006200075562000513565b905062000763828262000713565b919050565b600067ffffffffffffffff821115620007865762000785620006e4565b5b602082029050602081019050919050565b600080fd5b6000620007b3620007ad8462000768565b62000749565b90508083825260208201905060208402830185811115620007d957620007d862000797565b5b835b81811015620008065780620007f1888262000575565b845260208401935050602081019050620007db565b5050509392505050565b600082601f830112620008285762000827620006ce565b5b81356200083a8482602086016200079c565b91505092915050565b600060ff82169050919050565b6200085b8162000843565b81146200086757600080fd5b50565b6000813590506200087b8162000850565b92915050565b600080604083850312156200089b576200089a6200051d565b5b600083013567ffffffffffffffff811115620008bc57620008bb62000522565b5b620008ca8582860162000810565b9250506020620008dd858286016200086a565b9150509250929050565b600081519050919050565b600082825260208201905092915050565b6000819050602082019050919050565b6200091e8162000547565b82525050565b600062000932838362000913565b60208301905092915050565b6000602082019050919050565b60006200095882620008e7565b620009648185620008f2565b9350620009718362000903565b8060005b83811015620009a85781516200098c888262000924565b975062000999836200093e565b92505060018101905062000975565b5085935050505092915050565b620009c08162000843565b82525050565b60006040820190508181036000830152620009e281856200094b565b9050620009f36020830184620009b5565b9392505050565b600081519050919050565b600082825260208201905092915050565b60005b8381101562000a3657808201518184015260208101905062000a19565b8381111562000a46576000848401525b50505050565b600062000a5982620009fa565b62000a65818562000a05565b935062000a7781856020860162000a16565b62000a8281620006d3565b840191505092915050565b600060408201905062000aa460008301856200060e565b818103602083015262000ab8818462000a4c565b90509392505050565b7f4e487b7100000000000000000000000000000000000000000000000000000000600052603260045260246000fd5b7f4e487b7100000000000000000000000000000000000000000000000000000000600052601160045260246000fd5b600062000b2c826200058c565b915062000b39836200058c565b9250827fffffffffffffffffffffffffffffffffffffffffffffffffffffffffffffffff0382111562000b715762000b7062000af0565b5b828201905092915050565b600062000b89826200058c565b91507fffffffffffffffffffffffffffffffffffffffffffffffffffffffffffffffff820362000bbe5762000bbd62000af0565b5b60018201905091905056fe608060405260405162000d8638038062000d868339818101604052810190620000299190620005d4565b60017f360894a13ba1a3210667c828492db98dca3e2076cc3735a920a3ca505d382bbd60001c6200005b919062000673565b60001b7f360894a13ba1a3210667c828492db98dca3e2076cc3735a920a3ca505d382bbc60001b14620000935762000092620006ae565b5b620000a782826000620000af60201b60201c565b5050620008f4565b620000c083620000f260201b60201c565b600082511180620000ce5750805b15620000ed57620000eb83836200014960201b620000371760201c565b505b505050565b62000103816200017f60201b60201c565b8073ffffffffffffffffffffffffffffffffffffffff167fbc7cd75a20ee27fd9adebab32041f755214dbc6bffa90cc0225b39da2e5c2d3b60405160405180910390a250565b606062000177838360405180606001604052806027815260200162000d5f602791396200025560201b60201c565b905092915050565b62000195816200033960201b620000641760201c565b620001d7576040517f08c379a0000000000000000000000000000000000000000000000000000000008152600401620001ce9062000764565b60405180910390fd5b80620002117f360894a13ba1a3210667c828492db98dca3e2076cc3735a920a3ca505d382bbc60001b6200035c60201b620000871760201c565b60000160006101000a81548173ffffffffffffffffffffffffffffffffffffffff021916908373ffffffffffffffffffffffffffffffffffffffff16021790555050565b606062000268846200033960201b60201c565b620002aa576040517f08c379a0000000000000000000000000000000000000000000000000000000008152600401620002a190620007fc565b60405180910390fd5b6000808573ffffffffffffffffffffffffffffffffffffffff1685604051620002d491906200086b565b600060405180830381855af49150503d806000811462000311576040519150601f19603f3d011682016040523d82523d6000602084013e62000316565b606091505b50915091506200032e8282866200036660201b60201c565b925050509392505050565b6000808273ffffffffffffffffffffffffffffffffffffffff163b119050919050565b6000819050919050565b606083156200037857829050620003cb565b6000835111156200038c5782518084602001fd5b816040517f08c379a0000000000000000000000000000000000000000000000000000000008152600401620003c29190620008d0565b60405180910390fd5b9392505050565b6000604051905090565b600080fd5b600080fd5b600073ffffffffffffffffffffffffffffffffffffffff82169050919050565b60006200041382620003e6565b9050919050565b620004258162000406565b81146200043157600080fd5b50565b60008151905062000445816200041a565b92915050565b600080fd5b600080fd5b6000601f19601f8301169050919050565b7f4e487b7100000000000000000000000000000000000000000000000000000000600052604160045260246000fd5b620004a08262000455565b810181811067ffffffffffffffff82111715620004c257620004c162000466565b5b80604052505050565b6000620004d7620003d2565b9050620004e5828262000495565b919050565b600067ffffffffffffffff82111562000508576200050762000466565b5b620005138262000455565b9050602081019050919050565b60005b838110156200054057808201518184015260208101905062000523565b8381111562000550576000848401525b50505050565b60006200056d6200056784620004ea565b620004cb565b9050828152602081018484840111156200058c576200058b62000450565b5b6200059984828562000520565b509392505050565b600082601f830112620005b957620005b86200044b565b5b8151620005cb84826020860162000556565b91505092915050565b60008060408385031215620005ee57620005ed620003dc565b5b6000620005fe8582860162000434565b925050602083015167ffffffffffffffff811115620006225762000621620003e1565b5b6200063085828601620005a1565b9150509250929050565b6000819050919050565b7f4e487b7100000000000000000000000000000000000000000000000000000000600052601160045260246000fd5b600062000680826200063a565b91506200068d836200063a565b925082821015620006a357620006a262000644565b5b828203905092915050565b7f4e487b7100000000000000000000000000000000000000000000000000000000600052600160045260246000fd5b600082825260208201905092915050565b7f455243313936373a206e657720696d706c656d656e746174696f6e206973206e60008201527f6f74206120636f6e747261637400000000000000000000000000000000000000602082015250565b60006200074c602d83620006dd565b91506200075982620006ee565b604082019050919050565b600060208201905081810360008301526200077f816200073d565b9050919050565b7f416464726573733a2064656c65676174652063616c6c20746f206e6f6e2d636f60008201527f6e74726163740000000000000000000000000000000000000000000000000000602082015250565b6000620007e4602683620006dd565b9150620007f18262000786565b604082019050919050565b600060208201905081810360008301526200081781620007d5565b9050919050565b600081519050919050565b600081905092915050565b600062000841826200081e565b6200084d818562000829565b93506200085f81856020860162000520565b80840191505092915050565b600062000879828462000834565b915081905092915050565b600081519050919050565b60006200089c8262000884565b620008a88185620006dd565b9350620008ba81856020860162000520565b620008c58162000455565b840191505092915050565b60006020820190508181036000830152620008ec81846200088f565b905092915050565b61045b80620009046000396000f3fe6080604052366100135761001161001d565b005b61001b61001d565b005b610025610091565b610035610030610093565b6100a2565b565b606061005c83836040518060600160405280602781526020016103ff602791396100c8565b905092915050565b6000808273ffffffffffffffffffffffffffffffffffffffff163b119050919050565b6000819050919050565b565b600061009d610195565b905090565b3660008037600080366000845af43d6000803e80600081146100c3573d6000f35b3d6000fd5b60606100d384610064565b610112576040517f08c379a0000000000000000000000000000000000000000000000000000000008152600401610109906102d6565b60405180910390fd5b6000808573ffffffffffffffffffffffffffffffffffffffff168560405161013a9190610370565b600060405180830381855af49150503d8060008114610175576040519150601f19603f3d011682016040523d82523d6000602084013e61017a565b606091505b509150915061018a8282866101ec565b925050509392505050565b60006101c37f360894a13ba1a3210667c828492db98dca3e2076cc3735a920a3ca505d382bbc60001b610087565b60000160009054906101000a900473ffffffffffffffffffffffffffffffffffffffff16905090565b606083156101fc5782905061024c565b60008351111561020f5782518084602001fd5b816040517f08c379a000000000000000000000000000000000000000000000000000000000815260040161024391906103dc565b60405180910390fd5b9392505050565b600082825260208201905092915050565b7f416464726573733a2064656c65676174652063616c6c20746f206e6f6e2d636f60008201527f6e74726163740000000000000000000000000000000000000000000000000000602082015250565b60006102c0602683610253565b91506102cb82610264565b604082019050919050565b600060208201905081810360008301526102ef816102b3565b9050919050565b600081519050919050565b600081905092915050565b60005b8381101561032a57808201518184015260208101905061030f565b83811115610339576000848401525b50505050565b600061034a826102f6565b6103548185610301565b935061036481856020860161030c565b80840191505092915050565b600061037c828461033f565b915081905092915050565b600081519050919050565b6000601f19601f8301169050919050565b60006103ae82610387565b6103b88185610253565b93506103c881856020860161030c565b6103d181610392565b840191505092915050565b600060208201905081810360008301526103f681846103a3565b90509291505056fe416464726573733a206c6f772d6c6576656c2064656c65676174652063616c6c206661696c6564a2646970667358221220e7ad0133b9d7b8ba046931d6e493290054d3bb31bdb06986a7c5cff55b817b7c64736f6c634300080d0033416464726573733a206c6f772d6c6576656c2064656c65676174652063616c6c206661696c6564a2646970667358221220ea531485f4a86b5d21393a372149f349a590d5864aec765ebabb5e0f79a922ba64736f6c634300080d003360a06040523073ffffffffffffffffffffffffffffffffffffffff1660809073ffffffffffffffffffffffffffffffffffffffff168152503480156200004457600080fd5b50600060019054906101000a900460ff166200006f5760008054906101000a900460ff161562000080565b6200007f6200013c60201b60201c565b5b620000c2576040517f08c379a0000000000000000000000000000000000000000000000000000000008152600401620000b99062000204565b60405180910390fd5b60008060019054906101000a900460ff16159050801562000113576001600060016101000a81548160ff02191690831515021790555060016000806101000a81548160ff0219169083151502179055505b8015620001355760008060016101000a81548160ff0219169083151502179055505b5062000226565b600062000154306200015a60201b620011021760201c565b15905090565b6000808273ffffffffffffffffffffffffffffffffffffffff163b119050919050565b600082825260208201905092915050565b7f496e697469616c697a61626c653a20636f6e747261637420697320616c72656160008201527f647920696e697469616c697a6564000000000000000000000000000000000000602082015250565b6000620001ec602e836200017d565b9150620001f9826200018e565b604082019050919050565b600060208201905081810360008301526200021f81620001dd565b9050919050565b608051612bc76200025e60003960008181610a3901528181610ac701528181610bf601528181610c840152610d340152612bc76000f3fe6080604052600436106101025760003560e01c80634f1ef286116100955780638fe371d2116100645780638fe371d2146104665780639f6375d7146104a9578063ee98fc72146104e6578063f2fde38b14610523578063ffa1ad741461054c5761023c565b80634f1ef286146103dd57806352d1902d146103f9578063715018a6146104245780638da5cb5b1461043b5761023c565b80632f54bf6e116100d15780632f54bf6e1461030f5780633659cfe61461034c5780633e6d21fa146103755780634cf0a479146103b25761023c565b8063025e7c2714610241578063150b7a021461027e5780632b9a9f50146102bb5780632bbdea4e146102e65761023c565b3661023c573360cc60008273ffffffffffffffffffffffffffffffffffffffff1673ffffffffffffffffffffffffffffffffffffffff16815260200190815260200160002060009054906101000a900460ff16610194576040517f08c379a000000000000000000000000000000000000000000000000000000000815260040161018b90611843565b60405180910390fd5b3460cf60003373ffffffffffffffffffffffffffffffffffffffff1673ffffffffffffffffffffffffffffffffffffffff16815260200190815260200160002060008282546101e3919061189c565b925050819055503373ffffffffffffffffffffffffffffffffffffffff167f90890809c654f11d6e72a28fa60149770a0d11ec6c92319d6ceb2bb0a4ea1a153447604051610232929190611901565b60405180910390a2005b600080fd5b34801561024d57600080fd5b506102686004803603810190610263919061196a565b610577565b60405161027591906119d8565b60405180910390f35b34801561028a57600080fd5b506102a560048036038101906102a09190611b65565b6105b6565b6040516102b29190611c23565b60405180910390f35b3480156102c757600080fd5b506102d06105ca565b6040516102dd9190611c5a565b60405180910390f35b3480156102f257600080fd5b5061030d60048036038101906103089190611d69565b6105dd565b005b34801561031b57600080fd5b5061033660048036038101906103319190611dc5565b610a17565b6040516103439190611e0d565b60405180910390f35b34801561035857600080fd5b50610373600480360381019061036e9190611dc5565b610a37565b005b34801561038157600080fd5b5061039c60048036038101906103979190611e28565b610bbf565b6040516103a99190611e0d565b60405180910390f35b3480156103be57600080fd5b506103c7610bee565b6040516103d49190611e68565b60405180910390f35b6103f760048036038101906103f29190611e83565b610bf4565b005b34801561040557600080fd5b5061040e610d30565b60405161041b9190611ef8565b60405180910390f35b34801561043057600080fd5b50610439610de9565b005b34801561044757600080fd5b50610450610e71565b60405161045d91906119d8565b60405180910390f35b34801561047257600080fd5b5061048d6004803603810190610488919061196a565b610e9b565b6040516104a09796959493929190612012565b60405180910390f35b3480156104b557600080fd5b506104d060048036038101906104cb9190611dc5565b610fa2565b6040516104dd9190611e68565b60405180910390f35b3480156104f257600080fd5b5061050d60048036038101906105089190611dc5565b610fba565b60405161051a9190611e68565b60405180910390f35b34801561052f57600080fd5b5061054a60048036038101906105459190611dc5565b610fd2565b005b34801561055857600080fd5b506105616110c9565b60405161056e91906120cc565b60405180910390f35b60cb818154811061058757600080fd5b906000526020600020016000915054906101000a900473ffffffffffffffffffffffffffffffffffffffff1681565b600063150b7a0260e01b9050949350505050565b60cd60009054906101000a900460ff1681565b600060019054906101000a900460ff166106055760008054906101000a900460ff161561060e565b61060d611125565b5b61064d576040517f08c379a000000000000000000000000000000000000000000000000000000000815260040161064490612160565b60405180910390fd5b60008060019054906101000a900460ff16159050801561069d576001600060016101000a81548160ff02191690831515021790555060016000806101000a81548160ff0219169083151502179055505b60008351116106e1576040517f08c379a00000000000000000000000000000000000000000000000000000000081526004016106d8906121cc565b60405180910390fd5b60008260ff161180156106f8575082518260ff1611155b610737576040517f08c379a000000000000000000000000000000000000000000000000000000000815260040161072e90612238565b60405180910390fd5b61073f611136565b61074761118f565b60005b835181101561098557600073ffffffffffffffffffffffffffffffffffffffff1684828151811061077e5761077d612258565b5b602002602001015173ffffffffffffffffffffffffffffffffffffffff16036107dc576040517f08c379a00000000000000000000000000000000000000000000000000000000081526004016107d3906122d3565b60405180910390fd5b60cc60008583815181106107f3576107f2612258565b5b602002602001015173ffffffffffffffffffffffffffffffffffffffff1673ffffffffffffffffffffffffffffffffffffffff16815260200190815260200160002060009054906101000a900460ff1615610883576040517f08c379a000000000000000000000000000000000000000000000000000000000815260040161087a9061233f565b60405180910390fd5b60cb84828151811061089857610897612258565b5b60200260200101519080600181540180825580915050600190039060005260206000200160009091909190916101000a81548173ffffffffffffffffffffffffffffffffffffffff021916908373ffffffffffffffffffffffffffffffffffffffff160217905550600160cc600086848151811061091957610918612258565b5b602002602001015173ffffffffffffffffffffffffffffffffffffffff1673ffffffffffffffffffffffffffffffffffffffff16815260200190815260200160002060006101000a81548160ff021916908315150217905550808061097d9061235f565b91505061074a565b508160cd60006101000a81548160ff021916908360ff1602179055503373ffffffffffffffffffffffffffffffffffffffff167fe981d41cfcc707f2fa59586347099614ffa99754751f6000ade1fbd3514ebd4d84846040516109e99291906124a0565b60405180910390a28015610a125760008060016101000a81548160ff0219169083151502179055505b505050565b60cc6020528060005260406000206000915054906101000a900460ff1681565b7f000000000000000000000000000000000000000000000000000000000000000073ffffffffffffffffffffffffffffffffffffffff163073ffffffffffffffffffffffffffffffffffffffff1603610ac5576040517f08c379a0000000000000000000000000000000000000000000000000000000008152600401610abc90612542565b60405180910390fd5b7f000000000000000000000000000000000000000000000000000000000000000073ffffffffffffffffffffffffffffffffffffffff16610b046111e0565b73ffffffffffffffffffffffffffffffffffffffff1614610b5a576040517f08c379a0000000000000000000000000000000000000000000000000000000008152600401610b51906125d4565b60405180910390fd5b610b6381611237565b610bbc81600067ffffffffffffffff811115610b8257610b81611a3a565b5b6040519080825280601f01601f191660200182016040528015610bb45781602001600182028036833780820191505090505b5060006112b6565b50565b60ca6020528160005260406000206020528060005260406000206000915091509054906101000a900460ff1681565b60ce5481565b7f000000000000000000000000000000000000000000000000000000000000000073ffffffffffffffffffffffffffffffffffffffff163073ffffffffffffffffffffffffffffffffffffffff1603610c82576040517f08c379a0000000000000000000000000000000000000000000000000000000008152600401610c7990612542565b60405180910390fd5b7f000000000000000000000000000000000000000000000000000000000000000073ffffffffffffffffffffffffffffffffffffffff16610cc16111e0565b73ffffffffffffffffffffffffffffffffffffffff1614610d17576040517f08c379a0000000000000000000000000000000000000000000000000000000008152600401610d0e906125d4565b60405180910390fd5b610d2082611237565b610d2c828260016112b6565b5050565b60007f000000000000000000000000000000000000000000000000000000000000000073ffffffffffffffffffffffffffffffffffffffff163073ffffffffffffffffffffffffffffffffffffffff1614610dc0576040517f08c379a0000000000000000000000000000000000000000000000000000000008152600401610db790612666565b60405180910390fd5b7f360894a13ba1a3210667c828492db98dca3e2076cc3735a920a3ca505d382bbc60001b905090565b610df1611424565b73ffffffffffffffffffffffffffffffffffffffff16610e0f610e71565b73ffffffffffffffffffffffffffffffffffffffff1614610e65576040517f08c379a0000000000000000000000000000000000000000000000000000000008152600401610e5c906126d2565b60405180910390fd5b610e6f600061142c565b565b6000609760009054906101000a900473ffffffffffffffffffffffffffffffffffffffff16905090565b60c98181548110610eab57600080fd5b90600052602060002090600c02016000915090508060000160009054906101000a900473ffffffffffffffffffffffffffffffffffffffff1690806001018054610ef490612721565b80601f0160208091040260200160405190810160405280929190818152602001828054610f2090612721565b8015610f6d5780601f10610f4257610100808354040283529160200191610f6d565b820191906000526020600020905b815481529060010190602001808311610f5057829003601f168201915b5050505050908060020160009054906101000a900460ff16908060030154908060040154908060050154908060060154905087565b60d06020528060005260406000206000915090505481565b60cf6020528060005260406000206000915090505481565b610fda611424565b73ffffffffffffffffffffffffffffffffffffffff16610ff8610e71565b73ffffffffffffffffffffffffffffffffffffffff161461104e576040517f08c379a0000000000000000000000000000000000000000000000000000000008152600401611045906126d2565b60405180910390fd5b600073ffffffffffffffffffffffffffffffffffffffff168173ffffffffffffffffffffffffffffffffffffffff16036110bd576040517f08c379a00000000000000000000000000000000000000000000000000000000081526004016110b4906127c4565b60405180910390fd5b6110c68161142c565b50565b6040518060400160405280600581526020017f302e302e3100000000000000000000000000000000000000000000000000000081525081565b6000808273ffffffffffffffffffffffffffffffffffffffff163b119050919050565b600061113030611102565b15905090565b600060019054906101000a900460ff16611185576040517f08c379a000000000000000000000000000000000000000000000000000000000815260040161117c90612856565b60405180910390fd5b61118d6114f2565b565b600060019054906101000a900460ff166111de576040517f08c379a00000000000000000000000000000000000000000000000000000000081526004016111d590612856565b60405180910390fd5b565b600061120e7f360894a13ba1a3210667c828492db98dca3e2076cc3735a920a3ca505d382bbc60001b611553565b60000160009054906101000a900473ffffffffffffffffffffffffffffffffffffffff16905090565b61123f611424565b73ffffffffffffffffffffffffffffffffffffffff1661125d610e71565b73ffffffffffffffffffffffffffffffffffffffff16146112b3576040517f08c379a00000000000000000000000000000000000000000000000000000000081526004016112aa906126d2565b60405180910390fd5b50565b6112e27f4910fdfa16fed3260ed0e7147f7cc6da11a60208b5b9406d12a635614ffd914360001b61155d565b60000160009054906101000a900460ff16156113065761130183611567565b61141f565b8273ffffffffffffffffffffffffffffffffffffffff166352d1902d6040518163ffffffff1660e01b8152600401602060405180830381865afa92505050801561136e57506040513d601f19601f8201168201806040525081019061136b91906128a2565b60015b6113ad576040517f08c379a00000000000000000000000000000000000000000000000000000000081526004016113a490612941565b60405180910390fd5b7f360894a13ba1a3210667c828492db98dca3e2076cc3735a920a3ca505d382bbc60001b8114611412576040517f08c379a0000000000000000000000000000000000000000000000000000000008152600401611409906129d3565b60405180910390fd5b5061141e838383611620565b5b505050565b600033905090565b6000609760009054906101000a900473ffffffffffffffffffffffffffffffffffffffff16905081609760006101000a81548173ffffffffffffffffffffffffffffffffffffffff021916908373ffffffffffffffffffffffffffffffffffffffff1602179055508173ffffffffffffffffffffffffffffffffffffffff168173ffffffffffffffffffffffffffffffffffffffff167f8be0079c531659141344cd1fd0a4f28419497f9722a3daafe3b4186f6b6457e060405160405180910390a35050565b600060019054906101000a900460ff16611541576040517f08c379a000000000000000000000000000000000000000000000000000000000815260040161153890612856565b60405180910390fd5b61155161154c611424565b61142c565b565b6000819050919050565b6000819050919050565b61157081611102565b6115af576040517f08c379a00000000000000000000000000000000000000000000000000000000081526004016115a690612a65565b60405180910390fd5b806115dc7f360894a13ba1a3210667c828492db98dca3e2076cc3735a920a3ca505d382bbc60001b611553565b60000160006101000a81548173ffffffffffffffffffffffffffffffffffffffff021916908373ffffffffffffffffffffffffffffffffffffffff16021790555050565b6116298361164c565b6000825111806116365750805b1561164757611645838361169b565b505b505050565b61165581611567565b8073ffffffffffffffffffffffffffffffffffffffff167fbc7cd75a20ee27fd9adebab32041f755214dbc6bffa90cc0225b39da2e5c2d3b60405160405180910390a250565b60606116a683611102565b6116e5576040517f08c379a00000000000000000000000000000000000000000000000000000000081526004016116dc90612af7565b60405180910390fd5b6000808473ffffffffffffffffffffffffffffffffffffffff168460405161170d9190612b53565b600060405180830381855af49150503d8060008114611748576040519150601f19603f3d011682016040523d82523d6000602084013e61174d565b606091505b50915091506117758282604051806060016040528060278152602001612b6b6027913961177f565b9250505092915050565b6060831561178f578290506117df565b6000835111156117a25782518084602001fd5b816040517f08c379a00000000000000000000000000000000000000000000000000000000081526004016117d691906120cc565b60405180910390fd5b9392505050565b600082825260208201905092915050565b7f6e6f7420616e206f776e65720000000000000000000000000000000000000000600082015250565b600061182d600c836117e6565b9150611838826117f7565b602082019050919050565b6000602082019050818103600083015261185c81611820565b9050919050565b6000819050919050565b7f4e487b7100000000000000000000000000000000000000000000000000000000600052601160045260246000fd5b60006118a782611863565b91506118b283611863565b9250827fffffffffffffffffffffffffffffffffffffffffffffffffffffffffffffffff038211156118e7576118e661186d565b5b828201905092915050565b6118fb81611863565b82525050565b600060408201905061191660008301856118f2565b61192360208301846118f2565b9392505050565b6000604051905090565b600080fd5b600080fd5b61194781611863565b811461195257600080fd5b50565b6000813590506119648161193e565b92915050565b6000602082840312156119805761197f611934565b5b600061198e84828501611955565b91505092915050565b600073ffffffffffffffffffffffffffffffffffffffff82169050919050565b60006119c282611997565b9050919050565b6119d2816119b7565b82525050565b60006020820190506119ed60008301846119c9565b92915050565b6119fc816119b7565b8114611a0757600080fd5b50565b600081359050611a19816119f3565b92915050565b600080fd5b600080fd5b6000601f19601f8301169050919050565b7f4e487b7100000000000000000000000000000000000000000000000000000000600052604160045260246000fd5b611a7282611a29565b810181811067ffffffffffffffff82111715611a9157611a90611a3a565b5b80604052505050565b6000611aa461192a565b9050611ab08282611a69565b919050565b600067ffffffffffffffff821115611ad057611acf611a3a565b5b611ad982611a29565b9050602081019050919050565b82818337600083830152505050565b6000611b08611b0384611ab5565b611a9a565b905082815260208101848484011115611b2457611b23611a24565b5b611b2f848285611ae6565b509392505050565b600082601f830112611b4c57611b4b611a1f565b5b8135611b5c848260208601611af5565b91505092915050565b60008060008060808587031215611b7f57611b7e611934565b5b6000611b8d87828801611a0a565b9450506020611b9e87828801611a0a565b9350506040611baf87828801611955565b925050606085013567ffffffffffffffff811115611bd057611bcf611939565b5b611bdc87828801611b37565b91505092959194509250565b60007fffffffff0000000000000000000000000000000000000000000000000000000082169050919050565b611c1d81611be8565b82525050565b6000602082019050611c386000830184611c14565b92915050565b600060ff82169050919050565b611c5481611c3e565b82525050565b6000602082019050611c6f6000830184611c4b565b92915050565b600067ffffffffffffffff821115611c9057611c8f611a3a565b5b602082029050602081019050919050565b600080fd5b6000611cb9611cb484611c75565b611a9a565b90508083825260208201905060208402830185811115611cdc57611cdb611ca1565b5b835b81811015611d055780611cf18882611a0a565b845260208401935050602081019050611cde565b5050509392505050565b600082601f830112611d2457611d23611a1f565b5b8135611d34848260208601611ca6565b91505092915050565b611d4681611c3e565b8114611d5157600080fd5b50565b600081359050611d6381611d3d565b92915050565b60008060408385031215611d8057611d7f611934565b5b600083013567ffffffffffffffff811115611d9e57611d9d611939565b5b611daa85828601611d0f565b9250506020611dbb85828601611d54565b9150509250929050565b600060208284031215611ddb57611dda611934565b5b6000611de984828501611a0a565b91505092915050565b60008115159050919050565b611e0781611df2565b82525050565b6000602082019050611e226000830184611dfe565b92915050565b60008060408385031215611e3f57611e3e611934565b5b6000611e4d85828601611955565b9250506020611e5e85828601611a0a565b9150509250929050565b6000602082019050611e7d60008301846118f2565b92915050565b60008060408385031215611e9a57611e99611934565b5b6000611ea885828601611a0a565b925050602083013567ffffffffffffffff811115611ec957611ec8611939565b5b611ed585828601611b37565b9150509250929050565b6000819050919050565b611ef281611edf565b82525050565b6000602082019050611f0d6000830184611ee9565b92915050565b600081519050919050565b600082825260208201905092915050565b60005b83811015611f4d578082015181840152602081019050611f32565b83811115611f5c576000848401525b50505050565b6000611f6d82611f13565b611f778185611f1e565b9350611f87818560208601611f2f565b611f9081611a29565b840191505092915050565b7f4e487b7100000000000000000000000000000000000000000000000000000000600052602160045260246000fd5b60038110611fdb57611fda611f9b565b5b50565b6000819050611fec82611fca565b919050565b6000611ffc82611fde565b9050919050565b61200c81611ff1565b82525050565b600060e082019050612027600083018a6119c9565b81810360208301526120398189611f62565b90506120486040830188612003565b61205560608301876118f2565b61206260808301866118f2565b61206f60a08301856118f2565b61207c60c08301846118f2565b98975050505050505050565b600081519050919050565b600061209e82612088565b6120a881856117e6565b93506120b8818560208601611f2f565b6120c181611a29565b840191505092915050565b600060208201905081810360008301526120e68184612093565b905092915050565b7f496e697469616c697a61626c653a20636f6e747261637420697320616c72656160008201527f647920696e697469616c697a6564000000000000000000000000000000000000602082015250565b600061214a602e836117e6565b9150612155826120ee565b604082019050919050565b600060208201905081810360008301526121798161213d565b9050919050565b7f6f776e6572732072657175697265640000000000000000000000000000000000600082015250565b60006121b6600f836117e6565b91506121c182612180565b602082019050919050565b600060208201905081810360008301526121e5816121a9565b9050919050565b7f636f6e6669726d6174696f6e206e756d62657220696e76616c69640000000000600082015250565b6000612222601b836117e6565b915061222d826121ec565b602082019050919050565b6000602082019050818103600083015261225181612215565b9050919050565b7f4e487b7100000000000000000000000000000000000000000000000000000000600052603260045260246000fd5b7f6f776e6572206973206164647265737328302900000000000000000000000000600082015250565b60006122bd6013836117e6565b91506122c882612287565b602082019050919050565b600060208201905081810360008301526122ec816122b0565b9050919050565b7f6f776e657220697320616c7265616479206c6973746564000000000000000000600082015250565b60006123296017836117e6565b9150612334826122f3565b602082019050919050565b600060208201905081810360008301526123588161231c565b9050919050565b600061236a82611863565b91507fffffffffffffffffffffffffffffffffffffffffffffffffffffffffffffffff820361239c5761239b61186d565b5b600182019050919050565b600081519050919050565b600082825260208201905092915050565b6000819050602082019050919050565b6123dc816119b7565b82525050565b60006123ee83836123d3565b60208301905092915050565b6000602082019050919050565b6000612412826123a7565b61241c81856123b2565b9350612427836123c3565b8060005b8381101561245857815161243f88826123e2565b975061244a836123fa565b92505060018101905061242b565b5085935050505092915050565b6000819050919050565b600061248a61248561248084611c3e565b612465565b611863565b9050919050565b61249a8161246f565b82525050565b600060408201905081810360008301526124ba8185612407565b90506124c96020830184612491565b9392505050565b7f46756e6374696f6e206d7573742062652063616c6c6564207468726f7567682060008201527f64656c656761746563616c6c0000000000000000000000000000000000000000602082015250565b600061252c602c836117e6565b9150612537826124d0565b604082019050919050565b6000602082019050818103600083015261255b8161251f565b9050919050565b7f46756e6374696f6e206d7573742062652063616c6c6564207468726f7567682060008201527f6163746976652070726f78790000000000000000000000000000000000000000602082015250565b60006125be602c836117e6565b91506125c982612562565b604082019050919050565b600060208201905081810360008301526125ed816125b1565b9050919050565b7f555550535570677261646561626c653a206d757374206e6f742062652063616c60008201527f6c6564207468726f7567682064656c656761746563616c6c0000000000000000602082015250565b60006126506038836117e6565b915061265b826125f4565b604082019050919050565b6000602082019050818103600083015261267f81612643565b9050919050565b7f4f776e61626c653a2063616c6c6572206973206e6f7420746865206f776e6572600082015250565b60006126bc6020836117e6565b91506126c782612686565b602082019050919050565b600060208201905081810360008301526126eb816126af565b9050919050565b7f4e487b7100000000000000000000000000000000000000000000000000000000600052602260045260246000fd5b6000600282049050600182168061273957607f821691505b60208210810361274c5761274b6126f2565b5b50919050565b7f4f776e61626c653a206e6577206f776e657220697320746865207a65726f206160008201527f6464726573730000000000000000000000000000000000000000000000000000602082015250565b60006127ae6026836117e6565b91506127b982612752565b604082019050919050565b600060208201905081810360008301526127dd816127a1565b9050919050565b7f496e697469616c697a61626c653a20636f6e7472616374206973206e6f74206960008201527f6e697469616c697a696e67000000000000000000000000000000000000000000602082015250565b6000612840602b836117e6565b915061284b826127e4565b604082019050919050565b6000602082019050818103600083015261286f81612833565b9050919050565b61287f81611edf565b811461288a57600080fd5b50565b60008151905061289c81612876565b92915050565b6000602082840312156128b8576128b7611934565b5b60006128c68482850161288d565b91505092915050565b7f45524331393637557067726164653a206e657720696d706c656d656e7461746960008201527f6f6e206973206e6f742055555053000000000000000000000000000000000000602082015250565b600061292b602e836117e6565b9150612936826128cf565b604082019050919050565b6000602082019050818103600083015261295a8161291e565b9050919050565b7f45524331393637557067726164653a20756e737570706f727465642070726f7860008201527f6961626c65555549440000000000000000000000000000000000000000000000602082015250565b60006129bd6029836117e6565b91506129c882612961565b604082019050919050565b600060208201905081810360008301526129ec816129b0565b9050919050565b7f455243313936373a206e657720696d706c656d656e746174696f6e206973206e60008201527f6f74206120636f6e747261637400000000000000000000000000000000000000602082015250565b6000612a4f602d836117e6565b9150612a5a826129f3565b604082019050919050565b60006020820190508181036000830152612a7e81612a42565b9050919050565b7f416464726573733a2064656c65676174652063616c6c20746f206e6f6e2d636f60008201527f6e74726163740000000000000000000000000000000000000000000000000000602082015250565b6000612ae16026836117e6565b9150612aec82612a85565b604082019050919050565b60006020820190508181036000830152612b1081612ad4565b9050919050565b600081905092915050565b6000612b2d82611f13565b612b378185612b17565b9350612b47818560208601611f2f565b80840191505092915050565b6000612b5f8284612b22565b91508190509291505056fe416464726573733a206c6f772d6c6576656c2064656c65676174652063616c6c206661696c6564a26469706673582212209231209a54cf0e8d87273d536ef0a4f8b796f91adcaa02e2a0dea77f7dd3ba3a64736f6c634300080d0033",
  "linkReferences": {},
  "deployedLinkReferences": {}
}